{
  "transactions": [
    {
      "hash": "0x064455f069224b3037669bba0b28db1a9e0c9f22caf089a6dd3f5bf15efb0eb4",
      "transactionType": "CALL",
      "contractName": null,
      "contractAddress": "0xe9f7b6e25143b0b044498c14f8db0118f727421b",
      "function": "mint(int32,int32,uint32,uint32)",
      "arguments": [
        "6702000",
        "-75505000",
        "3000",
        "3000"
      ],
      "transaction": {
        "from": "0x42d0e25f42dd126d2c1ebc5592067303c4c0f7d3",
        "to": "0xe9f7b6e25143b0b044498c14f8db0118f727421b",
        "gas": "0x34a99",
        "value": "0x0",
        "input": "0x222a022600000000000000000000000000000000000000000000000000000000006643b0fffffffffffffffffffffffffffffffffffffffffffffffffffffffffb7fe2980000000000000000000000000000000000000000000000000000000000000bb80000000000000000000000000000000000000000000000000000000000000bb8",
        "nonce": "0x1",
        "chainId": "0xaa36a7"
      },
      "additionalContracts": [],
      "isFixedGasLimit": false
    },
    {
      "hash": "0x4640eb2f68ed999dbac093192f083ab690cae13b2d33fda7eca83078dede99f5",
      "transactionType": "CALL",
      "contractName": null,
      "contractAddress": "0xe9f7b6e25143b0b044498c14f8db0118f727421b",
      "function": "mint(int32,int32,uint32,uint32)",
      "arguments": [
        "6702000",
        "-75502000",
        "3000",
        "3000"
      ],
      "transaction": {
        "from": "0x42d0e25f42dd126d2c1ebc5592067303c4c0f7d3",
        "to": "0xe9f7b6e25143b0b044498c14f8db0118f727421b",
        "gas": "0x41dd6",
        "value": "0x0",
        "input": "0x222a022600000000000000000000000000000000000000000000000000000000006643b0fffffffffffffffffffffffffffffffffffffffffffffffffffffffffb7fee500000000000000000000000000000000000000000000000000000000000000bb80000000000000000000000000000000000000000000000000000000000000bb8",
        "nonce": "0x2",
        "chainId": "0xaa36a7"
      },
      "additionalContracts": [],
      "isFixedGasLimit": false
    },
    {
      "hash": "0x2ab3378b830f6867661befeaabd5f89b5c875222bb4095dce2b191b97e2eea7d",
      "transactionType": "CALL",
      "contractName": null,
      "contractAddress": "0xe9f7b6e25143b0b044498c14f8db0118f727421b",
      "function": "mint(int32,int32,uint32,uint32)",
      "arguments": [
        "6702000",
        "-75499000",
        "3000",
        "3000"
      ],
      "transaction": {
        "from": "0x42d0e25f42dd126d2c1ebc5592067303c4c0f7d3",
        "to": "0xe9f7b6e25143b0b044498c14f8db0118f727421b",
        "gas": "0x41dd6",
        "value": "0x0",
        "input": "0x222a022600000000000000000000000000000000000000000000000000000000006643b0fffffffffffffffffffffffffffffffffffffffffffffffffffffffffb7ffa080000000000000000000000000000000000000000000000000000000000000bb80000000000000000000000000000000000000000000000000000000000000bb8",
        "nonce": "0x3",
        "chainId": "0xaa36a7"
      },
      "additionalContracts": [],
      "isFixedGasLimit": false
    },
    {
      "hash": "0xc4e6233259bd64af624956dd7f9c0fc34f7a59146f15fd16ba6248da8a2cd58f",
      "transactionType": "CALL",
      "contractName": null,
      "contractAddress": "0xe9f7b6e25143b0b044498c14f8db0118f727421b",
      "function": "mint(int32,int32,uint32,uint32)",
      "arguments": [
        "6702000",
        "-75496000",
        "3000",
        "3000"
      ],
      "transaction": {
        "from": "0x42d0e25f42dd126d2c1ebc5592067303c4c0f7d3",
        "to": "0xe9f7b6e25143b0b044498c14f8db0118f727421b",
        "gas": "0x41dd6",
        "value": "0x0",
        "input": "0x222a022600000000000000000000000000000000000000000000000000000000006643b0fffffffffffffffffffffffffffffffffffffffffffffffffffffffffb8005c00000000000000000000000000000000000000000000000000000000000000bb80000000000000000000000000000000000000000000000000000000000000bb8",
        "nonce": "0x4",
        "chainId": "0xaa36a7"
      },
      "additionalContracts": [],
      "isFixedGasLimit": false
    },
    {
      "hash": "0x009617b1dcad12d6028049ba89b68e5bb164e6c3eef34634545c3d4a014d8731",
      "transactionType": "CALL",
      "contractName": null,
      "contractAddress": "0xe9f7b6e25143b0b044498c14f8db0118f727421b",
      "function": "mint(int32,int32,uint32,uint32)",
      "arguments": [
        "6702000",
        "-75493000",
        "3000",
        "3000"
      ],
      "transaction": {
        "from": "0x42d0e25f42dd126d2c1ebc5592067303c4c0f7d3",
        "to": "0xe9f7b6e25143b0b044498c14f8db0118f727421b",
        "gas": "0x41dd6",
        "value": "0x0",
        "input": "0x222a022600000000000000000000000000000000000000000000000000000000006643b0fffffffffffffffffffffffffffffffffffffffffffffffffffffffffb8011780000000000000000000000000000000000000000000000000000000000000bb80000000000000000000000000000000000000000000000000000000000000bb8",
        "nonce": "0x5",
        "chainId": "0xaa36a7"
      },
      "additionalContracts": [],
      "isFixedGasLimit": false
    },
    {
      "hash": "0x36abb6e91a1954efc3f22129f3c3cd28a6727254ce3bb7131fc34e8bcd76f0ac",
      "transactionType": "CALL",
      "contractName": null,
      "contractAddress": "0xe9f7b6e25143b0b044498c14f8db0118f727421b",
      "function": "mint(int32,int32,uint32,uint32)",
      "arguments": [
        "6702000",
        "-75490000",
        "3000",
        "3000"
      ],
      "transaction": {
        "from": "0x42d0e25f42dd126d2c1ebc5592067303c4c0f7d3",
        "to": "0xe9f7b6e25143b0b044498c14f8db0118f727421b",
        "gas": "0x41dd6",
        "value": "0x0",
        "input": "0x222a022600000000000000000000000000000000000000000000000000000000006643b0fffffffffffffffffffffffffffffffffffffffffffffffffffffffffb801d300000000000000000000000000000000000000000000000000000000000000bb80000000000000000000000000000000000000000000000000000000000000bb8",
        "nonce": "0x6",
        "chainId": "0xaa36a7"
      },
      "additionalContracts": [],
      "isFixedGasLimit": false
    },
    {
      "hash": "0xc752ec5e314635da074ca5ac726b11c568121c1863e37afe1c6baad6054d0122",
      "transactionType": "CALL",
      "contractName": null,
      "contractAddress": "0xe9f7b6e25143b0b044498c14f8db0118f727421b",
      "function": "mint(int32,int32,uint32,uint32)",
      "arguments": [
        "6705000",
        "-75505000",
        "3000",
        "3000"
      ],
      "transaction": {
        "from": "0x42d0e25f42dd126d2c1ebc5592067303c4c0f7d3",
        "to": "0xe9f7b6e25143b0b044498c14f8db0118f727421b",
        "gas": "0x41dd6",
        "value": "0x0",
        "input": "0x222a02260000000000000000000000000000000000000000000000000000000000664f68fffffffffffffffffffffffffffffffffffffffffffffffffffffffffb7fe2980000000000000000000000000000000000000000000000000000000000000bb80000000000000000000000000000000000000000000000000000000000000bb8",
        "nonce": "0x7",
        "chainId": "0xaa36a7"
      },
      "additionalContracts": [],
      "isFixedGasLimit": false
    },
    {
      "hash": "0xf22e0c6c5f3b071862c8051fb259240e3f6b2d24d229b7a7d62e3e1d9f08df4f",
      "transactionType": "CALL",
      "contractName": null,
      "contractAddress": "0xe9f7b6e25143b0b044498c14f8db0118f727421b",
      "function": "mint(int32,int32,uint32,uint32)",
      "arguments": [
        "6705000",
        "-75502000",
        "3000",
        "3000"
      ],
      "transaction": {
        "from": "0x42d0e25f42dd126d2c1ebc5592067303c4c0f7d3",
        "to": "0xe9f7b6e25143b0b044498c14f8db0118f727421b",
        "gas": "0x41dd6",
        "value": "0x0",
        "input": "0x222a02260000000000000000000000000000000000000000000000000000000000664f68fffffffffffffffffffffffffffffffffffffffffffffffffffffffffb7fee500000000000000000000000000000000000000000000000000000000000000bb80000000000000000000000000000000000000000000000000000000000000bb8",
        "nonce": "0x8",
        "chainId": "0xaa36a7"
      },
      "additionalContracts": [],
      "isFixedGasLimit": false
    },
    {
      "hash": "0xfcc8f41aa419e2b85cbd596ce997131f5bc8d428e87c84ed3151cfbc4dd611ea",
      "transactionType": "CALL",
      "contractName": null,
      "contractAddress": "0xe9f7b6e25143b0b044498c14f8db0118f727421b",
      "function": "mint(int32,int32,uint32,uint32)",
      "arguments": [
        "6705000",
        "-75499000",
        "3000",
        "3000"
      ],
      "transaction": {
        "from": "0x42d0e25f42dd126d2c1ebc5592067303c4c0f7d3",
        "to": "0xe9f7b6e25143b0b044498c14f8db0118f727421b",
        "gas": "0x41dd6",
        "value": "0x0",
        "input": "0x222a02260000000000000000000000000000000000000000000000000000000000664f68fffffffffffffffffffffffffffffffffffffffffffffffffffffffffb7ffa080000000000000000000000000000000000000000000000000000000000000bb80000000000000000000000000000000000000000000000000000000000000bb8",
        "nonce": "0x9",
        "chainId": "0xaa36a7"
      },
      "additionalContracts": [],
      "isFixedGasLimit": false
    },
    {
      "hash": "0x016d540832ae05455a400e059ae5909b0fee4d2f8e789aed4bbd05c1dd110344",
      "transactionType": "CALL",
      "contractName": null,
      "contractAddress": "0xe9f7b6e25143b0b044498c14f8db0118f727421b",
      "function": "mint(int32,int32,uint32,uint32)",
      "arguments": [
        "6705000",
        "-75496000",
        "3000",
        "3000"
      ],
      "transaction": {
        "from": "0x42d0e25f42dd126d2c1ebc5592067303c4c0f7d3",
        "to": "0xe9f7b6e25143b0b044498c14f8db0118f727421b",
        "gas": "0x41dd6",
        "value": "0x0",
        "input": "0x222a02260000000000000000000000000000000000000000000000000000000000664f68fffffffffffffffffffffffffffffffffffffffffffffffffffffffffb8005c00000000000000000000000000000000000000000000000000000000000000bb80000000000000000000000000000000000000000000000000000000000000bb8",
        "nonce": "0xa",
        "chainId": "0xaa36a7"
      },
      "additionalContracts": [],
      "isFixedGasLimit": false
    },
    {
      "hash": "0x23b02c85284b96a675328df718be6927b751dc3a0f1cd48e309e137f9f85a80a",
      "transactionType": "CALL",
      "contractName": null,
      "contractAddress": "0xe9f7b6e25143b0b044498c14f8db0118f727421b",
      "function": "mint(int32,int32,uint32,uint32)",
      "arguments": [
        "6705000",
        "-75493000",
        "3000",
        "3000"
      ],
      "transaction": {
        "from": "0x42d0e25f42dd126d2c1ebc5592067303c4c0f7d3",
        "to": "0xe9f7b6e25143b0b044498c14f8db0118f727421b",
        "gas": "0x41dd6",
        "value": "0x0",
        "input": "0x222a02260000000000000000000000000000000000000000000000000000000000664f68fffffffffffffffffffffffffffffffffffffffffffffffffffffffffb8011780000000000000000000000000000000000000000000000000000000000000bb80000000000000000000000000000000000000000000000000000000000000bb8",
        "nonce": "0xb",
        "chainId": "0xaa36a7"
      },
      "additionalContracts": [],
      "isFixedGasLimit": false
    },
    {
      "hash": "0x2c9f2697b52c1664698ad2a82133890e3ec6f2d6fda90a88ec005f9d1dbf86e7",
      "transactionType": "CALL",
      "contractName": null,
      "contractAddress": "0xe9f7b6e25143b0b044498c14f8db0118f727421b",
      "function": "mint(int32,int32,uint32,uint32)",
      "arguments": [
        "6705000",
        "-75490000",
        "3000",
        "3000"
      ],
      "transaction": {
        "from": "0x42d0e25f42dd126d2c1ebc5592067303c4c0f7d3",
        "to": "0xe9f7b6e25143b0b044498c14f8db0118f727421b",
        "gas": "0x41dd6",
        "value": "0x0",
        "input": "0x222a02260000000000000000000000000000000000000000000000000000000000664f68fffffffffffffffffffffffffffffffffffffffffffffffffffffffffb801d300000000000000000000000000000000000000000000000000000000000000bb80000000000000000000000000000000000000000000000000000000000000bb8",
        "nonce": "0xc",
        "chainId": "0xaa36a7"
      },
      "additionalContracts": [],
      "isFixedGasLimit": false
    },
    {
      "hash": "0xad4869747ddd72432c3a27fadd0e231d7193d66fc2e766d56b2c91c6b4616848",
      "transactionType": "CALL",
      "contractName": null,
      "contractAddress": "0xe9f7b6e25143b0b044498c14f8db0118f727421b",
      "function": "mint(int32,int32,uint32,uint32)",
      "arguments": [
        "6708000",
        "-75505000",
        "3000",
        "3000"
      ],
      "transaction": {
        "from": "0x42d0e25f42dd126d2c1ebc5592067303c4c0f7d3",
        "to": "0xe9f7b6e25143b0b044498c14f8db0118f727421b",
        "gas": "0x41dd6",
        "value": "0x0",
        "input": "0x222a02260000000000000000000000000000000000000000000000000000000000665b20fffffffffffffffffffffffffffffffffffffffffffffffffffffffffb7fe2980000000000000000000000000000000000000000000000000000000000000bb80000000000000000000000000000000000000000000000000000000000000bb8",
        "nonce": "0xd",
        "chainId": "0xaa36a7"
      },
      "additionalContracts": [],
      "isFixedGasLimit": false
    },
    {
      "hash": "0xf42711823afeb422514c83f6f4ccd19f3e8c5448205c54926f3ff6d47cca68b6",
      "transactionType": "CALL",
      "contractName": null,
      "contractAddress": "0xe9f7b6e25143b0b044498c14f8db0118f727421b",
      "function": "mint(int32,int32,uint32,uint32)",
      "arguments": [
        "6708000",
        "-75502000",
        "3000",
        "3000"
      ],
      "transaction": {
        "from": "0x42d0e25f42dd126d2c1ebc5592067303c4c0f7d3",
        "to": "0xe9f7b6e25143b0b044498c14f8db0118f727421b",
        "gas": "0x41dd6",
        "value": "0x0",
        "input": "0x222a02260000000000000000000000000000000000000000000000000000000000665b20fffffffffffffffffffffffffffffffffffffffffffffffffffffffffb7fee500000000000000000000000000000000000000000000000000000000000000bb80000000000000000000000000000000000000000000000000000000000000bb8",
        "nonce": "0xe",
        "chainId": "0xaa36a7"
      },
      "additionalContracts": [],
      "isFixedGasLimit": false
    },
    {
      "hash": "0xc6aec730f5d0a302a41b158401923e7a7b777158ec48d101748265aaa018f11c",
      "transactionType": "CALL",
      "contractName": null,
      "contractAddress": "0xe9f7b6e25143b0b044498c14f8db0118f727421b",
      "function": "mint(int32,int32,uint32,uint32)",
      "arguments": [
        "6708000",
        "-75499000",
        "3000",
        "3000"
      ],
      "transaction": {
        "from": "0x42d0e25f42dd126d2c1ebc5592067303c4c0f7d3",
        "to": "0xe9f7b6e25143b0b044498c14f8db0118f727421b",
        "gas": "0x41dd6",
        "value": "0x0",
        "input": "0x222a02260000000000000000000000000000000000000000000000000000000000665b20fffffffffffffffffffffffffffffffffffffffffffffffffffffffffb7ffa080000000000000000000000000000000000000000000000000000000000000bb80000000000000000000000000000000000000000000000000000000000000bb8",
        "nonce": "0xf",
        "chainId": "0xaa36a7"
      },
      "additionalContracts": [],
      "isFixedGasLimit": false
    },
    {
      "hash": "0xf72e1654dd248ef9fe68cbe186d369d5cf024acf112000d5dfe399e6ea0217d6",
      "transactionType": "CALL",
      "contractName": null,
      "contractAddress": "0xe9f7b6e25143b0b044498c14f8db0118f727421b",
      "function": "mint(int32,int32,uint32,uint32)",
      "arguments": [
        "6708000",
        "-75496000",
        "3000",
        "3000"
      ],
      "transaction": {
        "from": "0x42d0e25f42dd126d2c1ebc5592067303c4c0f7d3",
        "to": "0xe9f7b6e25143b0b044498c14f8db0118f727421b",
        "gas": "0x41dd6",
        "value": "0x0",
        "input": "0x222a02260000000000000000000000000000000000000000000000000000000000665b20fffffffffffffffffffffffffffffffffffffffffffffffffffffffffb8005c00000000000000000000000000000000000000000000000000000000000000bb80000000000000000000000000000000000000000000000000000000000000bb8",
        "nonce": "0x10",
        "chainId": "0xaa36a7"
      },
      "additionalContracts": [],
      "isFixedGasLimit": false
    },
    {
      "hash": "0x51d00b8bc016913abe995882c2a7e4de7b7fae193aea2aa64f0091bfc4a54eac",
      "transactionType": "CALL",
      "contractName": null,
      "contractAddress": "0xe9f7b6e25143b0b044498c14f8db0118f727421b",
      "function": "mint(int32,int32,uint32,uint32)",
      "arguments": [
        "6708000",
        "-75493000",
        "3000",
        "3000"
      ],
      "transaction": {
        "from": "0x42d0e25f42dd126d2c1ebc5592067303c4c0f7d3",
        "to": "0xe9f7b6e25143b0b044498c14f8db0118f727421b",
        "gas": "0x41dd6",
        "value": "0x0",
        "input": "0x222a02260000000000000000000000000000000000000000000000000000000000665b20fffffffffffffffffffffffffffffffffffffffffffffffffffffffffb8011780000000000000000000000000000000000000000000000000000000000000bb80000000000000000000000000000000000000000000000000000000000000bb8",
        "nonce": "0x11",
        "chainId": "0xaa36a7"
      },
      "additionalContracts": [],
      "isFixedGasLimit": false
    },
    {
      "hash": "0x3457d481a46a6546ad445d87bdd1664ed0d01087c9a6f93b7776092a96f97053",
      "transactionType": "CALL",
      "contractName": null,
      "contractAddress": "0xe9f7b6e25143b0b044498c14f8db0118f727421b",
      "function": "mint(int32,int32,uint32,uint32)",
      "arguments": [
        "6708000",
        "-75490000",
        "3000",
        "3000"
      ],
      "transaction": {
        "from": "0x42d0e25f42dd126d2c1ebc5592067303c4c0f7d3",
        "to": "0xe9f7b6e25143b0b044498c14f8db0118f727421b",
        "gas": "0x41dd6",
        "value": "0x0",
        "input": "0x222a02260000000000000000000000000000000000000000000000000000000000665b20fffffffffffffffffffffffffffffffffffffffffffffffffffffffffb801d300000000000000000000000000000000000000000000000000000000000000bb80000000000000000000000000000000000000000000000000000000000000bb8",
        "nonce": "0x12",
        "chainId": "0xaa36a7"
      },
      "additionalContracts": [],
      "isFixedGasLimit": false
    },
    {
      "hash": "0x076e53f393475fde4c99deb57dee1a639d8fc9e05e0a74026ac3186e51753546",
      "transactionType": "CALL",
      "contractName": null,
      "contractAddress": "0xe9f7b6e25143b0b044498c14f8db0118f727421b",
      "function": "mint(int32,int32,uint32,uint32)",
      "arguments": [
        "6711000",
        "-75505000",
        "3000",
        "3000"
      ],
      "transaction": {
        "from": "0x42d0e25f42dd126d2c1ebc5592067303c4c0f7d3",
        "to": "0xe9f7b6e25143b0b044498c14f8db0118f727421b",
        "gas": "0x41dd6",
        "value": "0x0",
        "input": "0x222a022600000000000000000000000000000000000000000000000000000000006666d8fffffffffffffffffffffffffffffffffffffffffffffffffffffffffb7fe2980000000000000000000000000000000000000000000000000000000000000bb80000000000000000000000000000000000000000000000000000000000000bb8",
        "nonce": "0x13",
        "chainId": "0xaa36a7"
      },
      "additionalContracts": [],
      "isFixedGasLimit": false
    },
    {
      "hash": "0x0585ccfeebe9ec1f86a4cbedd70080cc45924ccb8a0e4259863fc07b03be1879",
      "transactionType": "CALL",
      "contractName": null,
      "contractAddress": "0xe9f7b6e25143b0b044498c14f8db0118f727421b",
      "function": "mint(int32,int32,uint32,uint32)",
      "arguments": [
        "6711000",
        "-75502000",
        "3000",
        "3000"
      ],
      "transaction": {
        "from": "0x42d0e25f42dd126d2c1ebc5592067303c4c0f7d3",
        "to": "0xe9f7b6e25143b0b044498c14f8db0118f727421b",
        "gas": "0x41dd6",
        "value": "0x0",
        "input": "0x222a022600000000000000000000000000000000000000000000000000000000006666d8fffffffffffffffffffffffffffffffffffffffffffffffffffffffffb7fee500000000000000000000000000000000000000000000000000000000000000bb80000000000000000000000000000000000000000000000000000000000000bb8",
        "nonce": "0x14",
        "chainId": "0xaa36a7"
      },
      "additionalContracts": [],
      "isFixedGasLimit": false
    },
    {
      "hash": "0x98a656b3ac4623334444ed02012a253e4f6f2f277e5aedd58e7fc9615635c64f",
      "transactionType": "CALL",
      "contractName": null,
      "contractAddress": "0xe9f7b6e25143b0b044498c14f8db0118f727421b",
      "function": "mint(int32,int32,uint32,uint32)",
      "arguments": [
        "6711000",
        "-75499000",
        "3000",
        "3000"
      ],
      "transaction": {
        "from": "0x42d0e25f42dd126d2c1ebc5592067303c4c0f7d3",
        "to": "0xe9f7b6e25143b0b044498c14f8db0118f727421b",
        "gas": "0x41dd6",
        "value": "0x0",
        "input": "0x222a022600000000000000000000000000000000000000000000000000000000006666d8fffffffffffffffffffffffffffffffffffffffffffffffffffffffffb7ffa080000000000000000000000000000000000000000000000000000000000000bb80000000000000000000000000000000000000000000000000000000000000bb8",
        "nonce": "0x15",
        "chainId": "0xaa36a7"
      },
      "additionalContracts": [],
      "isFixedGasLimit": false
    },
    {
      "hash": "0xba8fa9aebfeedcae98ca9492c11ea0536888c64dc2ec8ee97a38ac1604c4d64b",
      "transactionType": "CALL",
      "contractName": null,
      "contractAddress": "0xe9f7b6e25143b0b044498c14f8db0118f727421b",
      "function": "mint(int32,int32,uint32,uint32)",
      "arguments": [
        "6711000",
        "-75496000",
        "3000",
        "3000"
      ],
      "transaction": {
        "from": "0x42d0e25f42dd126d2c1ebc5592067303c4c0f7d3",
        "to": "0xe9f7b6e25143b0b044498c14f8db0118f727421b",
        "gas": "0x41dd6",
        "value": "0x0",
        "input": "0x222a022600000000000000000000000000000000000000000000000000000000006666d8fffffffffffffffffffffffffffffffffffffffffffffffffffffffffb8005c00000000000000000000000000000000000000000000000000000000000000bb80000000000000000000000000000000000000000000000000000000000000bb8",
        "nonce": "0x16",
        "chainId": "0xaa36a7"
      },
      "additionalContracts": [],
      "isFixedGasLimit": false
    },
    {
      "hash": "0x8090013a581a0f42e6c7b5638c6c89164fbdd78c173f514a405cc38d46aeb3ba",
      "transactionType": "CALL",
      "contractName": null,
      "contractAddress": "0xe9f7b6e25143b0b044498c14f8db0118f727421b",
      "function": "mint(int32,int32,uint32,uint32)",
      "arguments": [
        "6711000",
        "-75493000",
        "3000",
        "3000"
      ],
      "transaction": {
        "from": "0x42d0e25f42dd126d2c1ebc5592067303c4c0f7d3",
        "to": "0xe9f7b6e25143b0b044498c14f8db0118f727421b",
        "gas": "0x41dd6",
        "value": "0x0",
        "input": "0x222a022600000000000000000000000000000000000000000000000000000000006666d8fffffffffffffffffffffffffffffffffffffffffffffffffffffffffb8011780000000000000000000000000000000000000000000000000000000000000bb80000000000000000000000000000000000000000000000000000000000000bb8",
        "nonce": "0x17",
        "chainId": "0xaa36a7"
      },
      "additionalContracts": [],
      "isFixedGasLimit": false
    },
    {
      "hash": "0x5d1137d566ffedf9f375733eb584e24b2b7b4bae12d761a8388ac37bf532c9b6",
      "transactionType": "CALL",
      "contractName": null,
      "contractAddress": "0xe9f7b6e25143b0b044498c14f8db0118f727421b",
      "function": "mint(int32,int32,uint32,uint32)",
      "arguments": [
        "6711000",
        "-75490000",
        "3000",
        "3000"
      ],
      "transaction": {
        "from": "0x42d0e25f42dd126d2c1ebc5592067303c4c0f7d3",
        "to": "0xe9f7b6e25143b0b044498c14f8db0118f727421b",
        "gas": "0x41dd6",
        "value": "0x0",
        "input": "0x222a022600000000000000000000000000000000000000000000000000000000006666d8fffffffffffffffffffffffffffffffffffffffffffffffffffffffffb801d300000000000000000000000000000000000000000000000000000000000000bb80000000000000000000000000000000000000000000000000000000000000bb8",
        "nonce": "0x18",
        "chainId": "0xaa36a7"
      },
      "additionalContracts": [],
      "isFixedGasLimit": false
    },
    {
      "hash": "0xc8c1c205de79c2015a0e54fe481a7dea95960504b2c2be2644ce81b8d699a307",
      "transactionType": "CALL",
      "contractName": null,
      "contractAddress": "0xe9f7b6e25143b0b044498c14f8db0118f727421b",
      "function": "list(uint256,uint256)",
      "arguments": [
        "0",
        "10000000000000000"
      ],
      "transaction": {
        "from": "0x42d0e25f42dd126d2c1ebc5592067303c4c0f7d3",
        "to": "0xe9f7b6e25143b0b044498c14f8db0118f727421b",
        "gas": "0x1208b",
        "value": "0x0",
        "input": "0x50fd73670000000000000000000000000000000000000000000000000000000000000000000000000000000000000000000000000000000000000000002386f26fc10000",
        "nonce": "0x19",
        "chainId": "0xaa36a7"
      },
      "additionalContracts": [],
      "isFixedGasLimit": false
    },
    {
      "hash": "0xc3e966a7ca584d45a2f9b49ed1080e2cb5b0976039c00837e756d4f29c761e11",
      "transactionType": "CALL",
      "contractName": null,
      "contractAddress": "0xe9f7b6e25143b0b044498c14f8db0118f727421b",
      "function": "list(uint256,uint256)",
      "arguments": [
        "1",
        "10000000000000000"
      ],
      "transaction": {
        "from": "0x42d0e25f42dd126d2c1ebc5592067303c4c0f7d3",
        "to": "0xe9f7b6e25143b0b044498c14f8db0118f727421b",
        "gas": "0x13196",
        "value": "0x0",
        "input": "0x50fd73670000000000000000000000000000000000000000000000000000000000000001000000000000000000000000000000000000000000000000002386f26fc10000",
        "nonce": "0x1a",
        "chainId": "0xaa36a7"
      },
      "additionalContracts": [],
      "isFixedGasLimit": false
    },
    {
      "hash": "0x34ce66ca80f72d7abad1243c3ff75aed00cb6e77416317883fe4707c26578772",
      "transactionType": "CALL",
      "contractName": null,
      "contractAddress": "0xe9f7b6e25143b0b044498c14f8db0118f727421b",
      "function": "list(uint256,uint256)",
      "arguments": [
        "2",
        "10000000000000000"
      ],
      "transaction": {
        "from": "0x42d0e25f42dd126d2c1ebc5592067303c4c0f7d3",
        "to": "0xe9f7b6e25143b0b044498c14f8db0118f727421b",
        "gas": "0x13196",
        "value": "0x0",
        "input": "0x50fd73670000000000000000000000000000000000000000000000000000000000000002000000000000000000000000000000000000000000000000002386f26fc10000",
        "nonce": "0x1b",
        "chainId": "0xaa36a7"
      },
      "additionalContracts": [],
      "isFixedGasLimit": false
    },
    {
      "hash": "0xa7a8d12dec68f3669b92a5cccbdb94c3476d06ad8d1253c9f6f1bcbbf562de3c",
      "transactionType": "CALL",
      "contractName": null,
      "contractAddress": "0xe9f7b6e25143b0b044498c14f8db0118f727421b",
      "function": "list(uint256,uint256)",
      "arguments": [
        "3",
        "10000000000000000"
      ],
      "transaction": {
        "from": "0x42d0e25f42dd126d2c1ebc5592067303c4c0f7d3",
        "to": "0xe9f7b6e25143b0b044498c14f8db0118f727421b",
        "gas": "0x13196",
        "value": "0x0",
        "input": "0x50fd73670000000000000000000000000000000000000000000000000000000000000003000000000000000000000000000000000000000000000000002386f26fc10000",
        "nonce": "0x1c",
        "chainId": "0xaa36a7"
      },
      "additionalContracts": [],
      "isFixedGasLimit": false
    },
    {
      "hash": "0x9613b3a16fa01a902536246be36c3a685547bcdd7ba895924b263239b398b664",
      "transactionType": "CALL",
      "contractName": null,
      "contractAddress": "0xe9f7b6e25143b0b044498c14f8db0118f727421b",
      "function": "list(uint256,uint256)",
      "arguments": [
        "4",
        "10000000000000000"
      ],
      "transaction": {
        "from": "0x42d0e25f42dd126d2c1ebc5592067303c4c0f7d3",
        "to": "0xe9f7b6e25143b0b044498c14f8db0118f727421b",
        "gas": "0x13196",
        "value": "0x0",
        "input": "0x50fd73670000000000000000000000000000000000000000000000000000000000000004000000000000000000000000000000000000000000000000002386f26fc10000",
        "nonce": "0x1d",
        "chainId": "0xaa36a7"
      },
      "additionalContracts": [],
      "isFixedGasLimit": false
    },
    {
      "hash": "0x14428127e835aadad6f9a012aefa8b22aea068effb1f0960475dd8d13d7e2ab3",
      "transactionType": "CALL",
      "contractName": null,
      "contractAddress": "0xe9f7b6e25143b0b044498c14f8db0118f727421b",
      "function": "list(uint256,uint256)",
      "arguments": [
        "5",
        "10000000000000000"
      ],
      "transaction": {
        "from": "0x42d0e25f42dd126d2c1ebc5592067303c4c0f7d3",
        "to": "0xe9f7b6e25143b0b044498c14f8db0118f727421b",
        "gas": "0x13196",
        "value": "0x0",
        "input": "0x50fd73670000000000000000000000000000000000000000000000000000000000000005000000000000000000000000000000000000000000000000002386f26fc10000",
        "nonce": "0x1e",
        "chainId": "0xaa36a7"
      },
      "additionalContracts": [],
      "isFixedGasLimit": false
    },
    {
      "hash": "0xc7af2e8372e0aecd62aa5fd270b36eb0326be208e6b8825a70ba4beca5cd259d",
      "transactionType": "CALL",
      "contractName": null,
      "contractAddress": "0xe9f7b6e25143b0b044498c14f8db0118f727421b",
      "function": "list(uint256,uint256)",
      "arguments": [
        "6",
        "10000000000000000"
      ],
      "transaction": {
        "from": "0x42d0e25f42dd126d2c1ebc5592067303c4c0f7d3",
        "to": "0xe9f7b6e25143b0b044498c14f8db0118f727421b",
        "gas": "0x13196",
        "value": "0x0",
        "input": "0x50fd73670000000000000000000000000000000000000000000000000000000000000006000000000000000000000000000000000000000000000000002386f26fc10000",
        "nonce": "0x1f",
        "chainId": "0xaa36a7"
      },
      "additionalContracts": [],
      "isFixedGasLimit": false
    },
    {
      "hash": "0x2f7132dc5e87cb09a374a70b7d4697d750b4826640ad9fe1f4bf29ff9d6fac1d",
      "transactionType": "CALL",
      "contractName": null,
      "contractAddress": "0xe9f7b6e25143b0b044498c14f8db0118f727421b",
      "function": "list(uint256,uint256)",
      "arguments": [
        "7",
        "10000000000000000"
      ],
      "transaction": {
        "from": "0x42d0e25f42dd126d2c1ebc5592067303c4c0f7d3",
        "to": "0xe9f7b6e25143b0b044498c14f8db0118f727421b",
        "gas": "0x13196",
        "value": "0x0",
        "input": "0x50fd73670000000000000000000000000000000000000000000000000000000000000007000000000000000000000000000000000000000000000000002386f26fc10000",
        "nonce": "0x20",
        "chainId": "0xaa36a7"
      },
      "additionalContracts": [],
      "isFixedGasLimit": false
    }
  ],
  "receipts": [
    {
      "status": "0x1",
      "cumulativeGasUsed": "0xee1298",
      "logs": [
        {
          "address": "0xe9f7b6e25143b0b044498c14f8db0118f727421b",
          "topics": [
            "0xddf252ad1be2c89b69c2b068fc378daa952ba7f163c4a11628f55a4df523b3ef",
            "0x0000000000000000000000000000000000000000000000000000000000000000",
            "0x00000000000000000000000042d0e25f42dd126d2c1ebc5592067303c4c0f7d3",
            "0x0000000000000000000000000000000000000000000000000000000000000000"
          ],
          "data": "0x",
          "blockHash": "0xbff1205a0a7a4d1c61ed277cefe797262e7d1c2399f25461645c98904182b178",
          "blockNumber": "0x9d2df9",
          "blockTimestamp": "0x69989c10",
          "transactionHash": "0x064455f069224b3037669bba0b28db1a9e0c9f22caf089a6dd3f5bf15efb0eb4",
          "transactionIndex": "0x59",
          "logIndex": "0xde",
          "removed": false
        },
        {
          "address": "0xe9f7b6e25143b0b044498c14f8db0118f727421b",
          "topics": [
            "0x7d5a649a0cee1e82345eaee0a79f44c313d7fff045298783e5b15dae8107f37b",
            "0x0000000000000000000000000000000000000000000000000000000000000000"
          ],
          "data": "0x00000000000000000000000000000000000000000000000000000000006643b0fffffffffffffffffffffffffffffffffffffffffffffffffffffffffb7fe2980000000000000000000000000000000000000000000000000000000000000bb80000000000000000000000000000000000000000000000000000000000000bb8",
          "blockHash": "0xbff1205a0a7a4d1c61ed277cefe797262e7d1c2399f25461645c98904182b178",
          "blockNumber": "0x9d2df9",
          "blockTimestamp": "0x69989c10",
          "transactionHash": "0x064455f069224b3037669bba0b28db1a9e0c9f22caf089a6dd3f5bf15efb0eb4",
          "transactionIndex": "0x59",
          "logIndex": "0xdf",
          "removed": false
        }
      ],
      "logsBloom": "0x00000000000000000000000000000000000000000000000000000000000000000000000000000000000000000000000008000000000000000000000000000000000000000000000000000008000000000000000000000000000000000000000000000000020000000001000000000800000000000000000200000010000000000000000000000000000000000000000000000000000000000000000000000000000080000000000000000000000000000000000000000000000000000004000000000002000000000000000000000000000000000000000000000000000020000000000000000000000000220080000000000000000000000020000000000000",
      "type": "0x2",
      "transactionHash": "0x064455f069224b3037669bba0b28db1a9e0c9f22caf089a6dd3f5bf15efb0eb4",
      "transactionIndex": "0x59",
      "blockHash": "0xbff1205a0a7a4d1c61ed277cefe797262e7d1c2399f25461645c98904182b178",
      "blockNumber": "0x9d2df9",
      "gasUsed": "0x26207",
      "effectiveGasPrice": "0x1454027",
      "from": "0x42d0e25f42dd126d2c1ebc5592067303c4c0f7d3",
      "to": "0xe9f7b6e25143b0b044498c14f8db0118f727421b",
      "contractAddress": null
    },
    {
      "status": "0x1",
      "cumulativeGasUsed": "0xf0e32b",
      "logs": [
        {
          "address": "0xe9f7b6e25143b0b044498c14f8db0118f727421b",
          "topics": [
            "0xddf252ad1be2c89b69c2b068fc378daa952ba7f163c4a11628f55a4df523b3ef",
            "0x0000000000000000000000000000000000000000000000000000000000000000",
            "0x00000000000000000000000042d0e25f42dd126d2c1ebc5592067303c4c0f7d3",
            "0x0000000000000000000000000000000000000000000000000000000000000001"
          ],
          "data": "0x",
          "blockHash": "0xbff1205a0a7a4d1c61ed277cefe797262e7d1c2399f25461645c98904182b178",
          "blockNumber": "0x9d2df9",
          "blockTimestamp": "0x69989c10",
          "transactionHash": "0xc4e6233259bd64af624956dd7f9c0fc34f7a59146f15fd16ba6248da8a2cd58f",
          "transactionIndex": "0x5a",
          "logIndex": "0xe0",
          "removed": false
        },
        {
          "address": "0xe9f7b6e25143b0b044498c14f8db0118f727421b",
          "topics": [
            "0x7d5a649a0cee1e82345eaee0a79f44c313d7fff045298783e5b15dae8107f37b",
            "0x0000000000000000000000000000000000000000000000000000000000000001"
          ],
          "data": "0x00000000000000000000000000000000000000000000000000000000006643b0fffffffffffffffffffffffffffffffffffffffffffffffffffffffffb7fee500000000000000000000000000000000000000000000000000000000000000bb80000000000000000000000000000000000000000000000000000000000000bb8",
          "blockHash": "0xbff1205a0a7a4d1c61ed277cefe797262e7d1c2399f25461645c98904182b178",
          "blockNumber": "0x9d2df9",
          "blockTimestamp": "0x69989c10",
          "transactionHash": "0xc4e6233259bd64af624956dd7f9c0fc34f7a59146f15fd16ba6248da8a2cd58f",
          "transactionIndex": "0x5a",
          "logIndex": "0xe1",
          "removed": false
        }
      ],
      "logsBloom": "0x00000000000000000000000000000000000000000000000000000000000000000000000000000000000000000000000008000000000000000000000000040000000000000000000000000008000000000000000000040000000000000000000000000000020000000001000000000800000000000000000200000010000000000000000000000000000000000000000000000000000000000000000000000000000080000000000000000000000000000000000000000000000000000004000000000002000000000000000000000000000000000000000000000000000060000000000000000000000000220080000000000000000000000020000000000000",
      "type": "0x2",
      "transactionHash": "0xc4e6233259bd64af624956dd7f9c0fc34f7a59146f15fd16ba6248da8a2cd58f",
      "transactionIndex": "0x5a",
      "blockHash": "0xbff1205a0a7a4d1c61ed277cefe797262e7d1c2399f25461645c98904182b178",
      "blockNumber": "0x9d2df9",
      "gasUsed": "0x2d093",
      "effectiveGasPrice": "0x1454027",
      "from": "0x42d0e25f42dd126d2c1ebc5592067303c4c0f7d3",
      "to": "0xe9f7b6e25143b0b044498c14f8db0118f727421b",
      "contractAddress": null
    },
    {
      "status": "0x1",
      "cumulativeGasUsed": "0xf3b3be",
      "logs": [
        {
          "address": "0xe9f7b6e25143b0b044498c14f8db0118f727421b",
          "topics": [
            "0xddf252ad1be2c89b69c2b068fc378daa952ba7f163c4a11628f55a4df523b3ef",
            "0x0000000000000000000000000000000000000000000000000000000000000000",
            "0x00000000000000000000000042d0e25f42dd126d2c1ebc5592067303c4c0f7d3",
            "0x0000000000000000000000000000000000000000000000000000000000000002"
          ],
          "data": "0x",
          "blockHash": "0xbff1205a0a7a4d1c61ed277cefe797262e7d1c2399f25461645c98904182b178",
          "blockNumber": "0x9d2df9",
          "blockTimestamp": "0x69989c10",
          "transactionHash": "0x4640eb2f68ed999dbac093192f083ab690cae13b2d33fda7eca83078dede99f5",
          "transactionIndex": "0x5b",
          "logIndex": "0xe2",
          "removed": false
        },
        {
          "address": "0xe9f7b6e25143b0b044498c14f8db0118f727421b",
          "topics": [
            "0x7d5a649a0cee1e82345eaee0a79f44c313d7fff045298783e5b15dae8107f37b",
            "0x0000000000000000000000000000000000000000000000000000000000000002"
          ],
          "data": "0x00000000000000000000000000000000000000000000000000000000006643b0fffffffffffffffffffffffffffffffffffffffffffffffffffffffffb7ffa080000000000000000000000000000000000000000000000000000000000000bb80000000000000000000000000000000000000000000000000000000000000bb8",
          "blockHash": "0xbff1205a0a7a4d1c61ed277cefe797262e7d1c2399f25461645c98904182b178",
          "blockNumber": "0x9d2df9",
          "blockTimestamp": "0x69989c10",
          "transactionHash": "0x4640eb2f68ed999dbac093192f083ab690cae13b2d33fda7eca83078dede99f5",
          "transactionIndex": "0x5b",
          "logIndex": "0xe3",
          "removed": false
        }
      ],
      "logsBloom": "0x04000000000000000000000000000000000000000000000000000000000000000000000000000000000000000000000008000000000000000000000000000000000000000000000000000008000000000000000000000000000000000000000000000000020000000001000000000800000000000000000200000010000000000000000000000000000000000000000000000000000000000000000000000000000080000000000000000100000000000000000000000000000000000004000000000002000000000000000000000000000000000000000000000000000020000000000000000000000000220080000000000000008000000020000000000000",
      "type": "0x2",
      "transactionHash": "0x4640eb2f68ed999dbac093192f083ab690cae13b2d33fda7eca83078dede99f5",
      "transactionIndex": "0x5b",
      "blockHash": "0xbff1205a0a7a4d1c61ed277cefe797262e7d1c2399f25461645c98904182b178",
      "blockNumber": "0x9d2df9",
      "gasUsed": "0x2d093",
      "effectiveGasPrice": "0x1454027",
      "from": "0x42d0e25f42dd126d2c1ebc5592067303c4c0f7d3",
      "to": "0xe9f7b6e25143b0b044498c14f8db0118f727421b",
      "contractAddress": null
    },
    {
      "status": "0x1",
      "cumulativeGasUsed": "0xf68451",
      "logs": [
        {
          "address": "0xe9f7b6e25143b0b044498c14f8db0118f727421b",
          "topics": [
            "0xddf252ad1be2c89b69c2b068fc378daa952ba7f163c4a11628f55a4df523b3ef",
            "0x0000000000000000000000000000000000000000000000000000000000000000",
            "0x00000000000000000000000042d0e25f42dd126d2c1ebc5592067303c4c0f7d3",
            "0x0000000000000000000000000000000000000000000000000000000000000003"
          ],
          "data": "0x",
          "blockHash": "0xbff1205a0a7a4d1c61ed277cefe797262e7d1c2399f25461645c98904182b178",
          "blockNumber": "0x9d2df9",
          "blockTimestamp": "0x69989c10",
          "transactionHash": "0x2ab3378b830f6867661befeaabd5f89b5c875222bb4095dce2b191b97e2eea7d",
          "transactionIndex": "0x5c",
          "logIndex": "0xe4",
          "removed": false
        },
        {
          "address": "0xe9f7b6e25143b0b044498c14f8db0118f727421b",
          "topics": [
            "0x7d5a649a0cee1e82345eaee0a79f44c313d7fff045298783e5b15dae8107f37b",
            "0x0000000000000000000000000000000000000000000000000000000000000003"
          ],
          "data": "0x00000000000000000000000000000000000000000000000000000000006643b0fffffffffffffffffffffffffffffffffffffffffffffffffffffffffb8005c00000000000000000000000000000000000000000000000000000000000000bb80000000000000000000000000000000000000000000000000000000000000bb8",
          "blockHash": "0xbff1205a0a7a4d1c61ed277cefe797262e7d1c2399f25461645c98904182b178",
          "blockNumber": "0x9d2df9",
          "blockTimestamp": "0x69989c10",
          "transactionHash": "0x2ab3378b830f6867661befeaabd5f89b5c875222bb4095dce2b191b97e2eea7d",
          "transactionIndex": "0x5c",
          "logIndex": "0xe5",
          "removed": false
        }
      ],
      "logsBloom": "0x00000000000000000000000000000000000000000000000000000000000000000000000000000000000000000000000008000000020000000000000000000000000000000000000000000008000000000000000000000000000000000000000000000000020000000001000000000800000000000000000200000010000000000000000000000000000000000000000000000000000000000000000000000000000080000000000000000000000000000000000000800000000000000004400000000002000000000000000000000000000000000000000000000000000020000000000000000000000000220080000000000000000000000020000000000000",
      "type": "0x2",
      "transactionHash": "0x2ab3378b830f6867661befeaabd5f89b5c875222bb4095dce2b191b97e2eea7d",
      "transactionIndex": "0x5c",
      "blockHash": "0xbff1205a0a7a4d1c61ed277cefe797262e7d1c2399f25461645c98904182b178",
      "blockNumber": "0x9d2df9",
      "gasUsed": "0x2d093",
      "effectiveGasPrice": "0x1454027",
      "from": "0x42d0e25f42dd126d2c1ebc5592067303c4c0f7d3",
      "to": "0xe9f7b6e25143b0b044498c14f8db0118f727421b",
      "contractAddress": null
    },
    {
      "status": "0x1",
      "cumulativeGasUsed": "0xf954e4",
      "logs": [
        {
          "address": "0xe9f7b6e25143b0b044498c14f8db0118f727421b",
          "topics": [
            "0xddf252ad1be2c89b69c2b068fc378daa952ba7f163c4a11628f55a4df523b3ef",
            "0x0000000000000000000000000000000000000000000000000000000000000000",
            "0x00000000000000000000000042d0e25f42dd126d2c1ebc5592067303c4c0f7d3",
            "0x0000000000000000000000000000000000000000000000000000000000000004"
          ],
          "data": "0x",
          "blockHash": "0xbff1205a0a7a4d1c61ed277cefe797262e7d1c2399f25461645c98904182b178",
          "blockNumber": "0x9d2df9",
          "blockTimestamp": "0x69989c10",
          "transactionHash": "0xc752ec5e314635da074ca5ac726b11c568121c1863e37afe1c6baad6054d0122",
          "transactionIndex": "0x5d",
          "logIndex": "0xe6",
          "removed": false
        },
        {
          "address": "0xe9f7b6e25143b0b044498c14f8db0118f727421b",
          "topics": [
            "0x7d5a649a0cee1e82345eaee0a79f44c313d7fff045298783e5b15dae8107f37b",
            "0x0000000000000000000000000000000000000000000000000000000000000004"
          ],
          "data": "0x00000000000000000000000000000000000000000000000000000000006643b0fffffffffffffffffffffffffffffffffffffffffffffffffffffffffb8011780000000000000000000000000000000000000000000000000000000000000bb80000000000000000000000000000000000000000000000000000000000000bb8",
          "blockHash": "0xbff1205a0a7a4d1c61ed277cefe797262e7d1c2399f25461645c98904182b178",
          "blockNumber": "0x9d2df9",
          "blockTimestamp": "0x69989c10",
          "transactionHash": "0xc752ec5e314635da074ca5ac726b11c568121c1863e37afe1c6baad6054d0122",
          "transactionIndex": "0x5d",
          "logIndex": "0xe7",
          "removed": false
        }
      ],
      "logsBloom": "0x00000000000000000000000000000000000000000000000000000000000000000000000000000000000000000000000008000000000000000000000000000000000000000000000000000008000000000000000000000000000000000000000008000000020000000001000000000800000000000000000200000010000000000000000000000000000000000000000000000000000000000000000000000000000080000000000000000000000000000000000000000000002000000004000000000002000000000000000000000000000000008000000000000000000020000000000000000000000000220080000000000000000000000020000000000000",
      "type": "0x2",
      "transactionHash": "0xc752ec5e314635da074ca5ac726b11c568121c1863e37afe1c6baad6054d0122",
      "transactionIndex": "0x5d",
      "blockHash": "0xbff1205a0a7a4d1c61ed277cefe797262e7d1c2399f25461645c98904182b178",
      "blockNumber": "0x9d2df9",
      "gasUsed": "0x2d093",
      "effectiveGasPrice": "0x1454027",
      "from": "0x42d0e25f42dd126d2c1ebc5592067303c4c0f7d3",
      "to": "0xe9f7b6e25143b0b044498c14f8db0118f727421b",
      "contractAddress": null
    },
    {
      "status": "0x1",
      "cumulativeGasUsed": "0xfc2577",
      "logs": [
        {
          "address": "0xe9f7b6e25143b0b044498c14f8db0118f727421b",
          "topics": [
            "0xddf252ad1be2c89b69c2b068fc378daa952ba7f163c4a11628f55a4df523b3ef",
            "0x0000000000000000000000000000000000000000000000000000000000000000",
            "0x00000000000000000000000042d0e25f42dd126d2c1ebc5592067303c4c0f7d3",
            "0x0000000000000000000000000000000000000000000000000000000000000005"
          ],
          "data": "0x",
          "blockHash": "0xbff1205a0a7a4d1c61ed277cefe797262e7d1c2399f25461645c98904182b178",
          "blockNumber": "0x9d2df9",
          "blockTimestamp": "0x69989c10",
          "transactionHash": "0x009617b1dcad12d6028049ba89b68e5bb164e6c3eef34634545c3d4a014d8731",
          "transactionIndex": "0x5e",
          "logIndex": "0xe8",
          "removed": false
        },
        {
          "address": "0xe9f7b6e25143b0b044498c14f8db0118f727421b",
          "topics": [
            "0x7d5a649a0cee1e82345eaee0a79f44c313d7fff045298783e5b15dae8107f37b",
            "0x0000000000000000000000000000000000000000000000000000000000000005"
          ],
          "data": "0x00000000000000000000000000000000000000000000000000000000006643b0fffffffffffffffffffffffffffffffffffffffffffffffffffffffffb801d300000000000000000000000000000000000000000000000000000000000000bb80000000000000000000000000000000000000000000000000000000000000bb8",
          "blockHash": "0xbff1205a0a7a4d1c61ed277cefe797262e7d1c2399f25461645c98904182b178",
          "blockNumber": "0x9d2df9",
          "blockTimestamp": "0x69989c10",
          "transactionHash": "0x009617b1dcad12d6028049ba89b68e5bb164e6c3eef34634545c3d4a014d8731",
          "transactionIndex": "0x5e",
          "logIndex": "0xe9",
          "removed": false
        }
      ],
      "logsBloom": "0x00000000000000000000000000000000000000000000000000000000000000000000000000000000000000000000000008000000000000000000000000000000000010000000000000000008000000000000000000000000000000000000000000000000020000000001000000000800000000000000000200000010000000000000000000000000000000000000001000000800000000000000000000000000000080000000000000000000000000000000000000000000000000000004000000000002000000000000000000000000000000000000000000000000000020000000000000000000000000220080000000000000000000000020000000000000",
      "type": "0x2",
      "transactionHash": "0x009617b1dcad12d6028049ba89b68e5bb164e6c3eef34634545c3d4a014d8731",
      "transactionIndex": "0x5e",
      "blockHash": "0xbff1205a0a7a4d1c61ed277cefe797262e7d1c2399f25461645c98904182b178",
      "blockNumber": "0x9d2df9",
      "gasUsed": "0x2d093",
      "effectiveGasPrice": "0x1454027",
      "from": "0x42d0e25f42dd126d2c1ebc5592067303c4c0f7d3",
      "to": "0xe9f7b6e25143b0b044498c14f8db0118f727421b",
      "contractAddress": null
    },
    {
      "status": "0x1",
      "cumulativeGasUsed": "0xfef60a",
      "logs": [
        {
          "address": "0xe9f7b6e25143b0b044498c14f8db0118f727421b",
          "topics": [
            "0xddf252ad1be2c89b69c2b068fc378daa952ba7f163c4a11628f55a4df523b3ef",
            "0x0000000000000000000000000000000000000000000000000000000000000000",
            "0x00000000000000000000000042d0e25f42dd126d2c1ebc5592067303c4c0f7d3",
            "0x0000000000000000000000000000000000000000000000000000000000000006"
          ],
          "data": "0x",
          "blockHash": "0xbff1205a0a7a4d1c61ed277cefe797262e7d1c2399f25461645c98904182b178",
          "blockNumber": "0x9d2df9",
          "blockTimestamp": "0x69989c10",
          "transactionHash": "0x36abb6e91a1954efc3f22129f3c3cd28a6727254ce3bb7131fc34e8bcd76f0ac",
          "transactionIndex": "0x5f",
          "logIndex": "0xea",
          "removed": false
        },
        {
          "address": "0xe9f7b6e25143b0b044498c14f8db0118f727421b",
          "topics": [
            "0x7d5a649a0cee1e82345eaee0a79f44c313d7fff045298783e5b15dae8107f37b",
            "0x0000000000000000000000000000000000000000000000000000000000000006"
          ],
          "data": "0x0000000000000000000000000000000000000000000000000000000000664f68fffffffffffffffffffffffffffffffffffffffffffffffffffffffffb7fe2980000000000000000000000000000000000000000000000000000000000000bb80000000000000000000000000000000000000000000000000000000000000bb8",
          "blockHash": "0xbff1205a0a7a4d1c61ed277cefe797262e7d1c2399f25461645c98904182b178",
          "blockNumber": "0x9d2df9",
          "blockTimestamp": "0x69989c10",
          "transactionHash": "0x36abb6e91a1954efc3f22129f3c3cd28a6727254ce3bb7131fc34e8bcd76f0ac",
          "transactionIndex": "0x5f",
          "logIndex": "0xeb",
          "removed": false
        }
      ],
      "logsBloom": "0x00000000000000000000000000000000000000000000000000000000000000000000000000000000000000000000000008000000000400000000000000000000000000000000000000000008000000000000000000000000000000000000000000000000020000000001000000000800000000000000000200000010000000000000000400000000000000000000000000000000000000000000000000000000000080000000000000000000000000000000000000000000000000080004000000000002000000000000000000000000000000000000000000000000000020000000000000000000000000220080000000000000000000000020000000000000",
      "type": "0x2",
      "transactionHash": "0x36abb6e91a1954efc3f22129f3c3cd28a6727254ce3bb7131fc34e8bcd76f0ac",
      "transactionIndex": "0x5f",
      "blockHash": "0xbff1205a0a7a4d1c61ed277cefe797262e7d1c2399f25461645c98904182b178",
      "blockNumber": "0x9d2df9",
      "gasUsed": "0x2d093",
      "effectiveGasPrice": "0x1454027",
      "from": "0x42d0e25f42dd126d2c1ebc5592067303c4c0f7d3",
      "to": "0xe9f7b6e25143b0b044498c14f8db0118f727421b",
      "contractAddress": null
    },
    {
      "status": "0x1",
      "cumulativeGasUsed": "0x101c69d",
      "logs": [
        {
          "address": "0xe9f7b6e25143b0b044498c14f8db0118f727421b",
          "topics": [
            "0xddf252ad1be2c89b69c2b068fc378daa952ba7f163c4a11628f55a4df523b3ef",
            "0x0000000000000000000000000000000000000000000000000000000000000000",
            "0x00000000000000000000000042d0e25f42dd126d2c1ebc5592067303c4c0f7d3",
            "0x0000000000000000000000000000000000000000000000000000000000000007"
          ],
          "data": "0x",
          "blockHash": "0xbff1205a0a7a4d1c61ed277cefe797262e7d1c2399f25461645c98904182b178",
          "blockNumber": "0x9d2df9",
          "blockTimestamp": "0x69989c10",
          "transactionHash": "0xf22e0c6c5f3b071862c8051fb259240e3f6b2d24d229b7a7d62e3e1d9f08df4f",
          "transactionIndex": "0x60",
          "logIndex": "0xec",
          "removed": false
        },
        {
          "address": "0xe9f7b6e25143b0b044498c14f8db0118f727421b",
          "topics": [
            "0x7d5a649a0cee1e82345eaee0a79f44c313d7fff045298783e5b15dae8107f37b",
            "0x0000000000000000000000000000000000000000000000000000000000000007"
          ],
          "data": "0x0000000000000000000000000000000000000000000000000000000000664f68fffffffffffffffffffffffffffffffffffffffffffffffffffffffffb7fee500000000000000000000000000000000000000000000000000000000000000bb80000000000000000000000000000000000000000000000000000000000000bb8",
          "blockHash": "0xbff1205a0a7a4d1c61ed277cefe797262e7d1c2399f25461645c98904182b178",
          "blockNumber": "0x9d2df9",
          "blockTimestamp": "0x69989c10",
          "transactionHash": "0xf22e0c6c5f3b071862c8051fb259240e3f6b2d24d229b7a7d62e3e1d9f08df4f",
          "transactionIndex": "0x60",
          "logIndex": "0xed",
          "removed": false
        }
      ],
      "logsBloom": "0x00000000000000000000000000000000000000000000000000000000000000000000000000000000000000000000000008001000000000000000000000000000000020000000000000000008000000000000000000000000000000000000000000000000020000000001000000000800000000000000000200000010000000000000000000000000000000000000000000000000000000000000000000000000000080000000000000000000000000000000000000000000000000000004000000000002000000000000000000000000000000000000000000000100000020000000000000000000000000220080000000000000000000000020000000000000",
      "type": "0x2",
      "transactionHash": "0xf22e0c6c5f3b071862c8051fb259240e3f6b2d24d229b7a7d62e3e1d9f08df4f",
      "transactionIndex": "0x60",
      "blockHash": "0xbff1205a0a7a4d1c61ed277cefe797262e7d1c2399f25461645c98904182b178",
      "blockNumber": "0x9d2df9",
      "gasUsed": "0x2d093",
      "effectiveGasPrice": "0x1454027",
      "from": "0x42d0e25f42dd126d2c1ebc5592067303c4c0f7d3",
      "to": "0xe9f7b6e25143b0b044498c14f8db0118f727421b",
      "contractAddress": null
    },
    {
      "status": "0x1",
      "cumulativeGasUsed": "0x1049730",
      "logs": [
        {
          "address": "0xe9f7b6e25143b0b044498c14f8db0118f727421b",
          "topics": [
            "0xddf252ad1be2c89b69c2b068fc378daa952ba7f163c4a11628f55a4df523b3ef",
            "0x0000000000000000000000000000000000000000000000000000000000000000",
            "0x00000000000000000000000042d0e25f42dd126d2c1ebc5592067303c4c0f7d3",
            "0x0000000000000000000000000000000000000000000000000000000000000008"
          ],
          "data": "0x",
          "blockHash": "0xbff1205a0a7a4d1c61ed277cefe797262e7d1c2399f25461645c98904182b178",
          "blockNumber": "0x9d2df9",
          "blockTimestamp": "0x69989c10",
          "transactionHash": "0xfcc8f41aa419e2b85cbd596ce997131f5bc8d428e87c84ed3151cfbc4dd611ea",
          "transactionIndex": "0x61",
          "logIndex": "0xee",
          "removed": false
        },
        {
          "address": "0xe9f7b6e25143b0b044498c14f8db0118f727421b",
          "topics": [
            "0x7d5a649a0cee1e82345eaee0a79f44c313d7fff045298783e5b15dae8107f37b",
            "0x0000000000000000000000000000000000000000000000000000000000000008"
          ],
          "data": "0x0000000000000000000000000000000000000000000000000000000000664f68fffffffffffffffffffffffffffffffffffffffffffffffffffffffffb7ffa080000000000000000000000000000000000000000000000000000000000000bb80000000000000000000000000000000000000000000000000000000000000bb8",
          "blockHash": "0xbff1205a0a7a4d1c61ed277cefe797262e7d1c2399f25461645c98904182b178",
          "blockNumber": "0x9d2df9",
          "blockTimestamp": "0x69989c10",
          "transactionHash": "0xfcc8f41aa419e2b85cbd596ce997131f5bc8d428e87c84ed3151cfbc4dd611ea",
          "transactionIndex": "0x61",
          "logIndex": "0xef",
          "removed": false
        }
      ],
      "logsBloom": "0x00000000000000000000000000000000000000000000000000000000000000000000000000000000000000000000000008000000000080000000000000000000000000000000000000000008000000000000000000000000000000000000000000000000020000000001000000000800000000000000000200000010000000000080000000000000000000000000000000000000000000000000000000000000000080000000000000000000000000000000000000000000000000000004000040000002000000000000000000000000000000000000000000000000000020000000000000000000000000220080000000000000000000000020000000000000",
      "type": "0x2",
      "transactionHash": "0xfcc8f41aa419e2b85cbd596ce997131f5bc8d428e87c84ed3151cfbc4dd611ea",
      "transactionIndex": "0x61",
      "blockHash": "0xbff1205a0a7a4d1c61ed277cefe797262e7d1c2399f25461645c98904182b178",
      "blockNumber": "0x9d2df9",
      "gasUsed": "0x2d093",
      "effectiveGasPrice": "0x1454027",
      "from": "0x42d0e25f42dd126d2c1ebc5592067303c4c0f7d3",
      "to": "0xe9f7b6e25143b0b044498c14f8db0118f727421b",
      "contractAddress": null
    },
    {
      "status": "0x1",
      "cumulativeGasUsed": "0x10767c3",
      "logs": [
        {
          "address": "0xe9f7b6e25143b0b044498c14f8db0118f727421b",
          "topics": [
            "0xddf252ad1be2c89b69c2b068fc378daa952ba7f163c4a11628f55a4df523b3ef",
            "0x0000000000000000000000000000000000000000000000000000000000000000",
            "0x00000000000000000000000042d0e25f42dd126d2c1ebc5592067303c4c0f7d3",
            "0x0000000000000000000000000000000000000000000000000000000000000009"
          ],
          "data": "0x",
          "blockHash": "0xbff1205a0a7a4d1c61ed277cefe797262e7d1c2399f25461645c98904182b178",
          "blockNumber": "0x9d2df9",
          "blockTimestamp": "0x69989c10",
          "transactionHash": "0x2c9f2697b52c1664698ad2a82133890e3ec6f2d6fda90a88ec005f9d1dbf86e7",
          "transactionIndex": "0x62",
          "logIndex": "0xf0",
          "removed": false
        },
        {
          "address": "0xe9f7b6e25143b0b044498c14f8db0118f727421b",
          "topics": [
            "0x7d5a649a0cee1e82345eaee0a79f44c313d7fff045298783e5b15dae8107f37b",
            "0x0000000000000000000000000000000000000000000000000000000000000009"
          ],
          "data": "0x0000000000000000000000000000000000000000000000000000000000664f68fffffffffffffffffffffffffffffffffffffffffffffffffffffffffb8005c00000000000000000000000000000000000000000000000000000000000000bb80000000000000000000000000000000000000000000000000000000000000bb8",
          "blockHash": "0xbff1205a0a7a4d1c61ed277cefe797262e7d1c2399f25461645c98904182b178",
          "blockNumber": "0x9d2df9",
          "blockTimestamp": "0x69989c10",
          "transactionHash": "0x2c9f2697b52c1664698ad2a82133890e3ec6f2d6fda90a88ec005f9d1dbf86e7",
          "transactionIndex": "0x62",
          "logIndex": "0xf1",
          "removed": false
        }
      ],
      "logsBloom": "0x00000000000000000000000000000000000000000000000000000000000000000000000000000000000000000000000008000000000000000000000000200000000000000000000000000008000000000000000000000000000000000000000000000000020000000001000000000800000000000000000200000010000000000000000000000000000000000000000000001000000000000000000000000000000080000000000000000000000000000000000000000000000000000004000000000002000000000000000000000000000000000000000000000000000020000000000000000000000000220080000000000000000000000020000000800000",
      "type": "0x2",
      "transactionHash": "0x2c9f2697b52c1664698ad2a82133890e3ec6f2d6fda90a88ec005f9d1dbf86e7",
      "transactionIndex": "0x62",
      "blockHash": "0xbff1205a0a7a4d1c61ed277cefe797262e7d1c2399f25461645c98904182b178",
      "blockNumber": "0x9d2df9",
      "gasUsed": "0x2d093",
      "effectiveGasPrice": "0x1454027",
      "from": "0x42d0e25f42dd126d2c1ebc5592067303c4c0f7d3",
      "to": "0xe9f7b6e25143b0b044498c14f8db0118f727421b",
      "contractAddress": null
    },
    {
      "status": "0x1",
      "cumulativeGasUsed": "0x10a3856",
      "logs": [
        {
          "address": "0xe9f7b6e25143b0b044498c14f8db0118f727421b",
          "topics": [
            "0xddf252ad1be2c89b69c2b068fc378daa952ba7f163c4a11628f55a4df523b3ef",
            "0x0000000000000000000000000000000000000000000000000000000000000000",
            "0x00000000000000000000000042d0e25f42dd126d2c1ebc5592067303c4c0f7d3",
            "0x000000000000000000000000000000000000000000000000000000000000000a"
          ],
          "data": "0x",
          "blockHash": "0xbff1205a0a7a4d1c61ed277cefe797262e7d1c2399f25461645c98904182b178",
          "blockNumber": "0x9d2df9",
          "blockTimestamp": "0x69989c10",
          "transactionHash": "0x51d00b8bc016913abe995882c2a7e4de7b7fae193aea2aa64f0091bfc4a54eac",
          "transactionIndex": "0x63",
          "logIndex": "0xf2",
          "removed": false
        },
        {
          "address": "0xe9f7b6e25143b0b044498c14f8db0118f727421b",
          "topics": [
            "0x7d5a649a0cee1e82345eaee0a79f44c313d7fff045298783e5b15dae8107f37b",
            "0x000000000000000000000000000000000000000000000000000000000000000a"
          ],
          "data": "0x0000000000000000000000000000000000000000000000000000000000664f68fffffffffffffffffffffffffffffffffffffffffffffffffffffffffb8011780000000000000000000000000000000000000000000000000000000000000bb80000000000000000000000000000000000000000000000000000000000000bb8",
          "blockHash": "0xbff1205a0a7a4d1c61ed277cefe797262e7d1c2399f25461645c98904182b178",
          "blockNumber": "0x9d2df9",
          "blockTimestamp": "0x69989c10",
          "transactionHash": "0x51d00b8bc016913abe995882c2a7e4de7b7fae193aea2aa64f0091bfc4a54eac",
          "transactionIndex": "0x63",
          "logIndex": "0xf3",
          "removed": false
        }
      ],
      "logsBloom": "0x00000000000000000000000000000000000000000000000000000000000000000000000000000000000000000000000008000000040000000020000000000000000000000000000000000008000000000000000000000000000000000000000000000000020000000001000000000800000000000000000200000010000000000000000000000000010000000000000000000000000000000000000000000000000080000000000000000000000000000000000000000000000000000004000000000002000000000000000000000000000000000000000000000000000020000000000000000000000000220080000000000000000000000020000000000000",
      "type": "0x2",
      "transactionHash": "0x51d00b8bc016913abe995882c2a7e4de7b7fae193aea2aa64f0091bfc4a54eac",
      "transactionIndex": "0x63",
      "blockHash": "0xbff1205a0a7a4d1c61ed277cefe797262e7d1c2399f25461645c98904182b178",
      "blockNumber": "0x9d2df9",
      "gasUsed": "0x2d093",
      "effectiveGasPrice": "0x1454027",
      "from": "0x42d0e25f42dd126d2c1ebc5592067303c4c0f7d3",
      "to": "0xe9f7b6e25143b0b044498c14f8db0118f727421b",
      "contractAddress": null
    },
    {
      "status": "0x1",
      "cumulativeGasUsed": "0x10d08e9",
      "logs": [
        {
          "address": "0xe9f7b6e25143b0b044498c14f8db0118f727421b",
          "topics": [
            "0xddf252ad1be2c89b69c2b068fc378daa952ba7f163c4a11628f55a4df523b3ef",
            "0x0000000000000000000000000000000000000000000000000000000000000000",
            "0x00000000000000000000000042d0e25f42dd126d2c1ebc5592067303c4c0f7d3",
            "0x000000000000000000000000000000000000000000000000000000000000000b"
          ],
          "data": "0x",
          "blockHash": "0xbff1205a0a7a4d1c61ed277cefe797262e7d1c2399f25461645c98904182b178",
          "blockNumber": "0x9d2df9",
          "blockTimestamp": "0x69989c10",
          "transactionHash": "0x016d540832ae05455a400e059ae5909b0fee4d2f8e789aed4bbd05c1dd110344",
          "transactionIndex": "0x64",
          "logIndex": "0xf4",
          "removed": false
        },
        {
          "address": "0xe9f7b6e25143b0b044498c14f8db0118f727421b",
          "topics": [
            "0x7d5a649a0cee1e82345eaee0a79f44c313d7fff045298783e5b15dae8107f37b",
            "0x000000000000000000000000000000000000000000000000000000000000000b"
          ],
          "data": "0x0000000000000000000000000000000000000000000000000000000000664f68fffffffffffffffffffffffffffffffffffffffffffffffffffffffffb801d300000000000000000000000000000000000000000000000000000000000000bb80000000000000000000000000000000000000000000000000000000000000bb8",
          "blockHash": "0xbff1205a0a7a4d1c61ed277cefe797262e7d1c2399f25461645c98904182b178",
          "blockNumber": "0x9d2df9",
          "blockTimestamp": "0x69989c10",
          "transactionHash": "0x016d540832ae05455a400e059ae5909b0fee4d2f8e789aed4bbd05c1dd110344",
          "transactionIndex": "0x64",
          "logIndex": "0xf5",
          "removed": false
        }
      ],
      "logsBloom": "0x00000000000000000000004000000000000000000000000000000000000000000000000000000000000000000000000008000000000000000000000000000000000000000000000000000008000000000000000000000000000000000000000000000000020000000001000000000800000000000000000200000010000000000000000000000000000000000000000000000000000000000000000000000000000080000000000000000000000000000000000000000000000000000004000000000002000000000000000000000000002000000000000000000000000020000000000000000000000000220080000000000000000000040020000000000000",
      "type": "0x2",
      "transactionHash": "0x016d540832ae05455a400e059ae5909b0fee4d2f8e789aed4bbd05c1dd110344",
      "transactionIndex": "0x64",
      "blockHash": "0xbff1205a0a7a4d1c61ed277cefe797262e7d1c2399f25461645c98904182b178",
      "blockNumber": "0x9d2df9",
      "gasUsed": "0x2d093",
      "effectiveGasPrice": "0x1454027",
      "from": "0x42d0e25f42dd126d2c1ebc5592067303c4c0f7d3",
      "to": "0xe9f7b6e25143b0b044498c14f8db0118f727421b",
      "contractAddress": null
    },
    {
      "status": "0x1",
      "cumulativeGasUsed": "0x10fd97c",
      "logs": [
        {
          "address": "0xe9f7b6e25143b0b044498c14f8db0118f727421b",
          "topics": [
            "0xddf252ad1be2c89b69c2b068fc378daa952ba7f163c4a11628f55a4df523b3ef",
            "0x0000000000000000000000000000000000000000000000000000000000000000",
            "0x00000000000000000000000042d0e25f42dd126d2c1ebc5592067303c4c0f7d3",
            "0x000000000000000000000000000000000000000000000000000000000000000c"
          ],
          "data": "0x",
          "blockHash": "0xbff1205a0a7a4d1c61ed277cefe797262e7d1c2399f25461645c98904182b178",
          "blockNumber": "0x9d2df9",
          "blockTimestamp": "0x69989c10",
          "transactionHash": "0x23b02c85284b96a675328df718be6927b751dc3a0f1cd48e309e137f9f85a80a",
          "transactionIndex": "0x65",
          "logIndex": "0xf6",
          "removed": false
        },
        {
          "address": "0xe9f7b6e25143b0b044498c14f8db0118f727421b",
          "topics": [
            "0x7d5a649a0cee1e82345eaee0a79f44c313d7fff045298783e5b15dae8107f37b",
            "0x000000000000000000000000000000000000000000000000000000000000000c"
          ],
          "data": "0x0000000000000000000000000000000000000000000000000000000000665b20fffffffffffffffffffffffffffffffffffffffffffffffffffffffffb7fe2980000000000000000000000000000000000000000000000000000000000000bb80000000000000000000000000000000000000000000000000000000000000bb8",
          "blockHash": "0xbff1205a0a7a4d1c61ed277cefe797262e7d1c2399f25461645c98904182b178",
          "blockNumber": "0x9d2df9",
          "blockTimestamp": "0x69989c10",
          "transactionHash": "0x23b02c85284b96a675328df718be6927b751dc3a0f1cd48e309e137f9f85a80a",
          "transactionIndex": "0x65",
          "logIndex": "0xf7",
          "removed": false
        }
      ],
      "logsBloom": "0x00000000000000000000000000000000000002000000000000000000000000000000000000000200000000000000000008000000000000000000000000000000000000000000000000000008000000000000000000000000000000000000000000000000020000000001000000000800000000000000000200000010000000000000000000000000000000000000000000000000000000000000000000000000000080000000000000000000000000000000000000000000000000000004000000000002000000000000000000000000000000000000000000000000000020200000000000000000000000220080000000000000000000000020000000000000",
      "type": "0x2",
      "transactionHash": "0x23b02c85284b96a675328df718be6927b751dc3a0f1cd48e309e137f9f85a80a",
      "transactionIndex": "0x65",
      "blockHash": "0xbff1205a0a7a4d1c61ed277cefe797262e7d1c2399f25461645c98904182b178",
      "blockNumber": "0x9d2df9",
      "gasUsed": "0x2d093",
      "effectiveGasPrice": "0x1454027",
      "from": "0x42d0e25f42dd126d2c1ebc5592067303c4c0f7d3",
      "to": "0xe9f7b6e25143b0b044498c14f8db0118f727421b",
      "contractAddress": null
    },
    {
      "status": "0x1",
      "cumulativeGasUsed": "0x112aa0f",
      "logs": [
        {
          "address": "0xe9f7b6e25143b0b044498c14f8db0118f727421b",
          "topics": [
            "0xddf252ad1be2c89b69c2b068fc378daa952ba7f163c4a11628f55a4df523b3ef",
            "0x0000000000000000000000000000000000000000000000000000000000000000",
            "0x00000000000000000000000042d0e25f42dd126d2c1ebc5592067303c4c0f7d3",
            "0x000000000000000000000000000000000000000000000000000000000000000d"
          ],
          "data": "0x",
          "blockHash": "0xbff1205a0a7a4d1c61ed277cefe797262e7d1c2399f25461645c98904182b178",
          "blockNumber": "0x9d2df9",
          "blockTimestamp": "0x69989c10",
          "transactionHash": "0xf42711823afeb422514c83f6f4ccd19f3e8c5448205c54926f3ff6d47cca68b6",
          "transactionIndex": "0x66",
          "logIndex": "0xf8",
          "removed": false
        },
        {
          "address": "0xe9f7b6e25143b0b044498c14f8db0118f727421b",
          "topics": [
            "0x7d5a649a0cee1e82345eaee0a79f44c313d7fff045298783e5b15dae8107f37b",
            "0x000000000000000000000000000000000000000000000000000000000000000d"
          ],
          "data": "0x0000000000000000000000000000000000000000000000000000000000665b20fffffffffffffffffffffffffffffffffffffffffffffffffffffffffb7fee500000000000000000000000000000000000000000000000000000000000000bb80000000000000000000000000000000000000000000000000000000000000bb8",
          "blockHash": "0xbff1205a0a7a4d1c61ed277cefe797262e7d1c2399f25461645c98904182b178",
          "blockNumber": "0x9d2df9",
          "blockTimestamp": "0x69989c10",
          "transactionHash": "0xf42711823afeb422514c83f6f4ccd19f3e8c5448205c54926f3ff6d47cca68b6",
          "transactionIndex": "0x66",
          "logIndex": "0xf9",
          "removed": false
        }
      ],
      "logsBloom": "0x00000000000000000040000000000000000000000000000000000000000000000000000000000000000000000000000008000000000000000000000000000000000000000000000000000008000000000002000000000000000000000000000000000000020000000001000000000800000000000000000200000010000000000000000000000000000000000000000000000000000000000000000000000000000080000000000000000000000000000000000000000000000000000004000000000002000000000000000000000000000000000000000000000000000020020000000000000000000000220080000000000000000000000020000000000000",
      "type": "0x2",
      "transactionHash": "0xf42711823afeb422514c83f6f4ccd19f3e8c5448205c54926f3ff6d47cca68b6",
      "transactionIndex": "0x66",
      "blockHash": "0xbff1205a0a7a4d1c61ed277cefe797262e7d1c2399f25461645c98904182b178",
      "blockNumber": "0x9d2df9",
      "gasUsed": "0x2d093",
      "effectiveGasPrice": "0x1454027",
      "from": "0x42d0e25f42dd126d2c1ebc5592067303c4c0f7d3",
      "to": "0xe9f7b6e25143b0b044498c14f8db0118f727421b",
      "contractAddress": null
    },
    {
      "status": "0x1",
      "cumulativeGasUsed": "0x1157aa2",
      "logs": [
        {
          "address": "0xe9f7b6e25143b0b044498c14f8db0118f727421b",
          "topics": [
            "0xddf252ad1be2c89b69c2b068fc378daa952ba7f163c4a11628f55a4df523b3ef",
            "0x0000000000000000000000000000000000000000000000000000000000000000",
            "0x00000000000000000000000042d0e25f42dd126d2c1ebc5592067303c4c0f7d3",
            "0x000000000000000000000000000000000000000000000000000000000000000e"
          ],
          "data": "0x",
          "blockHash": "0xbff1205a0a7a4d1c61ed277cefe797262e7d1c2399f25461645c98904182b178",
          "blockNumber": "0x9d2df9",
          "blockTimestamp": "0x69989c10",
          "transactionHash": "0xc6aec730f5d0a302a41b158401923e7a7b777158ec48d101748265aaa018f11c",
          "transactionIndex": "0x67",
          "logIndex": "0xfa",
          "removed": false
        },
        {
          "address": "0xe9f7b6e25143b0b044498c14f8db0118f727421b",
          "topics": [
            "0x7d5a649a0cee1e82345eaee0a79f44c313d7fff045298783e5b15dae8107f37b",
            "0x000000000000000000000000000000000000000000000000000000000000000e"
          ],
          "data": "0x0000000000000000000000000000000000000000000000000000000000665b20fffffffffffffffffffffffffffffffffffffffffffffffffffffffffb7ffa080000000000000000000000000000000000000000000000000000000000000bb80000000000000000000000000000000000000000000000000000000000000bb8",
          "blockHash": "0xbff1205a0a7a4d1c61ed277cefe797262e7d1c2399f25461645c98904182b178",
          "blockNumber": "0x9d2df9",
          "blockTimestamp": "0x69989c10",
          "transactionHash": "0xc6aec730f5d0a302a41b158401923e7a7b777158ec48d101748265aaa018f11c",
          "transactionIndex": "0x67",
          "logIndex": "0xfb",
          "removed": false
        }
      ],
      "logsBloom": "0x00000000000000000000000000000000000000000000000000000000000000000000000000000000000000000000000008000000000000000000000000000000000000000000000800000008000000000000000000000000000000000000000000000000020000000001000000000800000000000000000200000010000000000000000000000000000000000000000008000000000000000000000000000000000080000000000000000000000000000000000000000020000000000004000000000002000000000000000000000000000000000000000000000000000020000000000000000000000000220080000000000000000000000020000000000000",
      "type": "0x2",
      "transactionHash": "0xc6aec730f5d0a302a41b158401923e7a7b777158ec48d101748265aaa018f11c",
      "transactionIndex": "0x67",
      "blockHash": "0xbff1205a0a7a4d1c61ed277cefe797262e7d1c2399f25461645c98904182b178",
      "blockNumber": "0x9d2df9",
      "gasUsed": "0x2d093",
      "effectiveGasPrice": "0x1454027",
      "from": "0x42d0e25f42dd126d2c1ebc5592067303c4c0f7d3",
      "to": "0xe9f7b6e25143b0b044498c14f8db0118f727421b",
      "contractAddress": null
    },
    {
      "status": "0x1",
      "cumulativeGasUsed": "0x1184b35",
      "logs": [
        {
          "address": "0xe9f7b6e25143b0b044498c14f8db0118f727421b",
          "topics": [
            "0xddf252ad1be2c89b69c2b068fc378daa952ba7f163c4a11628f55a4df523b3ef",
            "0x0000000000000000000000000000000000000000000000000000000000000000",
            "0x00000000000000000000000042d0e25f42dd126d2c1ebc5592067303c4c0f7d3",
            "0x000000000000000000000000000000000000000000000000000000000000000f"
          ],
          "data": "0x",
          "blockHash": "0xbff1205a0a7a4d1c61ed277cefe797262e7d1c2399f25461645c98904182b178",
          "blockNumber": "0x9d2df9",
          "blockTimestamp": "0x69989c10",
          "transactionHash": "0xad4869747ddd72432c3a27fadd0e231d7193d66fc2e766d56b2c91c6b4616848",
          "transactionIndex": "0x68",
          "logIndex": "0xfc",
          "removed": false
        },
        {
          "address": "0xe9f7b6e25143b0b044498c14f8db0118f727421b",
          "topics": [
            "0x7d5a649a0cee1e82345eaee0a79f44c313d7fff045298783e5b15dae8107f37b",
            "0x000000000000000000000000000000000000000000000000000000000000000f"
          ],
          "data": "0x0000000000000000000000000000000000000000000000000000000000665b20fffffffffffffffffffffffffffffffffffffffffffffffffffffffffb8005c00000000000000000000000000000000000000000000000000000000000000bb80000000000000000000000000000000000000000000000000000000000000bb8",
          "blockHash": "0xbff1205a0a7a4d1c61ed277cefe797262e7d1c2399f25461645c98904182b178",
          "blockNumber": "0x9d2df9",
          "blockTimestamp": "0x69989c10",
          "transactionHash": "0xad4869747ddd72432c3a27fadd0e231d7193d66fc2e766d56b2c91c6b4616848",
          "transactionIndex": "0x68",
          "logIndex": "0xfd",
          "removed": false
        }
      ],
      "logsBloom": "0x00000000000000000000000000000000000000000000000000000000000000000000000000000000000000000000000008000000000000000000000000000000000000000000000000000008000000000000000000000000000000000002000000000000020000000001000000000800000000000000000200000010000000000000000000000800000000000000000000000000000000000000000000000000000080000000000000000000000000000000000000000000000000000004000000000002000000000000000000000000000000000000000000000000000020000000000200000000000000220080000000000000000000000020000000000000",
      "type": "0x2",
      "transactionHash": "0xad4869747ddd72432c3a27fadd0e231d7193d66fc2e766d56b2c91c6b4616848",
      "transactionIndex": "0x68",
      "blockHash": "0xbff1205a0a7a4d1c61ed277cefe797262e7d1c2399f25461645c98904182b178",
      "blockNumber": "0x9d2df9",
      "gasUsed": "0x2d093",
      "effectiveGasPrice": "0x1454027",
      "from": "0x42d0e25f42dd126d2c1ebc5592067303c4c0f7d3",
      "to": "0xe9f7b6e25143b0b044498c14f8db0118f727421b",
      "contractAddress": null
    },
    {
      "status": "0x1",
      "cumulativeGasUsed": "0x11b1bc8",
      "logs": [
        {
          "address": "0xe9f7b6e25143b0b044498c14f8db0118f727421b",
          "topics": [
            "0xddf252ad1be2c89b69c2b068fc378daa952ba7f163c4a11628f55a4df523b3ef",
            "0x0000000000000000000000000000000000000000000000000000000000000000",
            "0x00000000000000000000000042d0e25f42dd126d2c1ebc5592067303c4c0f7d3",
            "0x0000000000000000000000000000000000000000000000000000000000000010"
          ],
          "data": "0x",
          "blockHash": "0xbff1205a0a7a4d1c61ed277cefe797262e7d1c2399f25461645c98904182b178",
          "blockNumber": "0x9d2df9",
          "blockTimestamp": "0x69989c10",
          "transactionHash": "0x98a656b3ac4623334444ed02012a253e4f6f2f277e5aedd58e7fc9615635c64f",
          "transactionIndex": "0x69",
          "logIndex": "0xfe",
          "removed": false
        },
        {
          "address": "0xe9f7b6e25143b0b044498c14f8db0118f727421b",
          "topics": [
            "0x7d5a649a0cee1e82345eaee0a79f44c313d7fff045298783e5b15dae8107f37b",
            "0x0000000000000000000000000000000000000000000000000000000000000010"
          ],
          "data": "0x0000000000000000000000000000000000000000000000000000000000665b20fffffffffffffffffffffffffffffffffffffffffffffffffffffffffb8011780000000000000000000000000000000000000000000000000000000000000bb80000000000000000000000000000000000000000000000000000000000000bb8",
          "blockHash": "0xbff1205a0a7a4d1c61ed277cefe797262e7d1c2399f25461645c98904182b178",
          "blockNumber": "0x9d2df9",
          "blockTimestamp": "0x69989c10",
          "transactionHash": "0x98a656b3ac4623334444ed02012a253e4f6f2f277e5aedd58e7fc9615635c64f",
          "transactionIndex": "0x69",
          "logIndex": "0xff",
          "removed": false
        }
      ],
      "logsBloom": "0x00000000100000000000000000000000000000000000000000000000000000000000000000000000000000000000000008000000000000000000000000000000000000000000000000000008000000000000000000000000000000000000000000000000020000000001000000000800000000000000000200000010040000000000000000000000000000000000000000000100000000000000000000000000000080000000000000000000000000000000000000000000000000000004000000000002000000000000000000000000000000000000000000000000000020000000000000000000000000220080000000000000000000000020000000000000",
      "type": "0x2",
      "transactionHash": "0x98a656b3ac4623334444ed02012a253e4f6f2f277e5aedd58e7fc9615635c64f",
      "transactionIndex": "0x69",
      "blockHash": "0xbff1205a0a7a4d1c61ed277cefe797262e7d1c2399f25461645c98904182b178",
      "blockNumber": "0x9d2df9",
      "gasUsed": "0x2d093",
      "effectiveGasPrice": "0x1454027",
      "from": "0x42d0e25f42dd126d2c1ebc5592067303c4c0f7d3",
      "to": "0xe9f7b6e25143b0b044498c14f8db0118f727421b",
      "contractAddress": null
    },
    {
      "status": "0x1",
      "cumulativeGasUsed": "0x11dec5b",
      "logs": [
        {
          "address": "0xe9f7b6e25143b0b044498c14f8db0118f727421b",
          "topics": [
            "0xddf252ad1be2c89b69c2b068fc378daa952ba7f163c4a11628f55a4df523b3ef",
            "0x0000000000000000000000000000000000000000000000000000000000000000",
            "0x00000000000000000000000042d0e25f42dd126d2c1ebc5592067303c4c0f7d3",
            "0x0000000000000000000000000000000000000000000000000000000000000011"
          ],
          "data": "0x",
          "blockHash": "0xbff1205a0a7a4d1c61ed277cefe797262e7d1c2399f25461645c98904182b178",
          "blockNumber": "0x9d2df9",
          "blockTimestamp": "0x69989c10",
          "transactionHash": "0x3457d481a46a6546ad445d87bdd1664ed0d01087c9a6f93b7776092a96f97053",
          "transactionIndex": "0x6a",
          "logIndex": "0x100",
          "removed": false
        },
        {
          "address": "0xe9f7b6e25143b0b044498c14f8db0118f727421b",
          "topics": [
            "0x7d5a649a0cee1e82345eaee0a79f44c313d7fff045298783e5b15dae8107f37b",
            "0x0000000000000000000000000000000000000000000000000000000000000011"
          ],
          "data": "0x0000000000000000000000000000000000000000000000000000000000665b20fffffffffffffffffffffffffffffffffffffffffffffffffffffffffb801d300000000000000000000000000000000000000000000000000000000000000bb80000000000000000000000000000000000000000000000000000000000000bb8",
          "blockHash": "0xbff1205a0a7a4d1c61ed277cefe797262e7d1c2399f25461645c98904182b178",
          "blockNumber": "0x9d2df9",
          "blockTimestamp": "0x69989c10",
          "transactionHash": "0x3457d481a46a6546ad445d87bdd1664ed0d01087c9a6f93b7776092a96f97053",
          "transactionIndex": "0x6a",
          "logIndex": "0x101",
          "removed": false
        }
      ],
      "logsBloom": "0x00000000000000000000000000000000000000000000000000000000000000000000000000000000000000000000000008000000000000000000000000000000000000000000000000000008000000000000000000000000000000000000000000000000020000000001000000000800000000004000000200000010000000000000000000000000000000000000000000000000000000000000000000000000000080000000000000000000000000000000000000000000000000000404000000001002000000000000000000000000000000000000000000000000000020000000000000000000000000220080000000000000000000000020000000000000",
      "type": "0x2",
      "transactionHash": "0x3457d481a46a6546ad445d87bdd1664ed0d01087c9a6f93b7776092a96f97053",
      "transactionIndex": "0x6a",
      "blockHash": "0xbff1205a0a7a4d1c61ed277cefe797262e7d1c2399f25461645c98904182b178",
      "blockNumber": "0x9d2df9",
      "gasUsed": "0x2d093",
      "effectiveGasPrice": "0x1454027",
      "from": "0x42d0e25f42dd126d2c1ebc5592067303c4c0f7d3",
      "to": "0xe9f7b6e25143b0b044498c14f8db0118f727421b",
      "contractAddress": null
    },
    {
      "status": "0x1",
      "cumulativeGasUsed": "0x120bcee",
      "logs": [
        {
          "address": "0xe9f7b6e25143b0b044498c14f8db0118f727421b",
          "topics": [
            "0xddf252ad1be2c89b69c2b068fc378daa952ba7f163c4a11628f55a4df523b3ef",
            "0x0000000000000000000000000000000000000000000000000000000000000000",
            "0x00000000000000000000000042d0e25f42dd126d2c1ebc5592067303c4c0f7d3",
            "0x0000000000000000000000000000000000000000000000000000000000000012"
          ],
          "data": "0x",
          "blockHash": "0xbff1205a0a7a4d1c61ed277cefe797262e7d1c2399f25461645c98904182b178",
          "blockNumber": "0x9d2df9",
          "blockTimestamp": "0x69989c10",
          "transactionHash": "0x0585ccfeebe9ec1f86a4cbedd70080cc45924ccb8a0e4259863fc07b03be1879",
          "transactionIndex": "0x6b",
          "logIndex": "0x102",
          "removed": false
        },
        {
          "address": "0xe9f7b6e25143b0b044498c14f8db0118f727421b",
          "topics": [
            "0x7d5a649a0cee1e82345eaee0a79f44c313d7fff045298783e5b15dae8107f37b",
            "0x0000000000000000000000000000000000000000000000000000000000000012"
          ],
          "data": "0x00000000000000000000000000000000000000000000000000000000006666d8fffffffffffffffffffffffffffffffffffffffffffffffffffffffffb7fe2980000000000000000000000000000000000000000000000000000000000000bb80000000000000000000000000000000000000000000000000000000000000bb8",
          "blockHash": "0xbff1205a0a7a4d1c61ed277cefe797262e7d1c2399f25461645c98904182b178",
          "blockNumber": "0x9d2df9",
          "blockTimestamp": "0x69989c10",
          "transactionHash": "0x0585ccfeebe9ec1f86a4cbedd70080cc45924ccb8a0e4259863fc07b03be1879",
          "transactionIndex": "0x6b",
          "logIndex": "0x103",
          "removed": false
        }
      ],
      "logsBloom": "0x00000000000000000000000000000000000000000000000000000000000000000000000000000000000000000000000008000000000000000000000000000000000000000000000000000008000000000000000000000000000000000000000000000000020000000001000000000800000000000000000200000010000000000000000000000000000000000000040000000000000000000000000000000000000080000000000000000000000000000000000000000040000000000004000000000002000000000400000000000000000000000000000000000000000020000000000000000000000000220080000000000000000000000020000000000000",
      "type": "0x2",
      "transactionHash": "0x0585ccfeebe9ec1f86a4cbedd70080cc45924ccb8a0e4259863fc07b03be1879",
      "transactionIndex": "0x6b",
      "blockHash": "0xbff1205a0a7a4d1c61ed277cefe797262e7d1c2399f25461645c98904182b178",
      "blockNumber": "0x9d2df9",
      "gasUsed": "0x2d093",
      "effectiveGasPrice": "0x1454027",
      "from": "0x42d0e25f42dd126d2c1ebc5592067303c4c0f7d3",
      "to": "0xe9f7b6e25143b0b044498c14f8db0118f727421b",
      "contractAddress": null
    },
    {
      "status": "0x1",
      "cumulativeGasUsed": "0x1238d81",
      "logs": [
        {
          "address": "0xe9f7b6e25143b0b044498c14f8db0118f727421b",
          "topics": [
            "0xddf252ad1be2c89b69c2b068fc378daa952ba7f163c4a11628f55a4df523b3ef",
            "0x0000000000000000000000000000000000000000000000000000000000000000",
            "0x00000000000000000000000042d0e25f42dd126d2c1ebc5592067303c4c0f7d3",
            "0x0000000000000000000000000000000000000000000000000000000000000013"
          ],
          "data": "0x",
          "blockHash": "0xbff1205a0a7a4d1c61ed277cefe797262e7d1c2399f25461645c98904182b178",
          "blockNumber": "0x9d2df9",
          "blockTimestamp": "0x69989c10",
          "transactionHash": "0xf72e1654dd248ef9fe68cbe186d369d5cf024acf112000d5dfe399e6ea0217d6",
          "transactionIndex": "0x6c",
          "logIndex": "0x104",
          "removed": false
        },
        {
          "address": "0xe9f7b6e25143b0b044498c14f8db0118f727421b",
          "topics": [
            "0x7d5a649a0cee1e82345eaee0a79f44c313d7fff045298783e5b15dae8107f37b",
            "0x0000000000000000000000000000000000000000000000000000000000000013"
          ],
          "data": "0x00000000000000000000000000000000000000000000000000000000006666d8fffffffffffffffffffffffffffffffffffffffffffffffffffffffffb7fee500000000000000000000000000000000000000000000000000000000000000bb80000000000000000000000000000000000000000000000000000000000000bb8",
          "blockHash": "0xbff1205a0a7a4d1c61ed277cefe797262e7d1c2399f25461645c98904182b178",
          "blockNumber": "0x9d2df9",
          "blockTimestamp": "0x69989c10",
          "transactionHash": "0xf72e1654dd248ef9fe68cbe186d369d5cf024acf112000d5dfe399e6ea0217d6",
          "transactionIndex": "0x6c",
          "logIndex": "0x105",
          "removed": false
        }
      ],
      "logsBloom": "0x20000000000000000000000000800000000000000000000000000000000000000000000040000000000000000000000008000000000000000000000000000000000000000000000000000008000000000000000000000000000000000000000000000000020000000001000000000800000000000000000200000010000000000000000000000000000000000000000000000000000000000000000000000000000080000000000000000000000000000000000000000000000000000004000000000002000000000000000000000000000000000000000000000000000020000000000000000000000000220080000000000000000000000020000000000000",
      "type": "0x2",
      "transactionHash": "0xf72e1654dd248ef9fe68cbe186d369d5cf024acf112000d5dfe399e6ea0217d6",
      "transactionIndex": "0x6c",
      "blockHash": "0xbff1205a0a7a4d1c61ed277cefe797262e7d1c2399f25461645c98904182b178",
      "blockNumber": "0x9d2df9",
      "gasUsed": "0x2d093",
      "effectiveGasPrice": "0x1454027",
      "from": "0x42d0e25f42dd126d2c1ebc5592067303c4c0f7d3",
      "to": "0xe9f7b6e25143b0b044498c14f8db0118f727421b",
      "contractAddress": null
    },
    {
      "status": "0x1",
      "cumulativeGasUsed": "0x1265e14",
      "logs": [
        {
          "address": "0xe9f7b6e25143b0b044498c14f8db0118f727421b",
          "topics": [
            "0xddf252ad1be2c89b69c2b068fc378daa952ba7f163c4a11628f55a4df523b3ef",
            "0x0000000000000000000000000000000000000000000000000000000000000000",
            "0x00000000000000000000000042d0e25f42dd126d2c1ebc5592067303c4c0f7d3",
            "0x0000000000000000000000000000000000000000000000000000000000000014"
          ],
          "data": "0x",
          "blockHash": "0xbff1205a0a7a4d1c61ed277cefe797262e7d1c2399f25461645c98904182b178",
          "blockNumber": "0x9d2df9",
          "blockTimestamp": "0x69989c10",
          "transactionHash": "0x076e53f393475fde4c99deb57dee1a639d8fc9e05e0a74026ac3186e51753546",
          "transactionIndex": "0x6d",
          "logIndex": "0x106",
          "removed": false
        },
        {
          "address": "0xe9f7b6e25143b0b044498c14f8db0118f727421b",
          "topics": [
            "0x7d5a649a0cee1e82345eaee0a79f44c313d7fff045298783e5b15dae8107f37b",
            "0x0000000000000000000000000000000000000000000000000000000000000014"
          ],
          "data": "0x00000000000000000000000000000000000000000000000000000000006666d8fffffffffffffffffffffffffffffffffffffffffffffffffffffffffb7ffa080000000000000000000000000000000000000000000000000000000000000bb80000000000000000000000000000000000000000000000000000000000000bb8",
          "blockHash": "0xbff1205a0a7a4d1c61ed277cefe797262e7d1c2399f25461645c98904182b178",
          "blockNumber": "0x9d2df9",
          "blockTimestamp": "0x69989c10",
          "transactionHash": "0x076e53f393475fde4c99deb57dee1a639d8fc9e05e0a74026ac3186e51753546",
          "transactionIndex": "0x6d",
          "logIndex": "0x107",
          "removed": false
        }
      ],
      "logsBloom": "0x00000000000000000000000000000000000000000000000000000000000000000000000000000000000000000000000008002000000000000000000000000000000000000000000000000008000000000000000000000000000000000000000000000000020000000001000000000800000000000000000200000010000000000000000000000000000000000000000000000000000400000000000000000000000080000000000020000000000000000000000000000000000000000004000000000002000000000000000000000000000000000000000000000000000020000000000000000000000000220080000000000000000000000020000000000000",
      "type": "0x2",
      "transactionHash": "0x076e53f393475fde4c99deb57dee1a639d8fc9e05e0a74026ac3186e51753546",
      "transactionIndex": "0x6d",
      "blockHash": "0xbff1205a0a7a4d1c61ed277cefe797262e7d1c2399f25461645c98904182b178",
      "blockNumber": "0x9d2df9",
      "gasUsed": "0x2d093",
      "effectiveGasPrice": "0x1454027",
      "from": "0x42d0e25f42dd126d2c1ebc5592067303c4c0f7d3",
      "to": "0xe9f7b6e25143b0b044498c14f8db0118f727421b",
      "contractAddress": null
    },
    {
      "status": "0x1",
      "cumulativeGasUsed": "0x1292ea7",
      "logs": [
        {
          "address": "0xe9f7b6e25143b0b044498c14f8db0118f727421b",
          "topics": [
            "0xddf252ad1be2c89b69c2b068fc378daa952ba7f163c4a11628f55a4df523b3ef",
            "0x0000000000000000000000000000000000000000000000000000000000000000",
            "0x00000000000000000000000042d0e25f42dd126d2c1ebc5592067303c4c0f7d3",
            "0x0000000000000000000000000000000000000000000000000000000000000015"
          ],
          "data": "0x",
          "blockHash": "0xbff1205a0a7a4d1c61ed277cefe797262e7d1c2399f25461645c98904182b178",
          "blockNumber": "0x9d2df9",
          "blockTimestamp": "0x69989c10",
          "transactionHash": "0x8090013a581a0f42e6c7b5638c6c89164fbdd78c173f514a405cc38d46aeb3ba",
          "transactionIndex": "0x6e",
          "logIndex": "0x108",
          "removed": false
        },
        {
          "address": "0xe9f7b6e25143b0b044498c14f8db0118f727421b",
          "topics": [
            "0x7d5a649a0cee1e82345eaee0a79f44c313d7fff045298783e5b15dae8107f37b",
            "0x0000000000000000000000000000000000000000000000000000000000000015"
          ],
          "data": "0x00000000000000000000000000000000000000000000000000000000006666d8fffffffffffffffffffffffffffffffffffffffffffffffffffffffffb8005c00000000000000000000000000000000000000000000000000000000000000bb80000000000000000000000000000000000000000000000000000000000000bb8",
          "blockHash": "0xbff1205a0a7a4d1c61ed277cefe797262e7d1c2399f25461645c98904182b178",
          "blockNumber": "0x9d2df9",
          "blockTimestamp": "0x69989c10",
          "transactionHash": "0x8090013a581a0f42e6c7b5638c6c89164fbdd78c173f514a405cc38d46aeb3ba",
          "transactionIndex": "0x6e",
          "logIndex": "0x109",
          "removed": false
        }
      ],
      "logsBloom": "0x00000000000000000000000000000000000000000000000000000000000000000000000000000000000000000000000008000000000000000000000000000000001000000000000000000008000000000000000000000000000000000000000000000000020000000001000000000800000000000000000200000010000000000000000000000000000000000000000000000000000000000000000000000000000080000000000000000000010000000000000000000000000000000004000000000002000000000000000000000000000000000000000000000000000020002000000000000000000000220080000000000000000000000020000000000000",
      "type": "0x2",
      "transactionHash": "0x8090013a581a0f42e6c7b5638c6c89164fbdd78c173f514a405cc38d46aeb3ba",
      "transactionIndex": "0x6e",
      "blockHash": "0xbff1205a0a7a4d1c61ed277cefe797262e7d1c2399f25461645c98904182b178",
      "blockNumber": "0x9d2df9",
      "gasUsed": "0x2d093",
      "effectiveGasPrice": "0x1454027",
      "from": "0x42d0e25f42dd126d2c1ebc5592067303c4c0f7d3",
      "to": "0xe9f7b6e25143b0b044498c14f8db0118f727421b",
      "contractAddress": null
    },
    {
      "status": "0x1",
      "cumulativeGasUsed": "0x12bff3a",
      "logs": [
        {
          "address": "0xe9f7b6e25143b0b044498c14f8db0118f727421b",
          "topics": [
            "0xddf252ad1be2c89b69c2b068fc378daa952ba7f163c4a11628f55a4df523b3ef",
            "0x0000000000000000000000000000000000000000000000000000000000000000",
            "0x00000000000000000000000042d0e25f42dd126d2c1ebc5592067303c4c0f7d3",
            "0x0000000000000000000000000000000000000000000000000000000000000016"
          ],
          "data": "0x",
          "blockHash": "0xbff1205a0a7a4d1c61ed277cefe797262e7d1c2399f25461645c98904182b178",
          "blockNumber": "0x9d2df9",
          "blockTimestamp": "0x69989c10",
          "transactionHash": "0xc8c1c205de79c2015a0e54fe481a7dea95960504b2c2be2644ce81b8d699a307",
          "transactionIndex": "0x6f",
          "logIndex": "0x10a",
          "removed": false
        },
        {
          "address": "0xe9f7b6e25143b0b044498c14f8db0118f727421b",
          "topics": [
            "0x7d5a649a0cee1e82345eaee0a79f44c313d7fff045298783e5b15dae8107f37b",
            "0x0000000000000000000000000000000000000000000000000000000000000016"
          ],
          "data": "0x00000000000000000000000000000000000000000000000000000000006666d8fffffffffffffffffffffffffffffffffffffffffffffffffffffffffb8011780000000000000000000000000000000000000000000000000000000000000bb80000000000000000000000000000000000000000000000000000000000000bb8",
          "blockHash": "0xbff1205a0a7a4d1c61ed277cefe797262e7d1c2399f25461645c98904182b178",
          "blockNumber": "0x9d2df9",
          "blockTimestamp": "0x69989c10",
          "transactionHash": "0xc8c1c205de79c2015a0e54fe481a7dea95960504b2c2be2644ce81b8d699a307",
          "transactionIndex": "0x6f",
          "logIndex": "0x10b",
          "removed": false
        }
      ],
      "logsBloom": "0x00000000000000000000000000000000000000000000000000000000000000000000000000000000000000000000000008000000000000000000000000000000000000000000000800000008000000000000000000000000000000000000000000000000020000000001000000000800200000000000000200000010000000000000000000000000000000000000000000000000000000000000000000000000000080000000000000000000000000000000000000000000000000000004000000000002000000000000000000000000000000000000000000000000000020000000000000000000000000220080000000000000000000000028000000000000",
      "type": "0x2",
      "transactionHash": "0xc8c1c205de79c2015a0e54fe481a7dea95960504b2c2be2644ce81b8d699a307",
      "transactionIndex": "0x6f",
      "blockHash": "0xbff1205a0a7a4d1c61ed277cefe797262e7d1c2399f25461645c98904182b178",
      "blockNumber": "0x9d2df9",
      "gasUsed": "0x2d093",
      "effectiveGasPrice": "0x1454027",
      "from": "0x42d0e25f42dd126d2c1ebc5592067303c4c0f7d3",
      "to": "0xe9f7b6e25143b0b044498c14f8db0118f727421b",
      "contractAddress": null
    },
    {
      "status": "0x1",
      "cumulativeGasUsed": "0x12ecfcd",
      "logs": [
        {
          "address": "0xe9f7b6e25143b0b044498c14f8db0118f727421b",
          "topics": [
            "0xddf252ad1be2c89b69c2b068fc378daa952ba7f163c4a11628f55a4df523b3ef",
            "0x0000000000000000000000000000000000000000000000000000000000000000",
            "0x00000000000000000000000042d0e25f42dd126d2c1ebc5592067303c4c0f7d3",
            "0x0000000000000000000000000000000000000000000000000000000000000017"
          ],
          "data": "0x",
          "blockHash": "0xbff1205a0a7a4d1c61ed277cefe797262e7d1c2399f25461645c98904182b178",
          "blockNumber": "0x9d2df9",
          "blockTimestamp": "0x69989c10",
          "transactionHash": "0x9613b3a16fa01a902536246be36c3a685547bcdd7ba895924b263239b398b664",
          "transactionIndex": "0x70",
          "logIndex": "0x10c",
          "removed": false
        },
        {
          "address": "0xe9f7b6e25143b0b044498c14f8db0118f727421b",
          "topics": [
            "0x7d5a649a0cee1e82345eaee0a79f44c313d7fff045298783e5b15dae8107f37b",
            "0x0000000000000000000000000000000000000000000000000000000000000017"
          ],
          "data": "0x00000000000000000000000000000000000000000000000000000000006666d8fffffffffffffffffffffffffffffffffffffffffffffffffffffffffb801d300000000000000000000000000000000000000000000000000000000000000bb80000000000000000000000000000000000000000000000000000000000000bb8",
          "blockHash": "0xbff1205a0a7a4d1c61ed277cefe797262e7d1c2399f25461645c98904182b178",
          "blockNumber": "0x9d2df9",
          "blockTimestamp": "0x69989c10",
          "transactionHash": "0x9613b3a16fa01a902536246be36c3a685547bcdd7ba895924b263239b398b664",
          "transactionIndex": "0x70",
          "logIndex": "0x10d",
          "removed": false
        }
      ],
      "logsBloom": "0x00000000000000000000000000000000000000000000000000000000000000000000000000000000000000000000000008001000000000000000001000000000000000000000000000000008000000000000000000000000000000000000000000000000020000000001000000000800000000000000000200000010000000000000000000000000000000000000000000000000000000000000000000000000000080000000000000000000000000000000000000000000000000000004000000000002000000000000000000000000000000000000000000000000000020000000000000000000000000220080000000000000000000000020000000080000",
      "type": "0x2",
      "transactionHash": "0x9613b3a16fa01a902536246be36c3a685547bcdd7ba895924b263239b398b664",
      "transactionIndex": "0x70",
      "blockHash": "0xbff1205a0a7a4d1c61ed277cefe797262e7d1c2399f25461645c98904182b178",
      "blockNumber": "0x9d2df9",
      "gasUsed": "0x2d093",
      "effectiveGasPrice": "0x1454027",
      "from": "0x42d0e25f42dd126d2c1ebc5592067303c4c0f7d3",
      "to": "0xe9f7b6e25143b0b044498c14f8db0118f727421b",
      "contractAddress": null
    },
    {
      "status": "0x1",
      "cumulativeGasUsed": "0x12fa0b4",
      "logs": [
        {
          "address": "0xe9f7b6e25143b0b044498c14f8db0118f727421b",
          "topics": [
            "0x1ea45e30b31292f9d7c5d37d275b2feca555f13f47dce0fdea2f47e8852ecd78",
            "0x0000000000000000000000000000000000000000000000000000000000000000"
          ],
          "data": "0x000000000000000000000000000000000000000000000000002386f26fc10000",
          "blockHash": "0xbff1205a0a7a4d1c61ed277cefe797262e7d1c2399f25461645c98904182b178",
          "blockNumber": "0x9d2df9",
          "blockTimestamp": "0x69989c10",
          "transactionHash": "0x5d1137d566ffedf9f375733eb584e24b2b7b4bae12d761a8388ac37bf532c9b6",
          "transactionIndex": "0x71",
          "logIndex": "0x10e",
          "removed": false
        }
      ],
      "logsBloom": "0x00000000000000000000000000000000000000000000000000000000000000000000000000000000000000000000000000000000000000000000000000000000000000000000000000000000000000000000000000000000001000000000000000000000020000000000000000000800000000000000000200000000000000000000000000000000000000000000000000000000000000000000000000000000000080000000000000000000000000000000000000000000000000000000000000000000000000000000000000000000000000000000001000000000000020000000000000000000000000020000000000000000001000000000000000000000",
      "type": "0x2",
      "transactionHash": "0x5d1137d566ffedf9f375733eb584e24b2b7b4bae12d761a8388ac37bf532c9b6",
      "transactionIndex": "0x71",
      "blockHash": "0xbff1205a0a7a4d1c61ed277cefe797262e7d1c2399f25461645c98904182b178",
      "blockNumber": "0x9d2df9",
      "gasUsed": "0xd0e7",
      "effectiveGasPrice": "0x1454027",
      "from": "0x42d0e25f42dd126d2c1ebc5592067303c4c0f7d3",
      "to": "0xe9f7b6e25143b0b044498c14f8db0118f727421b",
      "contractAddress": null
    },
    {
      "status": "0x1",
      "cumulativeGasUsed": "0x13071a7",
      "logs": [
        {
          "address": "0xe9f7b6e25143b0b044498c14f8db0118f727421b",
          "topics": [
            "0x1ea45e30b31292f9d7c5d37d275b2feca555f13f47dce0fdea2f47e8852ecd78",
            "0x0000000000000000000000000000000000000000000000000000000000000001"
          ],
          "data": "0x000000000000000000000000000000000000000000000000002386f26fc10000",
          "blockHash": "0xbff1205a0a7a4d1c61ed277cefe797262e7d1c2399f25461645c98904182b178",
          "blockNumber": "0x9d2df9",
          "blockTimestamp": "0x69989c10",
          "transactionHash": "0xc3e966a7ca584d45a2f9b49ed1080e2cb5b0976039c00837e756d4f29c761e11",
          "transactionIndex": "0x72",
          "logIndex": "0x10f",
          "removed": false
        }
      ],
      "logsBloom": "0x00000000000000000000000000000000000000000000000000000000000000000000000000000000000000000000000000000000000000000000000000040000000000000000000000000000000000000000000000040000001000000000000000000000000000000000000000000000000000000000000200000000000000000000000000000000000000000000000000000000000000000000000000000000000080000000000000000000000000000000000000000000000000000000000000000000000000000000000000000000000000000000001000000000000040000000000000000000000000020000000000000000001000000000000000000000",
      "type": "0x2",
      "transactionHash": "0xc3e966a7ca584d45a2f9b49ed1080e2cb5b0976039c00837e756d4f29c761e11",
      "transactionIndex": "0x72",
      "blockHash": "0xbff1205a0a7a4d1c61ed277cefe797262e7d1c2399f25461645c98904182b178",
      "blockNumber": "0x9d2df9",
      "gasUsed": "0xd0f3",
      "effectiveGasPrice": "0x1454027",
      "from": "0x42d0e25f42dd126d2c1ebc5592067303c4c0f7d3",
      "to": "0xe9f7b6e25143b0b044498c14f8db0118f727421b",
      "contractAddress": null
    },
    {
      "status": "0x1",
      "cumulativeGasUsed": "0x131429a",
      "logs": [
        {
          "address": "0xe9f7b6e25143b0b044498c14f8db0118f727421b",
          "topics": [
            "0x1ea45e30b31292f9d7c5d37d275b2feca555f13f47dce0fdea2f47e8852ecd78",
            "0x0000000000000000000000000000000000000000000000000000000000000002"
          ],
          "data": "0x000000000000000000000000000000000000000000000000002386f26fc10000",
          "blockHash": "0xbff1205a0a7a4d1c61ed277cefe797262e7d1c2399f25461645c98904182b178",
          "blockNumber": "0x9d2df9",
          "blockTimestamp": "0x69989c10",
          "transactionHash": "0xba8fa9aebfeedcae98ca9492c11ea0536888c64dc2ec8ee97a38ac1604c4d64b",
          "transactionIndex": "0x73",
          "logIndex": "0x110",
          "removed": false
        }
      ],
      "logsBloom": "0x04000000000000000000000000000000000000000000000000000000000000000000000000000000000000000000000000000000000000000000000000000000000000000000000000000000000000000000000000000000001000000000000000000000000000000000000000000000000000000000000200000000000000000000000000000000000000000000000000000000000000000000000000000000000080000000000000000100000000000000000000000000000000000000000000000000000000000000000000000000000000000000001000000000000000000000000000000000000000020000000000000000009000000000000000000000",
      "type": "0x2",
      "transactionHash": "0xba8fa9aebfeedcae98ca9492c11ea0536888c64dc2ec8ee97a38ac1604c4d64b",
      "transactionIndex": "0x73",
      "blockHash": "0xbff1205a0a7a4d1c61ed277cefe797262e7d1c2399f25461645c98904182b178",
      "blockNumber": "0x9d2df9",
      "gasUsed": "0xd0f3",
      "effectiveGasPrice": "0x1454027",
      "from": "0x42d0e25f42dd126d2c1ebc5592067303c4c0f7d3",
      "to": "0xe9f7b6e25143b0b044498c14f8db0118f727421b",
      "contractAddress": null
    },
    {
      "status": "0x1",
      "cumulativeGasUsed": "0x132138d",
      "logs": [
        {
          "address": "0xe9f7b6e25143b0b044498c14f8db0118f727421b",
          "topics": [
            "0x1ea45e30b31292f9d7c5d37d275b2feca555f13f47dce0fdea2f47e8852ecd78",
            "0x0000000000000000000000000000000000000000000000000000000000000003"
          ],
          "data": "0x000000000000000000000000000000000000000000000000002386f26fc10000",
          "blockHash": "0xbff1205a0a7a4d1c61ed277cefe797262e7d1c2399f25461645c98904182b178",
          "blockNumber": "0x9d2df9",
          "blockTimestamp": "0x69989c10",
          "transactionHash": "0x34ce66ca80f72d7abad1243c3ff75aed00cb6e77416317883fe4707c26578772",
          "transactionIndex": "0x74",
          "logIndex": "0x111",
          "removed": false
        }
      ],
      "logsBloom": "0x00000000000000000000000000000000000000000000000000000000000000000000000000000000000000000000000000000000020000000000000000000000000000000000000000000000000000000000000000000000001000000000000000000000000000000000000000000000000000000000000200000000000000000000000000000000000000000000000000000000000000000000000000000000000080000000000000000000000000000000000000800000000000000000400000000000000000000000000000000000000000000000001000000000000000000000000000000000000000020000000000000000001000000000000000000000",
      "type": "0x2",
      "transactionHash": "0x34ce66ca80f72d7abad1243c3ff75aed00cb6e77416317883fe4707c26578772",
      "transactionIndex": "0x74",
      "blockHash": "0xbff1205a0a7a4d1c61ed277cefe797262e7d1c2399f25461645c98904182b178",
      "blockNumber": "0x9d2df9",
      "gasUsed": "0xd0f3",
      "effectiveGasPrice": "0x1454027",
      "from": "0x42d0e25f42dd126d2c1ebc5592067303c4c0f7d3",
      "to": "0xe9f7b6e25143b0b044498c14f8db0118f727421b",
      "contractAddress": null
    },
    {
      "status": "0x1",
      "cumulativeGasUsed": "0x132e480",
      "logs": [
        {
          "address": "0xe9f7b6e25143b0b044498c14f8db0118f727421b",
          "topics": [
            "0x1ea45e30b31292f9d7c5d37d275b2feca555f13f47dce0fdea2f47e8852ecd78",
            "0x0000000000000000000000000000000000000000000000000000000000000004"
          ],
          "data": "0x000000000000000000000000000000000000000000000000002386f26fc10000",
          "blockHash": "0xbff1205a0a7a4d1c61ed277cefe797262e7d1c2399f25461645c98904182b178",
          "blockNumber": "0x9d2df9",
          "blockTimestamp": "0x69989c10",
          "transactionHash": "0xa7a8d12dec68f3669b92a5cccbdb94c3476d06ad8d1253c9f6f1bcbbf562de3c",
          "transactionIndex": "0x75",
          "logIndex": "0x112",
          "removed": false
        }
      ],
      "logsBloom": "0x00000000000000000000000000000000000000000000000000000000000000000000000000000000000000000000000000000000000000000000000000000000000000000000000000000000000000000000000000000000001000000000000008000000000000000000000000000000000000000000000200000000000000000000000000000000000000000000000000000000000000000000000000000000000080000000000000000000000000000000000000000000002000000000000000000000000000000000000000000000000000008000001000000000000000000000000000000000000000020000000000000000001000000000000000000000",
      "type": "0x2",
      "transactionHash": "0xa7a8d12dec68f3669b92a5cccbdb94c3476d06ad8d1253c9f6f1bcbbf562de3c",
      "transactionIndex": "0x75",
      "blockHash": "0xbff1205a0a7a4d1c61ed277cefe797262e7d1c2399f25461645c98904182b178",
      "blockNumber": "0x9d2df9",
      "gasUsed": "0xd0f3",
      "effectiveGasPrice": "0x1454027",
      "from": "0x42d0e25f42dd126d2c1ebc5592067303c4c0f7d3",
      "to": "0xe9f7b6e25143b0b044498c14f8db0118f727421b",
      "contractAddress": null
    },
    {
      "status": "0x1",
      "cumulativeGasUsed": "0x1350d17",
      "logs": [
        {
          "address": "0xe9f7b6e25143b0b044498c14f8db0118f727421b",
          "topics": [
            "0x1ea45e30b31292f9d7c5d37d275b2feca555f13f47dce0fdea2f47e8852ecd78",
            "0x0000000000000000000000000000000000000000000000000000000000000005"
          ],
          "data": "0x000000000000000000000000000000000000000000000000002386f26fc10000",
          "blockHash": "0xbff1205a0a7a4d1c61ed277cefe797262e7d1c2399f25461645c98904182b178",
          "blockNumber": "0x9d2df9",
          "blockTimestamp": "0x69989c10",
          "transactionHash": "0x14428127e835aadad6f9a012aefa8b22aea068effb1f0960475dd8d13d7e2ab3",
          "transactionIndex": "0x77",
          "logIndex": "0x114",
          "removed": false
        }
      ],
      "logsBloom": "0x00000000000000000000000000000000000000000000000000000000000000000000000000000000000000000000000000000000000000000000000000000000000010000000000000000000000000000000000000000000001000000000000000000000000000000000000000000000000000000000000200000000000000000000000000000000000000000000001000000800000000000000000000000000000080000000000000000000000000000000000000000000000000000000000000000000000000000000000000000000000000000000001000000000000000000000000000000000000000020000000000000000001000000000000000000000",
      "type": "0x2",
      "transactionHash": "0x14428127e835aadad6f9a012aefa8b22aea068effb1f0960475dd8d13d7e2ab3",
      "transactionIndex": "0x77",
      "blockHash": "0xbff1205a0a7a4d1c61ed277cefe797262e7d1c2399f25461645c98904182b178",
      "blockNumber": "0x9d2df9",
      "gasUsed": "0xd0f3",
      "effectiveGasPrice": "0x1454027",
      "from": "0x42d0e25f42dd126d2c1ebc5592067303c4c0f7d3",
      "to": "0xe9f7b6e25143b0b044498c14f8db0118f727421b",
      "contractAddress": null
    },
    {
      "status": "0x1",
      "cumulativeGasUsed": "0x162cdfd",
      "logs": [
        {
          "address": "0xe9f7b6e25143b0b044498c14f8db0118f727421b",
          "topics": [
            "0x1ea45e30b31292f9d7c5d37d275b2feca555f13f47dce0fdea2f47e8852ecd78",
            "0x0000000000000000000000000000000000000000000000000000000000000006"
          ],
          "data": "0x000000000000000000000000000000000000000000000000002386f26fc10000",
          "blockHash": "0xe1e4f67695a00c1b46e76ba9ca8b16249ffbed3afbb2bfc29a2cad2399b693c7",
          "blockNumber": "0x9d2dfa",
          "blockTimestamp": "0x69989c1c",
          "transactionHash": "0x2f7132dc5e87cb09a374a70b7d4697d750b4826640ad9fe1f4bf29ff9d6fac1d",
          "transactionIndex": "0x55",
          "logIndex": "0xbe",
          "removed": false
        }
      ],
      "logsBloom": "0x00000000000000000000000000000000000000000000000000000000000000000000000000000000000000000000000000000000000400000000000000000000000000000000000000000000000000000000000000000000001000000000000000000000000000000000000000000000000000000000000200000000000000000000000400000000000000000000000000000000000000000000000000000000000080000000000000000000000000000000000000000000000000080000000000000000000000000000000000000000000000000000001000000000000000000000000000000000000000020000000000000000001000000000000000000000",
      "type": "0x2",
      "transactionHash": "0x2f7132dc5e87cb09a374a70b7d4697d750b4826640ad9fe1f4bf29ff9d6fac1d",
      "transactionIndex": "0x55",
      "blockHash": "0xe1e4f67695a00c1b46e76ba9ca8b16249ffbed3afbb2bfc29a2cad2399b693c7",
      "blockNumber": "0x9d2dfa",
      "gasUsed": "0xd0f3",
      "effectiveGasPrice": "0x1453f5a",
      "from": "0x42d0e25f42dd126d2c1ebc5592067303c4c0f7d3",
      "to": "0xe9f7b6e25143b0b044498c14f8db0118f727421b",
      "contractAddress": null
    },
    {
      "status": "0x1",
      "cumulativeGasUsed": "0x1639ef0",
      "logs": [
        {
          "address": "0xe9f7b6e25143b0b044498c14f8db0118f727421b",
          "topics": [
            "0x1ea45e30b31292f9d7c5d37d275b2feca555f13f47dce0fdea2f47e8852ecd78",
            "0x0000000000000000000000000000000000000000000000000000000000000007"
          ],
          "data": "0x000000000000000000000000000000000000000000000000002386f26fc10000",
          "blockHash": "0xe1e4f67695a00c1b46e76ba9ca8b16249ffbed3afbb2bfc29a2cad2399b693c7",
          "blockNumber": "0x9d2dfa",
          "blockTimestamp": "0x69989c1c",
          "transactionHash": "0xc7af2e8372e0aecd62aa5fd270b36eb0326be208e6b8825a70ba4beca5cd259d",
          "transactionIndex": "0x56",
          "logIndex": "0xbf",
          "removed": false
        }
      ],
      "logsBloom": "0x00000000000000000000000000000000000000000000000000000000000000000000000000000000000000000000000000001000000000000000000000000000000020000000000000000000000000000000000000000000001000000000000000000000000000000000000000000000000000000000000200000000000000000000000000000000000000000000000000000000000000000000000000000000000080000000000000000000000000000000000000000000000000000000000000000000000000000000000000000000000000000000001000000100000000000000000000000000000000020000000000000000001000000000000000000000",
      "type": "0x2",
      "transactionHash": "0xc7af2e8372e0aecd62aa5fd270b36eb0326be208e6b8825a70ba4beca5cd259d",
      "transactionIndex": "0x56",
      "blockHash": "0xe1e4f67695a00c1b46e76ba9ca8b16249ffbed3afbb2bfc29a2cad2399b693c7",
      "blockNumber": "0x9d2dfa",
      "gasUsed": "0xd0f3",
      "effectiveGasPrice": "0x1453f5a",
      "from": "0x42d0e25f42dd126d2c1ebc5592067303c4c0f7d3",
      "to": "0xe9f7b6e25143b0b044498c14f8db0118f727421b",
      "contractAddress": null
    }
  ],
  "libraries": [],
  "pending": [],
  "returns": {},
  "timestamp": 1771609116482,
  "chain": 11155111,
  "commit": "64fc27f"
}