{
  "transactions": [
    {
      "hash": "0xe576b7032096625cacab8f8094db67962851945d51439760a2f612bf00137aaa",
      "transactionType": "CALL",
      "contractName": null,
      "contractAddress": "0xe054cc6187b62d5812d4b427c33e8a000afb133f",
      "function": "mint(int32,int32,uint32,uint32)",
      "arguments": [
        "6702000",
        "-75505000",
        "3000",
        "3000"
      ],
      "transaction": {
        "from": "0x42d0e25f42dd126d2c1ebc5592067303c4c0f7d3",
        "to": "0xe054cc6187b62d5812d4b427c33e8a000afb133f",
        "gas": "0x34a99",
        "value": "0x0",
        "input": "0x222a022600000000000000000000000000000000000000000000000000000000006643b0fffffffffffffffffffffffffffffffffffffffffffffffffffffffffb7fe2980000000000000000000000000000000000000000000000000000000000000bb80000000000000000000000000000000000000000000000000000000000000bb8",
        "nonce": "0x32",
        "chainId": "0xaa36a7"
      },
      "additionalContracts": [],
      "isFixedGasLimit": false
    },
    {
      "hash": "0x042bfb029dfbd5ea095495fd8ae5ffcc117b5bfb641ce1116da9cd3c68b17ee5",
      "transactionType": "CALL",
      "contractName": null,
      "contractAddress": "0xe054cc6187b62d5812d4b427c33e8a000afb133f",
      "function": "mint(int32,int32,uint32,uint32)",
      "arguments": [
        "6702000",
        "-75502000",
        "3000",
        "3000"
      ],
      "transaction": {
        "from": "0x42d0e25f42dd126d2c1ebc5592067303c4c0f7d3",
        "to": "0xe054cc6187b62d5812d4b427c33e8a000afb133f",
        "gas": "0x41dd6",
        "value": "0x0",
        "input": "0x222a022600000000000000000000000000000000000000000000000000000000006643b0fffffffffffffffffffffffffffffffffffffffffffffffffffffffffb7fee500000000000000000000000000000000000000000000000000000000000000bb80000000000000000000000000000000000000000000000000000000000000bb8",
        "nonce": "0x33",
        "chainId": "0xaa36a7"
      },
      "additionalContracts": [],
      "isFixedGasLimit": false
    },
    {
      "hash": "0xe0239dbc1c39a4d00ee52913cab56fe3dbae75bf7a323ce22e736444b7ffab95",
      "transactionType": "CALL",
      "contractName": null,
      "contractAddress": "0xe054cc6187b62d5812d4b427c33e8a000afb133f",
      "function": "mint(int32,int32,uint32,uint32)",
      "arguments": [
        "6702000",
        "-75499000",
        "3000",
        "3000"
      ],
      "transaction": {
        "from": "0x42d0e25f42dd126d2c1ebc5592067303c4c0f7d3",
        "to": "0xe054cc6187b62d5812d4b427c33e8a000afb133f",
        "gas": "0x41dd6",
        "value": "0x0",
        "input": "0x222a022600000000000000000000000000000000000000000000000000000000006643b0fffffffffffffffffffffffffffffffffffffffffffffffffffffffffb7ffa080000000000000000000000000000000000000000000000000000000000000bb80000000000000000000000000000000000000000000000000000000000000bb8",
        "nonce": "0x34",
        "chainId": "0xaa36a7"
      },
      "additionalContracts": [],
      "isFixedGasLimit": false
    },
    {
      "hash": "0xc10d3c6448abfc7e42b477b0ec93ec8a052e39ec499894070bd07e14a4544fb0",
      "transactionType": "CALL",
      "contractName": null,
      "contractAddress": "0xe054cc6187b62d5812d4b427c33e8a000afb133f",
      "function": "mint(int32,int32,uint32,uint32)",
      "arguments": [
        "6702000",
        "-75496000",
        "3000",
        "3000"
      ],
      "transaction": {
        "from": "0x42d0e25f42dd126d2c1ebc5592067303c4c0f7d3",
        "to": "0xe054cc6187b62d5812d4b427c33e8a000afb133f",
        "gas": "0x41dd6",
        "value": "0x0",
        "input": "0x222a022600000000000000000000000000000000000000000000000000000000006643b0fffffffffffffffffffffffffffffffffffffffffffffffffffffffffb8005c00000000000000000000000000000000000000000000000000000000000000bb80000000000000000000000000000000000000000000000000000000000000bb8",
        "nonce": "0x35",
        "chainId": "0xaa36a7"
      },
      "additionalContracts": [],
      "isFixedGasLimit": false
    },
    {
      "hash": "0x759b6ba3ca00678acbd23f864d2feb297fe213534446aad567229837fd8abf92",
      "transactionType": "CALL",
      "contractName": null,
      "contractAddress": "0xe054cc6187b62d5812d4b427c33e8a000afb133f",
      "function": "mint(int32,int32,uint32,uint32)",
      "arguments": [
        "6702000",
        "-75493000",
        "3000",
        "3000"
      ],
      "transaction": {
        "from": "0x42d0e25f42dd126d2c1ebc5592067303c4c0f7d3",
        "to": "0xe054cc6187b62d5812d4b427c33e8a000afb133f",
        "gas": "0x41dd6",
        "value": "0x0",
        "input": "0x222a022600000000000000000000000000000000000000000000000000000000006643b0fffffffffffffffffffffffffffffffffffffffffffffffffffffffffb8011780000000000000000000000000000000000000000000000000000000000000bb80000000000000000000000000000000000000000000000000000000000000bb8",
        "nonce": "0x36",
        "chainId": "0xaa36a7"
      },
      "additionalContracts": [],
      "isFixedGasLimit": false
    },
    {
      "hash": "0xd742cd75fc1f5d94ef89afbc08ea23120e58b4d4c4b87c7bb1a45bcaa07c5860",
      "transactionType": "CALL",
      "contractName": null,
      "contractAddress": "0xe054cc6187b62d5812d4b427c33e8a000afb133f",
      "function": "mint(int32,int32,uint32,uint32)",
      "arguments": [
        "6702000",
        "-75490000",
        "3000",
        "3000"
      ],
      "transaction": {
        "from": "0x42d0e25f42dd126d2c1ebc5592067303c4c0f7d3",
        "to": "0xe054cc6187b62d5812d4b427c33e8a000afb133f",
        "gas": "0x41dd6",
        "value": "0x0",
        "input": "0x222a022600000000000000000000000000000000000000000000000000000000006643b0fffffffffffffffffffffffffffffffffffffffffffffffffffffffffb801d300000000000000000000000000000000000000000000000000000000000000bb80000000000000000000000000000000000000000000000000000000000000bb8",
        "nonce": "0x37",
        "chainId": "0xaa36a7"
      },
      "additionalContracts": [],
      "isFixedGasLimit": false
    },
    {
      "hash": "0x0ae3a3ee3cecd7f9151728376df6a3ee077f2d09e54194b8e080f4f8c62261a7",
      "transactionType": "CALL",
      "contractName": null,
      "contractAddress": "0xe054cc6187b62d5812d4b427c33e8a000afb133f",
      "function": "mint(int32,int32,uint32,uint32)",
      "arguments": [
        "6705000",
        "-75505000",
        "3000",
        "3000"
      ],
      "transaction": {
        "from": "0x42d0e25f42dd126d2c1ebc5592067303c4c0f7d3",
        "to": "0xe054cc6187b62d5812d4b427c33e8a000afb133f",
        "gas": "0x41dd6",
        "value": "0x0",
        "input": "0x222a02260000000000000000000000000000000000000000000000000000000000664f68fffffffffffffffffffffffffffffffffffffffffffffffffffffffffb7fe2980000000000000000000000000000000000000000000000000000000000000bb80000000000000000000000000000000000000000000000000000000000000bb8",
        "nonce": "0x38",
        "chainId": "0xaa36a7"
      },
      "additionalContracts": [],
      "isFixedGasLimit": false
    },
    {
      "hash": "0xa1e829eea9435eaca7cafa2ebd265c5370cefc86b93aabc7d9700b672ecfe1ac",
      "transactionType": "CALL",
      "contractName": null,
      "contractAddress": "0xe054cc6187b62d5812d4b427c33e8a000afb133f",
      "function": "mint(int32,int32,uint32,uint32)",
      "arguments": [
        "6705000",
        "-75502000",
        "3000",
        "3000"
      ],
      "transaction": {
        "from": "0x42d0e25f42dd126d2c1ebc5592067303c4c0f7d3",
        "to": "0xe054cc6187b62d5812d4b427c33e8a000afb133f",
        "gas": "0x41dd6",
        "value": "0x0",
        "input": "0x222a02260000000000000000000000000000000000000000000000000000000000664f68fffffffffffffffffffffffffffffffffffffffffffffffffffffffffb7fee500000000000000000000000000000000000000000000000000000000000000bb80000000000000000000000000000000000000000000000000000000000000bb8",
        "nonce": "0x39",
        "chainId": "0xaa36a7"
      },
      "additionalContracts": [],
      "isFixedGasLimit": false
    },
    {
      "hash": "0xa06845cb62212d08b58e29845b4a53fc463c3f103feaa1dff56201cea0bc50ca",
      "transactionType": "CALL",
      "contractName": null,
      "contractAddress": "0xe054cc6187b62d5812d4b427c33e8a000afb133f",
      "function": "mint(int32,int32,uint32,uint32)",
      "arguments": [
        "6705000",
        "-75499000",
        "3000",
        "3000"
      ],
      "transaction": {
        "from": "0x42d0e25f42dd126d2c1ebc5592067303c4c0f7d3",
        "to": "0xe054cc6187b62d5812d4b427c33e8a000afb133f",
        "gas": "0x41dd6",
        "value": "0x0",
        "input": "0x222a02260000000000000000000000000000000000000000000000000000000000664f68fffffffffffffffffffffffffffffffffffffffffffffffffffffffffb7ffa080000000000000000000000000000000000000000000000000000000000000bb80000000000000000000000000000000000000000000000000000000000000bb8",
        "nonce": "0x3a",
        "chainId": "0xaa36a7"
      },
      "additionalContracts": [],
      "isFixedGasLimit": false
    },
    {
      "hash": "0xa9a95e05d5e5826f3ad318dfac4f0d352b532d1ee429dee2675d73a767d42282",
      "transactionType": "CALL",
      "contractName": null,
      "contractAddress": "0xe054cc6187b62d5812d4b427c33e8a000afb133f",
      "function": "mint(int32,int32,uint32,uint32)",
      "arguments": [
        "6705000",
        "-75496000",
        "3000",
        "3000"
      ],
      "transaction": {
        "from": "0x42d0e25f42dd126d2c1ebc5592067303c4c0f7d3",
        "to": "0xe054cc6187b62d5812d4b427c33e8a000afb133f",
        "gas": "0x41dd6",
        "value": "0x0",
        "input": "0x222a02260000000000000000000000000000000000000000000000000000000000664f68fffffffffffffffffffffffffffffffffffffffffffffffffffffffffb8005c00000000000000000000000000000000000000000000000000000000000000bb80000000000000000000000000000000000000000000000000000000000000bb8",
        "nonce": "0x3b",
        "chainId": "0xaa36a7"
      },
      "additionalContracts": [],
      "isFixedGasLimit": false
    },
    {
      "hash": "0xdb12778371b911e149e9d2ab0ad942e53ec313a723d248280eda52a91d072719",
      "transactionType": "CALL",
      "contractName": null,
      "contractAddress": "0xe054cc6187b62d5812d4b427c33e8a000afb133f",
      "function": "mint(int32,int32,uint32,uint32)",
      "arguments": [
        "6705000",
        "-75493000",
        "3000",
        "3000"
      ],
      "transaction": {
        "from": "0x42d0e25f42dd126d2c1ebc5592067303c4c0f7d3",
        "to": "0xe054cc6187b62d5812d4b427c33e8a000afb133f",
        "gas": "0x41dd6",
        "value": "0x0",
        "input": "0x222a02260000000000000000000000000000000000000000000000000000000000664f68fffffffffffffffffffffffffffffffffffffffffffffffffffffffffb8011780000000000000000000000000000000000000000000000000000000000000bb80000000000000000000000000000000000000000000000000000000000000bb8",
        "nonce": "0x3c",
        "chainId": "0xaa36a7"
      },
      "additionalContracts": [],
      "isFixedGasLimit": false
    },
    {
      "hash": "0x6d2125b6d4b47d97995a1dc05b4e8b129f5b2724676752f0cca53485a5d459b1",
      "transactionType": "CALL",
      "contractName": null,
      "contractAddress": "0xe054cc6187b62d5812d4b427c33e8a000afb133f",
      "function": "mint(int32,int32,uint32,uint32)",
      "arguments": [
        "6705000",
        "-75490000",
        "3000",
        "3000"
      ],
      "transaction": {
        "from": "0x42d0e25f42dd126d2c1ebc5592067303c4c0f7d3",
        "to": "0xe054cc6187b62d5812d4b427c33e8a000afb133f",
        "gas": "0x41dd6",
        "value": "0x0",
        "input": "0x222a02260000000000000000000000000000000000000000000000000000000000664f68fffffffffffffffffffffffffffffffffffffffffffffffffffffffffb801d300000000000000000000000000000000000000000000000000000000000000bb80000000000000000000000000000000000000000000000000000000000000bb8",
        "nonce": "0x3d",
        "chainId": "0xaa36a7"
      },
      "additionalContracts": [],
      "isFixedGasLimit": false
    },
    {
      "hash": "0x9dfe0e5341029c7c02829ee6b7c5ae73b41c6ad3842f3639f667eb79b8dec52d",
      "transactionType": "CALL",
      "contractName": null,
      "contractAddress": "0xe054cc6187b62d5812d4b427c33e8a000afb133f",
      "function": "mint(int32,int32,uint32,uint32)",
      "arguments": [
        "6708000",
        "-75505000",
        "3000",
        "3000"
      ],
      "transaction": {
        "from": "0x42d0e25f42dd126d2c1ebc5592067303c4c0f7d3",
        "to": "0xe054cc6187b62d5812d4b427c33e8a000afb133f",
        "gas": "0x41dd6",
        "value": "0x0",
        "input": "0x222a02260000000000000000000000000000000000000000000000000000000000665b20fffffffffffffffffffffffffffffffffffffffffffffffffffffffffb7fe2980000000000000000000000000000000000000000000000000000000000000bb80000000000000000000000000000000000000000000000000000000000000bb8",
        "nonce": "0x3e",
        "chainId": "0xaa36a7"
      },
      "additionalContracts": [],
      "isFixedGasLimit": false
    },
    {
      "hash": "0xd2199cb374dad0a24eacadfa14202d5075f853db4c2eea10022dbce4df0b63b8",
      "transactionType": "CALL",
      "contractName": null,
      "contractAddress": "0xe054cc6187b62d5812d4b427c33e8a000afb133f",
      "function": "mint(int32,int32,uint32,uint32)",
      "arguments": [
        "6708000",
        "-75502000",
        "3000",
        "3000"
      ],
      "transaction": {
        "from": "0x42d0e25f42dd126d2c1ebc5592067303c4c0f7d3",
        "to": "0xe054cc6187b62d5812d4b427c33e8a000afb133f",
        "gas": "0x41dd6",
        "value": "0x0",
        "input": "0x222a02260000000000000000000000000000000000000000000000000000000000665b20fffffffffffffffffffffffffffffffffffffffffffffffffffffffffb7fee500000000000000000000000000000000000000000000000000000000000000bb80000000000000000000000000000000000000000000000000000000000000bb8",
        "nonce": "0x3f",
        "chainId": "0xaa36a7"
      },
      "additionalContracts": [],
      "isFixedGasLimit": false
    },
    {
      "hash": "0xf962d5c33c6fecc7e3c7a6eec1c152428e9116bbc91e6c6456c1f77e89d1704d",
      "transactionType": "CALL",
      "contractName": null,
      "contractAddress": "0xe054cc6187b62d5812d4b427c33e8a000afb133f",
      "function": "mint(int32,int32,uint32,uint32)",
      "arguments": [
        "6708000",
        "-75499000",
        "3000",
        "3000"
      ],
      "transaction": {
        "from": "0x42d0e25f42dd126d2c1ebc5592067303c4c0f7d3",
        "to": "0xe054cc6187b62d5812d4b427c33e8a000afb133f",
        "gas": "0x41dd6",
        "value": "0x0",
        "input": "0x222a02260000000000000000000000000000000000000000000000000000000000665b20fffffffffffffffffffffffffffffffffffffffffffffffffffffffffb7ffa080000000000000000000000000000000000000000000000000000000000000bb80000000000000000000000000000000000000000000000000000000000000bb8",
        "nonce": "0x40",
        "chainId": "0xaa36a7"
      },
      "additionalContracts": [],
      "isFixedGasLimit": false
    },
    {
      "hash": "0x94a1d8d7ce3022444f163d2c8e1b5f1aedec677787f440a6184963542c6bce83",
      "transactionType": "CALL",
      "contractName": null,
      "contractAddress": "0xe054cc6187b62d5812d4b427c33e8a000afb133f",
      "function": "mint(int32,int32,uint32,uint32)",
      "arguments": [
        "6708000",
        "-75496000",
        "3000",
        "3000"
      ],
      "transaction": {
        "from": "0x42d0e25f42dd126d2c1ebc5592067303c4c0f7d3",
        "to": "0xe054cc6187b62d5812d4b427c33e8a000afb133f",
        "gas": "0x41dd6",
        "value": "0x0",
        "input": "0x222a02260000000000000000000000000000000000000000000000000000000000665b20fffffffffffffffffffffffffffffffffffffffffffffffffffffffffb8005c00000000000000000000000000000000000000000000000000000000000000bb80000000000000000000000000000000000000000000000000000000000000bb8",
        "nonce": "0x41",
        "chainId": "0xaa36a7"
      },
      "additionalContracts": [],
      "isFixedGasLimit": false
    },
    {
      "hash": "0x7ee03258358c35edca62a458a5c62576967cc6c08660cbce839f512067589f20",
      "transactionType": "CALL",
      "contractName": null,
      "contractAddress": "0xe054cc6187b62d5812d4b427c33e8a000afb133f",
      "function": "mint(int32,int32,uint32,uint32)",
      "arguments": [
        "6708000",
        "-75493000",
        "3000",
        "3000"
      ],
      "transaction": {
        "from": "0x42d0e25f42dd126d2c1ebc5592067303c4c0f7d3",
        "to": "0xe054cc6187b62d5812d4b427c33e8a000afb133f",
        "gas": "0x41dd6",
        "value": "0x0",
        "input": "0x222a02260000000000000000000000000000000000000000000000000000000000665b20fffffffffffffffffffffffffffffffffffffffffffffffffffffffffb8011780000000000000000000000000000000000000000000000000000000000000bb80000000000000000000000000000000000000000000000000000000000000bb8",
        "nonce": "0x42",
        "chainId": "0xaa36a7"
      },
      "additionalContracts": [],
      "isFixedGasLimit": false
    },
    {
      "hash": "0x142c82c52a7c877d950dac9c07c639a0dc08aee1f0ae1bff915d849ca3dd35d9",
      "transactionType": "CALL",
      "contractName": null,
      "contractAddress": "0xe054cc6187b62d5812d4b427c33e8a000afb133f",
      "function": "mint(int32,int32,uint32,uint32)",
      "arguments": [
        "6708000",
        "-75490000",
        "3000",
        "3000"
      ],
      "transaction": {
        "from": "0x42d0e25f42dd126d2c1ebc5592067303c4c0f7d3",
        "to": "0xe054cc6187b62d5812d4b427c33e8a000afb133f",
        "gas": "0x41dd6",
        "value": "0x0",
        "input": "0x222a02260000000000000000000000000000000000000000000000000000000000665b20fffffffffffffffffffffffffffffffffffffffffffffffffffffffffb801d300000000000000000000000000000000000000000000000000000000000000bb80000000000000000000000000000000000000000000000000000000000000bb8",
        "nonce": "0x43",
        "chainId": "0xaa36a7"
      },
      "additionalContracts": [],
      "isFixedGasLimit": false
    },
    {
      "hash": "0x696f2262552f05457a8205404ab54f1097babc0f677c238194571938faacd9a9",
      "transactionType": "CALL",
      "contractName": null,
      "contractAddress": "0xe054cc6187b62d5812d4b427c33e8a000afb133f",
      "function": "mint(int32,int32,uint32,uint32)",
      "arguments": [
        "6711000",
        "-75505000",
        "3000",
        "3000"
      ],
      "transaction": {
        "from": "0x42d0e25f42dd126d2c1ebc5592067303c4c0f7d3",
        "to": "0xe054cc6187b62d5812d4b427c33e8a000afb133f",
        "gas": "0x41dd6",
        "value": "0x0",
        "input": "0x222a022600000000000000000000000000000000000000000000000000000000006666d8fffffffffffffffffffffffffffffffffffffffffffffffffffffffffb7fe2980000000000000000000000000000000000000000000000000000000000000bb80000000000000000000000000000000000000000000000000000000000000bb8",
        "nonce": "0x44",
        "chainId": "0xaa36a7"
      },
      "additionalContracts": [],
      "isFixedGasLimit": false
    },
    {
      "hash": "0xff888f5a0f7147b4afeb30d1687d5f88969511a54f5b4350ad08b9e59744d69d",
      "transactionType": "CALL",
      "contractName": null,
      "contractAddress": "0xe054cc6187b62d5812d4b427c33e8a000afb133f",
      "function": "mint(int32,int32,uint32,uint32)",
      "arguments": [
        "6711000",
        "-75502000",
        "3000",
        "3000"
      ],
      "transaction": {
        "from": "0x42d0e25f42dd126d2c1ebc5592067303c4c0f7d3",
        "to": "0xe054cc6187b62d5812d4b427c33e8a000afb133f",
        "gas": "0x41dd6",
        "value": "0x0",
        "input": "0x222a022600000000000000000000000000000000000000000000000000000000006666d8fffffffffffffffffffffffffffffffffffffffffffffffffffffffffb7fee500000000000000000000000000000000000000000000000000000000000000bb80000000000000000000000000000000000000000000000000000000000000bb8",
        "nonce": "0x45",
        "chainId": "0xaa36a7"
      },
      "additionalContracts": [],
      "isFixedGasLimit": false
    },
    {
      "hash": "0x6b0043a390730efabac46d8c16ff4246f42148a6dcaaba9538588b149129b84c",
      "transactionType": "CALL",
      "contractName": null,
      "contractAddress": "0xe054cc6187b62d5812d4b427c33e8a000afb133f",
      "function": "mint(int32,int32,uint32,uint32)",
      "arguments": [
        "6711000",
        "-75499000",
        "3000",
        "3000"
      ],
      "transaction": {
        "from": "0x42d0e25f42dd126d2c1ebc5592067303c4c0f7d3",
        "to": "0xe054cc6187b62d5812d4b427c33e8a000afb133f",
        "gas": "0x41dd6",
        "value": "0x0",
        "input": "0x222a022600000000000000000000000000000000000000000000000000000000006666d8fffffffffffffffffffffffffffffffffffffffffffffffffffffffffb7ffa080000000000000000000000000000000000000000000000000000000000000bb80000000000000000000000000000000000000000000000000000000000000bb8",
        "nonce": "0x46",
        "chainId": "0xaa36a7"
      },
      "additionalContracts": [],
      "isFixedGasLimit": false
    },
    {
      "hash": "0x5dd2484b685863d52e39b8792d25aa7c5a426bd85366e642abc43d5abf478be0",
      "transactionType": "CALL",
      "contractName": null,
      "contractAddress": "0xe054cc6187b62d5812d4b427c33e8a000afb133f",
      "function": "mint(int32,int32,uint32,uint32)",
      "arguments": [
        "6711000",
        "-75496000",
        "3000",
        "3000"
      ],
      "transaction": {
        "from": "0x42d0e25f42dd126d2c1ebc5592067303c4c0f7d3",
        "to": "0xe054cc6187b62d5812d4b427c33e8a000afb133f",
        "gas": "0x41dd6",
        "value": "0x0",
        "input": "0x222a022600000000000000000000000000000000000000000000000000000000006666d8fffffffffffffffffffffffffffffffffffffffffffffffffffffffffb8005c00000000000000000000000000000000000000000000000000000000000000bb80000000000000000000000000000000000000000000000000000000000000bb8",
        "nonce": "0x47",
        "chainId": "0xaa36a7"
      },
      "additionalContracts": [],
      "isFixedGasLimit": false
    },
    {
      "hash": "0x6eb708c2d4a6081072f54ba238cb995fda0cb5a183638bfd4c7767f2cf15c08a",
      "transactionType": "CALL",
      "contractName": null,
      "contractAddress": "0xe054cc6187b62d5812d4b427c33e8a000afb133f",
      "function": "mint(int32,int32,uint32,uint32)",
      "arguments": [
        "6711000",
        "-75493000",
        "3000",
        "3000"
      ],
      "transaction": {
        "from": "0x42d0e25f42dd126d2c1ebc5592067303c4c0f7d3",
        "to": "0xe054cc6187b62d5812d4b427c33e8a000afb133f",
        "gas": "0x41dd6",
        "value": "0x0",
        "input": "0x222a022600000000000000000000000000000000000000000000000000000000006666d8fffffffffffffffffffffffffffffffffffffffffffffffffffffffffb8011780000000000000000000000000000000000000000000000000000000000000bb80000000000000000000000000000000000000000000000000000000000000bb8",
        "nonce": "0x48",
        "chainId": "0xaa36a7"
      },
      "additionalContracts": [],
      "isFixedGasLimit": false
    },
    {
      "hash": "0xac5b71c257f0cce7e9e9d2638e27cba42b8bd53c05b239bc946dbb83bb9e9799",
      "transactionType": "CALL",
      "contractName": null,
      "contractAddress": "0xe054cc6187b62d5812d4b427c33e8a000afb133f",
      "function": "mint(int32,int32,uint32,uint32)",
      "arguments": [
        "6711000",
        "-75490000",
        "3000",
        "3000"
      ],
      "transaction": {
        "from": "0x42d0e25f42dd126d2c1ebc5592067303c4c0f7d3",
        "to": "0xe054cc6187b62d5812d4b427c33e8a000afb133f",
        "gas": "0x41dd6",
        "value": "0x0",
        "input": "0x222a022600000000000000000000000000000000000000000000000000000000006666d8fffffffffffffffffffffffffffffffffffffffffffffffffffffffffb801d300000000000000000000000000000000000000000000000000000000000000bb80000000000000000000000000000000000000000000000000000000000000bb8",
        "nonce": "0x49",
        "chainId": "0xaa36a7"
      },
      "additionalContracts": [],
      "isFixedGasLimit": false
    },
    {
      "hash": "0x19c55a8fceac511d890a262ab1f6b633608dc7584c19767455d7cfe3b0083385",
      "transactionType": "CALL",
      "contractName": null,
      "contractAddress": "0xe054cc6187b62d5812d4b427c33e8a000afb133f",
      "function": "list(uint256,uint256)",
      "arguments": [
        "0",
        "10000000000000000"
      ],
      "transaction": {
        "from": "0x42d0e25f42dd126d2c1ebc5592067303c4c0f7d3",
        "to": "0xe054cc6187b62d5812d4b427c33e8a000afb133f",
        "gas": "0x12018",
        "value": "0x0",
        "input": "0x50fd73670000000000000000000000000000000000000000000000000000000000000000000000000000000000000000000000000000000000000000002386f26fc10000",
        "nonce": "0x4a",
        "chainId": "0xaa36a7"
      },
      "additionalContracts": [],
      "isFixedGasLimit": false
    },
    {
      "hash": "0x1350c65a22b130c0131f84a83e4c6b3d436fd567ed3c8e6b111c88facaed852d",
      "transactionType": "CALL",
      "contractName": null,
      "contractAddress": "0xe054cc6187b62d5812d4b427c33e8a000afb133f",
      "function": "list(uint256,uint256)",
      "arguments": [
        "1",
        "10000000000000000"
      ],
      "transaction": {
        "from": "0x42d0e25f42dd126d2c1ebc5592067303c4c0f7d3",
        "to": "0xe054cc6187b62d5812d4b427c33e8a000afb133f",
        "gas": "0x12029",
        "value": "0x0",
        "input": "0x50fd73670000000000000000000000000000000000000000000000000000000000000001000000000000000000000000000000000000000000000000002386f26fc10000",
        "nonce": "0x4b",
        "chainId": "0xaa36a7"
      },
      "additionalContracts": [],
      "isFixedGasLimit": false
    },
    {
      "hash": "0x878bc5bafa195d2cd523472bd82fa6e3f13abaecd0ae03f04838d9bc707b52cc",
      "transactionType": "CALL",
      "contractName": null,
      "contractAddress": "0xe054cc6187b62d5812d4b427c33e8a000afb133f",
      "function": "list(uint256,uint256)",
      "arguments": [
        "2",
        "10000000000000000"
      ],
      "transaction": {
        "from": "0x42d0e25f42dd126d2c1ebc5592067303c4c0f7d3",
        "to": "0xe054cc6187b62d5812d4b427c33e8a000afb133f",
        "gas": "0x12029",
        "value": "0x0",
        "input": "0x50fd73670000000000000000000000000000000000000000000000000000000000000002000000000000000000000000000000000000000000000000002386f26fc10000",
        "nonce": "0x4c",
        "chainId": "0xaa36a7"
      },
      "additionalContracts": [],
      "isFixedGasLimit": false
    },
    {
      "hash": "0xb4388d59aec68edae0c7236b2cf434f6687853be8d32c1765a7dfa62dd1ac8a3",
      "transactionType": "CALL",
      "contractName": null,
      "contractAddress": "0xe054cc6187b62d5812d4b427c33e8a000afb133f",
      "function": "list(uint256,uint256)",
      "arguments": [
        "3",
        "10000000000000000"
      ],
      "transaction": {
        "from": "0x42d0e25f42dd126d2c1ebc5592067303c4c0f7d3",
        "to": "0xe054cc6187b62d5812d4b427c33e8a000afb133f",
        "gas": "0x12029",
        "value": "0x0",
        "input": "0x50fd73670000000000000000000000000000000000000000000000000000000000000003000000000000000000000000000000000000000000000000002386f26fc10000",
        "nonce": "0x4d",
        "chainId": "0xaa36a7"
      },
      "additionalContracts": [],
      "isFixedGasLimit": false
    },
    {
      "hash": "0x1414edb6cdd2e66c448300ea203d2886ceada5c4fe259ce468adbcab349e5ffa",
      "transactionType": "CALL",
      "contractName": null,
      "contractAddress": "0xe054cc6187b62d5812d4b427c33e8a000afb133f",
      "function": "list(uint256,uint256)",
      "arguments": [
        "4",
        "10000000000000000"
      ],
      "transaction": {
        "from": "0x42d0e25f42dd126d2c1ebc5592067303c4c0f7d3",
        "to": "0xe054cc6187b62d5812d4b427c33e8a000afb133f",
        "gas": "0x12029",
        "value": "0x0",
        "input": "0x50fd73670000000000000000000000000000000000000000000000000000000000000004000000000000000000000000000000000000000000000000002386f26fc10000",
        "nonce": "0x4e",
        "chainId": "0xaa36a7"
      },
      "additionalContracts": [],
      "isFixedGasLimit": false
    },
    {
      "hash": "0x3ac802e8fac8352d61aff1d0508a795909bde711ef27af1230efe613e6069caf",
      "transactionType": "CALL",
      "contractName": null,
      "contractAddress": "0xe054cc6187b62d5812d4b427c33e8a000afb133f",
      "function": "list(uint256,uint256)",
      "arguments": [
        "5",
        "10000000000000000"
      ],
      "transaction": {
        "from": "0x42d0e25f42dd126d2c1ebc5592067303c4c0f7d3",
        "to": "0xe054cc6187b62d5812d4b427c33e8a000afb133f",
        "gas": "0x12029",
        "value": "0x0",
        "input": "0x50fd73670000000000000000000000000000000000000000000000000000000000000005000000000000000000000000000000000000000000000000002386f26fc10000",
        "nonce": "0x4f",
        "chainId": "0xaa36a7"
      },
      "additionalContracts": [],
      "isFixedGasLimit": false
    },
    {
      "hash": "0x91cc41d84993b97b943c3e4ff7c5972cb7b3d69e274cf5311283f5ff1b8aecaa",
      "transactionType": "CALL",
      "contractName": null,
      "contractAddress": "0xe054cc6187b62d5812d4b427c33e8a000afb133f",
      "function": "list(uint256,uint256)",
      "arguments": [
        "6",
        "10000000000000000"
      ],
      "transaction": {
        "from": "0x42d0e25f42dd126d2c1ebc5592067303c4c0f7d3",
        "to": "0xe054cc6187b62d5812d4b427c33e8a000afb133f",
        "gas": "0x12029",
        "value": "0x0",
        "input": "0x50fd73670000000000000000000000000000000000000000000000000000000000000006000000000000000000000000000000000000000000000000002386f26fc10000",
        "nonce": "0x50",
        "chainId": "0xaa36a7"
      },
      "additionalContracts": [],
      "isFixedGasLimit": false
    },
    {
      "hash": "0x8644cdb9f5fa8c57d1d6a0403b45a3773b16889e1c218f0794f93f2744e1cd8a",
      "transactionType": "CALL",
      "contractName": null,
      "contractAddress": "0xe054cc6187b62d5812d4b427c33e8a000afb133f",
      "function": "list(uint256,uint256)",
      "arguments": [
        "7",
        "10000000000000000"
      ],
      "transaction": {
        "from": "0x42d0e25f42dd126d2c1ebc5592067303c4c0f7d3",
        "to": "0xe054cc6187b62d5812d4b427c33e8a000afb133f",
        "gas": "0x12029",
        "value": "0x0",
        "input": "0x50fd73670000000000000000000000000000000000000000000000000000000000000007000000000000000000000000000000000000000000000000002386f26fc10000",
        "nonce": "0x51",
        "chainId": "0xaa36a7"
      },
      "additionalContracts": [],
      "isFixedGasLimit": false
    }
  ],
  "receipts": [
    {
      "status": "0x1",
      "cumulativeGasUsed": "0x2db5a0e",
      "logs": [
        {
          "address": "0xe054cc6187b62d5812d4b427c33e8a000afb133f",
          "topics": [
            "0xddf252ad1be2c89b69c2b068fc378daa952ba7f163c4a11628f55a4df523b3ef",
            "0x0000000000000000000000000000000000000000000000000000000000000000",
            "0x00000000000000000000000042d0e25f42dd126d2c1ebc5592067303c4c0f7d3",
            "0x0000000000000000000000000000000000000000000000000000000000000000"
          ],
          "data": "0x",
          "blockHash": "0x56a13bbbed6fd2cdc6ccea4f1cab5cca202dd8ce63e8c08e9e3f4f2935809d18",
          "blockNumber": "0x9d2fc8",
          "blockTimestamp": "0x6998b230",
          "transactionHash": "0xe576b7032096625cacab8f8094db67962851945d51439760a2f612bf00137aaa",
          "transactionIndex": "0x6e",
          "logIndex": "0xee",
          "removed": false
        },
        {
          "address": "0xe054cc6187b62d5812d4b427c33e8a000afb133f",
          "topics": [
            "0x7d5a649a0cee1e82345eaee0a79f44c313d7fff045298783e5b15dae8107f37b",
            "0x0000000000000000000000000000000000000000000000000000000000000000"
          ],
          "data": "0x00000000000000000000000000000000000000000000000000000000006643b0fffffffffffffffffffffffffffffffffffffffffffffffffffffffffb7fe2980000000000000000000000000000000000000000000000000000000000000bb80000000000000000000000000000000000000000000000000000000000000bb8",
          "blockHash": "0x56a13bbbed6fd2cdc6ccea4f1cab5cca202dd8ce63e8c08e9e3f4f2935809d18",
          "blockNumber": "0x9d2fc8",
          "blockTimestamp": "0x6998b230",
          "transactionHash": "0xe576b7032096625cacab8f8094db67962851945d51439760a2f612bf00137aaa",
          "transactionIndex": "0x6e",
          "logIndex": "0xef",
          "removed": false
        }
      ],
      "logsBloom": "0x00000000000000000000000000000000000000000000000000000000000004000000000000000000000000000002000008000000000000000000000000000000000000000000000000000008000000000000000000000000000000000000000000000000020000000001000000000800000000000000000000000010000000000000000000000000000000000000000000000000000000000000000000000000000000000000000000000000000000000000000000000000000000000004000000000002000000000000000000000000000000000000000000000000000020000000000080000000000000200080000000000000000000000020000000000000",
      "type": "0x2",
      "transactionHash": "0xe576b7032096625cacab8f8094db67962851945d51439760a2f612bf00137aaa",
      "transactionIndex": "0x6e",
      "blockHash": "0x56a13bbbed6fd2cdc6ccea4f1cab5cca202dd8ce63e8c08e9e3f4f2935809d18",
      "blockNumber": "0x9d2fc8",
      "gasUsed": "0x26207",
      "effectiveGasPrice": "0x5342233",
      "from": "0x42d0e25f42dd126d2c1ebc5592067303c4c0f7d3",
      "to": "0xe054cc6187b62d5812d4b427c33e8a000afb133f",
      "contractAddress": null
    },
    {
      "status": "0x1",
      "cumulativeGasUsed": "0x2de2aa1",
      "logs": [
        {
          "address": "0xe054cc6187b62d5812d4b427c33e8a000afb133f",
          "topics": [
            "0xddf252ad1be2c89b69c2b068fc378daa952ba7f163c4a11628f55a4df523b3ef",
            "0x0000000000000000000000000000000000000000000000000000000000000000",
            "0x00000000000000000000000042d0e25f42dd126d2c1ebc5592067303c4c0f7d3",
            "0x0000000000000000000000000000000000000000000000000000000000000001"
          ],
          "data": "0x",
          "blockHash": "0x56a13bbbed6fd2cdc6ccea4f1cab5cca202dd8ce63e8c08e9e3f4f2935809d18",
          "blockNumber": "0x9d2fc8",
          "blockTimestamp": "0x6998b230",
          "transactionHash": "0xe0239dbc1c39a4d00ee52913cab56fe3dbae75bf7a323ce22e736444b7ffab95",
          "transactionIndex": "0x6f",
          "logIndex": "0xf0",
          "removed": false
        },
        {
          "address": "0xe054cc6187b62d5812d4b427c33e8a000afb133f",
          "topics": [
            "0x7d5a649a0cee1e82345eaee0a79f44c313d7fff045298783e5b15dae8107f37b",
            "0x0000000000000000000000000000000000000000000000000000000000000001"
          ],
          "data": "0x00000000000000000000000000000000000000000000000000000000006643b0fffffffffffffffffffffffffffffffffffffffffffffffffffffffffb7fee500000000000000000000000000000000000000000000000000000000000000bb80000000000000000000000000000000000000000000000000000000000000bb8",
          "blockHash": "0x56a13bbbed6fd2cdc6ccea4f1cab5cca202dd8ce63e8c08e9e3f4f2935809d18",
          "blockNumber": "0x9d2fc8",
          "blockTimestamp": "0x6998b230",
          "transactionHash": "0xe0239dbc1c39a4d00ee52913cab56fe3dbae75bf7a323ce22e736444b7ffab95",
          "transactionIndex": "0x6f",
          "logIndex": "0xf1",
          "removed": false
        }
      ],
      "logsBloom": "0x00000000000000000000000000000000000000000000000000000000000004000000000000000000000000000002000008000000000000000000000000040000000000000000000000000008000000000000000000040000000000000000000000000000020000000001000000000800000000000000000000000010000000000000000000000000000000000000000000000000000000000000000000000000000000000000000000000000000000000000000000000000000000000004000000000002000000000000000000000000000000000000000000000000000060000000000080000000000000200080000000000000000000000020000000000000",
      "type": "0x2",
      "transactionHash": "0xe0239dbc1c39a4d00ee52913cab56fe3dbae75bf7a323ce22e736444b7ffab95",
      "transactionIndex": "0x6f",
      "blockHash": "0x56a13bbbed6fd2cdc6ccea4f1cab5cca202dd8ce63e8c08e9e3f4f2935809d18",
      "blockNumber": "0x9d2fc8",
      "gasUsed": "0x2d093",
      "effectiveGasPrice": "0x5342233",
      "from": "0x42d0e25f42dd126d2c1ebc5592067303c4c0f7d3",
      "to": "0xe054cc6187b62d5812d4b427c33e8a000afb133f",
      "contractAddress": null
    },
    {
      "status": "0x1",
      "cumulativeGasUsed": "0x2e0fb34",
      "logs": [
        {
          "address": "0xe054cc6187b62d5812d4b427c33e8a000afb133f",
          "topics": [
            "0xddf252ad1be2c89b69c2b068fc378daa952ba7f163c4a11628f55a4df523b3ef",
            "0x0000000000000000000000000000000000000000000000000000000000000000",
            "0x00000000000000000000000042d0e25f42dd126d2c1ebc5592067303c4c0f7d3",
            "0x0000000000000000000000000000000000000000000000000000000000000002"
          ],
          "data": "0x",
          "blockHash": "0x56a13bbbed6fd2cdc6ccea4f1cab5cca202dd8ce63e8c08e9e3f4f2935809d18",
          "blockNumber": "0x9d2fc8",
          "blockTimestamp": "0x6998b230",
          "transactionHash": "0x042bfb029dfbd5ea095495fd8ae5ffcc117b5bfb641ce1116da9cd3c68b17ee5",
          "transactionIndex": "0x70",
          "logIndex": "0xf2",
          "removed": false
        },
        {
          "address": "0xe054cc6187b62d5812d4b427c33e8a000afb133f",
          "topics": [
            "0x7d5a649a0cee1e82345eaee0a79f44c313d7fff045298783e5b15dae8107f37b",
            "0x0000000000000000000000000000000000000000000000000000000000000002"
          ],
          "data": "0x00000000000000000000000000000000000000000000000000000000006643b0fffffffffffffffffffffffffffffffffffffffffffffffffffffffffb7ffa080000000000000000000000000000000000000000000000000000000000000bb80000000000000000000000000000000000000000000000000000000000000bb8",
          "blockHash": "0x56a13bbbed6fd2cdc6ccea4f1cab5cca202dd8ce63e8c08e9e3f4f2935809d18",
          "blockNumber": "0x9d2fc8",
          "blockTimestamp": "0x6998b230",
          "transactionHash": "0x042bfb029dfbd5ea095495fd8ae5ffcc117b5bfb641ce1116da9cd3c68b17ee5",
          "transactionIndex": "0x70",
          "logIndex": "0xf3",
          "removed": false
        }
      ],
      "logsBloom": "0x04000000000000000000000000000000000000000000000000000000000004000000000000000000000000000002000008000000000000000000000000000000000000000000000000000008000000000000000000000000000000000000000000000000020000000001000000000800000000000000000000000010000000000000000000000000000000000000000000000000000000000000000000000000000000000000000000000100000000000000000000000000000000000004000000000002000000000000000000000000000000000000000000000000000020000000000080000000000000200080000000000000008000000020000000000000",
      "type": "0x2",
      "transactionHash": "0x042bfb029dfbd5ea095495fd8ae5ffcc117b5bfb641ce1116da9cd3c68b17ee5",
      "transactionIndex": "0x70",
      "blockHash": "0x56a13bbbed6fd2cdc6ccea4f1cab5cca202dd8ce63e8c08e9e3f4f2935809d18",
      "blockNumber": "0x9d2fc8",
      "gasUsed": "0x2d093",
      "effectiveGasPrice": "0x5342233",
      "from": "0x42d0e25f42dd126d2c1ebc5592067303c4c0f7d3",
      "to": "0xe054cc6187b62d5812d4b427c33e8a000afb133f",
      "contractAddress": null
    },
    {
      "status": "0x1",
      "cumulativeGasUsed": "0x2e3cbc7",
      "logs": [
        {
          "address": "0xe054cc6187b62d5812d4b427c33e8a000afb133f",
          "topics": [
            "0xddf252ad1be2c89b69c2b068fc378daa952ba7f163c4a11628f55a4df523b3ef",
            "0x0000000000000000000000000000000000000000000000000000000000000000",
            "0x00000000000000000000000042d0e25f42dd126d2c1ebc5592067303c4c0f7d3",
            "0x0000000000000000000000000000000000000000000000000000000000000003"
          ],
          "data": "0x",
          "blockHash": "0x56a13bbbed6fd2cdc6ccea4f1cab5cca202dd8ce63e8c08e9e3f4f2935809d18",
          "blockNumber": "0x9d2fc8",
          "blockTimestamp": "0x6998b230",
          "transactionHash": "0xc10d3c6448abfc7e42b477b0ec93ec8a052e39ec499894070bd07e14a4544fb0",
          "transactionIndex": "0x71",
          "logIndex": "0xf4",
          "removed": false
        },
        {
          "address": "0xe054cc6187b62d5812d4b427c33e8a000afb133f",
          "topics": [
            "0x7d5a649a0cee1e82345eaee0a79f44c313d7fff045298783e5b15dae8107f37b",
            "0x0000000000000000000000000000000000000000000000000000000000000003"
          ],
          "data": "0x00000000000000000000000000000000000000000000000000000000006643b0fffffffffffffffffffffffffffffffffffffffffffffffffffffffffb8005c00000000000000000000000000000000000000000000000000000000000000bb80000000000000000000000000000000000000000000000000000000000000bb8",
          "blockHash": "0x56a13bbbed6fd2cdc6ccea4f1cab5cca202dd8ce63e8c08e9e3f4f2935809d18",
          "blockNumber": "0x9d2fc8",
          "blockTimestamp": "0x6998b230",
          "transactionHash": "0xc10d3c6448abfc7e42b477b0ec93ec8a052e39ec499894070bd07e14a4544fb0",
          "transactionIndex": "0x71",
          "logIndex": "0xf5",
          "removed": false
        }
      ],
      "logsBloom": "0x00000000000000000000000000000000000000000000000000000000000004000000000000000000000000000002000008000000020000000000000000000000000000000000000000000008000000000000000000000000000000000000000000000000020000000001000000000800000000000000000000000010000000000000000000000000000000000000000000000000000000000000000000000000000000000000000000000000000000000000000000800000000000000004400000000002000000000000000000000000000000000000000000000000000020000000000080000000000000200080000000000000000000000020000000000000",
      "type": "0x2",
      "transactionHash": "0xc10d3c6448abfc7e42b477b0ec93ec8a052e39ec499894070bd07e14a4544fb0",
      "transactionIndex": "0x71",
      "blockHash": "0x56a13bbbed6fd2cdc6ccea4f1cab5cca202dd8ce63e8c08e9e3f4f2935809d18",
      "blockNumber": "0x9d2fc8",
      "gasUsed": "0x2d093",
      "effectiveGasPrice": "0x5342233",
      "from": "0x42d0e25f42dd126d2c1ebc5592067303c4c0f7d3",
      "to": "0xe054cc6187b62d5812d4b427c33e8a000afb133f",
      "contractAddress": null
    },
    {
      "status": "0x1",
      "cumulativeGasUsed": "0x2e69c5a",
      "logs": [
        {
          "address": "0xe054cc6187b62d5812d4b427c33e8a000afb133f",
          "topics": [
            "0xddf252ad1be2c89b69c2b068fc378daa952ba7f163c4a11628f55a4df523b3ef",
            "0x0000000000000000000000000000000000000000000000000000000000000000",
            "0x00000000000000000000000042d0e25f42dd126d2c1ebc5592067303c4c0f7d3",
            "0x0000000000000000000000000000000000000000000000000000000000000004"
          ],
          "data": "0x",
          "blockHash": "0x56a13bbbed6fd2cdc6ccea4f1cab5cca202dd8ce63e8c08e9e3f4f2935809d18",
          "blockNumber": "0x9d2fc8",
          "blockTimestamp": "0x6998b230",
          "transactionHash": "0xa06845cb62212d08b58e29845b4a53fc463c3f103feaa1dff56201cea0bc50ca",
          "transactionIndex": "0x72",
          "logIndex": "0xf6",
          "removed": false
        },
        {
          "address": "0xe054cc6187b62d5812d4b427c33e8a000afb133f",
          "topics": [
            "0x7d5a649a0cee1e82345eaee0a79f44c313d7fff045298783e5b15dae8107f37b",
            "0x0000000000000000000000000000000000000000000000000000000000000004"
          ],
          "data": "0x00000000000000000000000000000000000000000000000000000000006643b0fffffffffffffffffffffffffffffffffffffffffffffffffffffffffb8011780000000000000000000000000000000000000000000000000000000000000bb80000000000000000000000000000000000000000000000000000000000000bb8",
          "blockHash": "0x56a13bbbed6fd2cdc6ccea4f1cab5cca202dd8ce63e8c08e9e3f4f2935809d18",
          "blockNumber": "0x9d2fc8",
          "blockTimestamp": "0x6998b230",
          "transactionHash": "0xa06845cb62212d08b58e29845b4a53fc463c3f103feaa1dff56201cea0bc50ca",
          "transactionIndex": "0x72",
          "logIndex": "0xf7",
          "removed": false
        }
      ],
      "logsBloom": "0x00000000000000000000000000000000000000000000000000000000000004000000000000000000000000000002000008000000000000000000000000000000000000000000000000000008000000000000000000000000000000000000000008000000020000000001000000000800000000000000000000000010000000000000000000000000000000000000000000000000000000000000000000000000000000000000000000000000000000000000000000000000002000000004000000000002000000000000000000000000000000008000000000000000000020000000000080000000000000200080000000000000000000000020000000000000",
      "type": "0x2",
      "transactionHash": "0xa06845cb62212d08b58e29845b4a53fc463c3f103feaa1dff56201cea0bc50ca",
      "transactionIndex": "0x72",
      "blockHash": "0x56a13bbbed6fd2cdc6ccea4f1cab5cca202dd8ce63e8c08e9e3f4f2935809d18",
      "blockNumber": "0x9d2fc8",
      "gasUsed": "0x2d093",
      "effectiveGasPrice": "0x5342233",
      "from": "0x42d0e25f42dd126d2c1ebc5592067303c4c0f7d3",
      "to": "0xe054cc6187b62d5812d4b427c33e8a000afb133f",
      "contractAddress": null
    },
    {
      "status": "0x1",
      "cumulativeGasUsed": "0x2e96ced",
      "logs": [
        {
          "address": "0xe054cc6187b62d5812d4b427c33e8a000afb133f",
          "topics": [
            "0xddf252ad1be2c89b69c2b068fc378daa952ba7f163c4a11628f55a4df523b3ef",
            "0x0000000000000000000000000000000000000000000000000000000000000000",
            "0x00000000000000000000000042d0e25f42dd126d2c1ebc5592067303c4c0f7d3",
            "0x0000000000000000000000000000000000000000000000000000000000000005"
          ],
          "data": "0x",
          "blockHash": "0x56a13bbbed6fd2cdc6ccea4f1cab5cca202dd8ce63e8c08e9e3f4f2935809d18",
          "blockNumber": "0x9d2fc8",
          "blockTimestamp": "0x6998b230",
          "transactionHash": "0xa9a95e05d5e5826f3ad318dfac4f0d352b532d1ee429dee2675d73a767d42282",
          "transactionIndex": "0x73",
          "logIndex": "0xf8",
          "removed": false
        },
        {
          "address": "0xe054cc6187b62d5812d4b427c33e8a000afb133f",
          "topics": [
            "0x7d5a649a0cee1e82345eaee0a79f44c313d7fff045298783e5b15dae8107f37b",
            "0x0000000000000000000000000000000000000000000000000000000000000005"
          ],
          "data": "0x00000000000000000000000000000000000000000000000000000000006643b0fffffffffffffffffffffffffffffffffffffffffffffffffffffffffb801d300000000000000000000000000000000000000000000000000000000000000bb80000000000000000000000000000000000000000000000000000000000000bb8",
          "blockHash": "0x56a13bbbed6fd2cdc6ccea4f1cab5cca202dd8ce63e8c08e9e3f4f2935809d18",
          "blockNumber": "0x9d2fc8",
          "blockTimestamp": "0x6998b230",
          "transactionHash": "0xa9a95e05d5e5826f3ad318dfac4f0d352b532d1ee429dee2675d73a767d42282",
          "transactionIndex": "0x73",
          "logIndex": "0xf9",
          "removed": false
        }
      ],
      "logsBloom": "0x00000000000000000000000000000000000000000000000000000000000004000000000000000000000000000002000008000000000000000000000000000000000010000000000000000008000000000000000000000000000000000000000000000000020000000001000000000800000000000000000000000010000000000000000000000000000000000000001000000800000000000000000000000000000000000000000000000000000000000000000000000000000000000004000000000002000000000000000000000000000000000000000000000000000020000000000080000000000000200080000000000000000000000020000000000000",
      "type": "0x2",
      "transactionHash": "0xa9a95e05d5e5826f3ad318dfac4f0d352b532d1ee429dee2675d73a767d42282",
      "transactionIndex": "0x73",
      "blockHash": "0x56a13bbbed6fd2cdc6ccea4f1cab5cca202dd8ce63e8c08e9e3f4f2935809d18",
      "blockNumber": "0x9d2fc8",
      "gasUsed": "0x2d093",
      "effectiveGasPrice": "0x5342233",
      "from": "0x42d0e25f42dd126d2c1ebc5592067303c4c0f7d3",
      "to": "0xe054cc6187b62d5812d4b427c33e8a000afb133f",
      "contractAddress": null
    },
    {
      "status": "0x1",
      "cumulativeGasUsed": "0x2ec3d80",
      "logs": [
        {
          "address": "0xe054cc6187b62d5812d4b427c33e8a000afb133f",
          "topics": [
            "0xddf252ad1be2c89b69c2b068fc378daa952ba7f163c4a11628f55a4df523b3ef",
            "0x0000000000000000000000000000000000000000000000000000000000000000",
            "0x00000000000000000000000042d0e25f42dd126d2c1ebc5592067303c4c0f7d3",
            "0x0000000000000000000000000000000000000000000000000000000000000006"
          ],
          "data": "0x",
          "blockHash": "0x56a13bbbed6fd2cdc6ccea4f1cab5cca202dd8ce63e8c08e9e3f4f2935809d18",
          "blockNumber": "0x9d2fc8",
          "blockTimestamp": "0x6998b230",
          "transactionHash": "0x759b6ba3ca00678acbd23f864d2feb297fe213534446aad567229837fd8abf92",
          "transactionIndex": "0x74",
          "logIndex": "0xfa",
          "removed": false
        },
        {
          "address": "0xe054cc6187b62d5812d4b427c33e8a000afb133f",
          "topics": [
            "0x7d5a649a0cee1e82345eaee0a79f44c313d7fff045298783e5b15dae8107f37b",
            "0x0000000000000000000000000000000000000000000000000000000000000006"
          ],
          "data": "0x0000000000000000000000000000000000000000000000000000000000664f68fffffffffffffffffffffffffffffffffffffffffffffffffffffffffb7fe2980000000000000000000000000000000000000000000000000000000000000bb80000000000000000000000000000000000000000000000000000000000000bb8",
          "blockHash": "0x56a13bbbed6fd2cdc6ccea4f1cab5cca202dd8ce63e8c08e9e3f4f2935809d18",
          "blockNumber": "0x9d2fc8",
          "blockTimestamp": "0x6998b230",
          "transactionHash": "0x759b6ba3ca00678acbd23f864d2feb297fe213534446aad567229837fd8abf92",
          "transactionIndex": "0x74",
          "logIndex": "0xfb",
          "removed": false
        }
      ],
      "logsBloom": "0x00000000000000000000000000000000000000000000000000000000000004000000000000000000000000000002000008000000000400000000000000000000000000000000000000000008000000000000000000000000000000000000000000000000020000000001000000000800000000000000000000000010000000000000000400000000000000000000000000000000000000000000000000000000000000000000000000000000000000000000000000000000000000080004000000000002000000000000000000000000000000000000000000000000000020000000000080000000000000200080000000000000000000000020000000000000",
      "type": "0x2",
      "transactionHash": "0x759b6ba3ca00678acbd23f864d2feb297fe213534446aad567229837fd8abf92",
      "transactionIndex": "0x74",
      "blockHash": "0x56a13bbbed6fd2cdc6ccea4f1cab5cca202dd8ce63e8c08e9e3f4f2935809d18",
      "blockNumber": "0x9d2fc8",
      "gasUsed": "0x2d093",
      "effectiveGasPrice": "0x5342233",
      "from": "0x42d0e25f42dd126d2c1ebc5592067303c4c0f7d3",
      "to": "0xe054cc6187b62d5812d4b427c33e8a000afb133f",
      "contractAddress": null
    },
    {
      "status": "0x1",
      "cumulativeGasUsed": "0x2ef0e13",
      "logs": [
        {
          "address": "0xe054cc6187b62d5812d4b427c33e8a000afb133f",
          "topics": [
            "0xddf252ad1be2c89b69c2b068fc378daa952ba7f163c4a11628f55a4df523b3ef",
            "0x0000000000000000000000000000000000000000000000000000000000000000",
            "0x00000000000000000000000042d0e25f42dd126d2c1ebc5592067303c4c0f7d3",
            "0x0000000000000000000000000000000000000000000000000000000000000007"
          ],
          "data": "0x",
          "blockHash": "0x56a13bbbed6fd2cdc6ccea4f1cab5cca202dd8ce63e8c08e9e3f4f2935809d18",
          "blockNumber": "0x9d2fc8",
          "blockTimestamp": "0x6998b230",
          "transactionHash": "0xd742cd75fc1f5d94ef89afbc08ea23120e58b4d4c4b87c7bb1a45bcaa07c5860",
          "transactionIndex": "0x75",
          "logIndex": "0xfc",
          "removed": false
        },
        {
          "address": "0xe054cc6187b62d5812d4b427c33e8a000afb133f",
          "topics": [
            "0x7d5a649a0cee1e82345eaee0a79f44c313d7fff045298783e5b15dae8107f37b",
            "0x0000000000000000000000000000000000000000000000000000000000000007"
          ],
          "data": "0x0000000000000000000000000000000000000000000000000000000000664f68fffffffffffffffffffffffffffffffffffffffffffffffffffffffffb7fee500000000000000000000000000000000000000000000000000000000000000bb80000000000000000000000000000000000000000000000000000000000000bb8",
          "blockHash": "0x56a13bbbed6fd2cdc6ccea4f1cab5cca202dd8ce63e8c08e9e3f4f2935809d18",
          "blockNumber": "0x9d2fc8",
          "blockTimestamp": "0x6998b230",
          "transactionHash": "0xd742cd75fc1f5d94ef89afbc08ea23120e58b4d4c4b87c7bb1a45bcaa07c5860",
          "transactionIndex": "0x75",
          "logIndex": "0xfd",
          "removed": false
        }
      ],
      "logsBloom": "0x00000000000000000000000000000000000000000000000000000000000004000000000000000000000000000002000008001000000000000000000000000000000020000000000000000008000000000000000000000000000000000000000000000000020000000001000000000800000000000000000000000010000000000000000000000000000000000000000000000000000000000000000000000000000000000000000000000000000000000000000000000000000000000004000000000002000000000000000000000000000000000000000000000100000020000000000080000000000000200080000000000000000000000020000000000000",
      "type": "0x2",
      "transactionHash": "0xd742cd75fc1f5d94ef89afbc08ea23120e58b4d4c4b87c7bb1a45bcaa07c5860",
      "transactionIndex": "0x75",
      "blockHash": "0x56a13bbbed6fd2cdc6ccea4f1cab5cca202dd8ce63e8c08e9e3f4f2935809d18",
      "blockNumber": "0x9d2fc8",
      "gasUsed": "0x2d093",
      "effectiveGasPrice": "0x5342233",
      "from": "0x42d0e25f42dd126d2c1ebc5592067303c4c0f7d3",
      "to": "0xe054cc6187b62d5812d4b427c33e8a000afb133f",
      "contractAddress": null
    },
    {
      "status": "0x1",
      "cumulativeGasUsed": "0x2f1dea6",
      "logs": [
        {
          "address": "0xe054cc6187b62d5812d4b427c33e8a000afb133f",
          "topics": [
            "0xddf252ad1be2c89b69c2b068fc378daa952ba7f163c4a11628f55a4df523b3ef",
            "0x0000000000000000000000000000000000000000000000000000000000000000",
            "0x00000000000000000000000042d0e25f42dd126d2c1ebc5592067303c4c0f7d3",
            "0x0000000000000000000000000000000000000000000000000000000000000008"
          ],
          "data": "0x",
          "blockHash": "0x56a13bbbed6fd2cdc6ccea4f1cab5cca202dd8ce63e8c08e9e3f4f2935809d18",
          "blockNumber": "0x9d2fc8",
          "blockTimestamp": "0x6998b230",
          "transactionHash": "0xd2199cb374dad0a24eacadfa14202d5075f853db4c2eea10022dbce4df0b63b8",
          "transactionIndex": "0x76",
          "logIndex": "0xfe",
          "removed": false
        },
        {
          "address": "0xe054cc6187b62d5812d4b427c33e8a000afb133f",
          "topics": [
            "0x7d5a649a0cee1e82345eaee0a79f44c313d7fff045298783e5b15dae8107f37b",
            "0x0000000000000000000000000000000000000000000000000000000000000008"
          ],
          "data": "0x0000000000000000000000000000000000000000000000000000000000664f68fffffffffffffffffffffffffffffffffffffffffffffffffffffffffb7ffa080000000000000000000000000000000000000000000000000000000000000bb80000000000000000000000000000000000000000000000000000000000000bb8",
          "blockHash": "0x56a13bbbed6fd2cdc6ccea4f1cab5cca202dd8ce63e8c08e9e3f4f2935809d18",
          "blockNumber": "0x9d2fc8",
          "blockTimestamp": "0x6998b230",
          "transactionHash": "0xd2199cb374dad0a24eacadfa14202d5075f853db4c2eea10022dbce4df0b63b8",
          "transactionIndex": "0x76",
          "logIndex": "0xff",
          "removed": false
        }
      ],
      "logsBloom": "0x00000000000000000000000000000000000000000000000000000000000004000000000000000000000000000002000008000000000080000000000000000000000000000000000000000008000000000000000000000000000000000000000000000000020000000001000000000800000000000000000000000010000000000080000000000000000000000000000000000000000000000000000000000000000000000000000000000000000000000000000000000000000000000004000040000002000000000000000000000000000000000000000000000000000020000000000080000000000000200080000000000000000000000020000000000000",
      "type": "0x2",
      "transactionHash": "0xd2199cb374dad0a24eacadfa14202d5075f853db4c2eea10022dbce4df0b63b8",
      "transactionIndex": "0x76",
      "blockHash": "0x56a13bbbed6fd2cdc6ccea4f1cab5cca202dd8ce63e8c08e9e3f4f2935809d18",
      "blockNumber": "0x9d2fc8",
      "gasUsed": "0x2d093",
      "effectiveGasPrice": "0x5342233",
      "from": "0x42d0e25f42dd126d2c1ebc5592067303c4c0f7d3",
      "to": "0xe054cc6187b62d5812d4b427c33e8a000afb133f",
      "contractAddress": null
    },
    {
      "status": "0x1",
      "cumulativeGasUsed": "0x2f4af39",
      "logs": [
        {
          "address": "0xe054cc6187b62d5812d4b427c33e8a000afb133f",
          "topics": [
            "0xddf252ad1be2c89b69c2b068fc378daa952ba7f163c4a11628f55a4df523b3ef",
            "0x0000000000000000000000000000000000000000000000000000000000000000",
            "0x00000000000000000000000042d0e25f42dd126d2c1ebc5592067303c4c0f7d3",
            "0x0000000000000000000000000000000000000000000000000000000000000009"
          ],
          "data": "0x",
          "blockHash": "0x56a13bbbed6fd2cdc6ccea4f1cab5cca202dd8ce63e8c08e9e3f4f2935809d18",
          "blockNumber": "0x9d2fc8",
          "blockTimestamp": "0x6998b230",
          "transactionHash": "0xa1e829eea9435eaca7cafa2ebd265c5370cefc86b93aabc7d9700b672ecfe1ac",
          "transactionIndex": "0x77",
          "logIndex": "0x100",
          "removed": false
        },
        {
          "address": "0xe054cc6187b62d5812d4b427c33e8a000afb133f",
          "topics": [
            "0x7d5a649a0cee1e82345eaee0a79f44c313d7fff045298783e5b15dae8107f37b",
            "0x0000000000000000000000000000000000000000000000000000000000000009"
          ],
          "data": "0x0000000000000000000000000000000000000000000000000000000000664f68fffffffffffffffffffffffffffffffffffffffffffffffffffffffffb8005c00000000000000000000000000000000000000000000000000000000000000bb80000000000000000000000000000000000000000000000000000000000000bb8",
          "blockHash": "0x56a13bbbed6fd2cdc6ccea4f1cab5cca202dd8ce63e8c08e9e3f4f2935809d18",
          "blockNumber": "0x9d2fc8",
          "blockTimestamp": "0x6998b230",
          "transactionHash": "0xa1e829eea9435eaca7cafa2ebd265c5370cefc86b93aabc7d9700b672ecfe1ac",
          "transactionIndex": "0x77",
          "logIndex": "0x101",
          "removed": false
        }
      ],
      "logsBloom": "0x00000000000000000000000000000000000000000000000000000000000004000000000000000000000000000002000008000000000000000000000000200000000000000000000000000008000000000000000000000000000000000000000000000000020000000001000000000800000000000000000000000010000000000000000000000000000000000000000000001000000000000000000000000000000000000000000000000000000000000000000000000000000000000004000000000002000000000000000000000000000000000000000000000000000020000000000080000000000000200080000000000000000000000020000000800000",
      "type": "0x2",
      "transactionHash": "0xa1e829eea9435eaca7cafa2ebd265c5370cefc86b93aabc7d9700b672ecfe1ac",
      "transactionIndex": "0x77",
      "blockHash": "0x56a13bbbed6fd2cdc6ccea4f1cab5cca202dd8ce63e8c08e9e3f4f2935809d18",
      "blockNumber": "0x9d2fc8",
      "gasUsed": "0x2d093",
      "effectiveGasPrice": "0x5342233",
      "from": "0x42d0e25f42dd126d2c1ebc5592067303c4c0f7d3",
      "to": "0xe054cc6187b62d5812d4b427c33e8a000afb133f",
      "contractAddress": null
    },
    {
      "status": "0x1",
      "cumulativeGasUsed": "0x2f77fcc",
      "logs": [
        {
          "address": "0xe054cc6187b62d5812d4b427c33e8a000afb133f",
          "topics": [
            "0xddf252ad1be2c89b69c2b068fc378daa952ba7f163c4a11628f55a4df523b3ef",
            "0x0000000000000000000000000000000000000000000000000000000000000000",
            "0x00000000000000000000000042d0e25f42dd126d2c1ebc5592067303c4c0f7d3",
            "0x000000000000000000000000000000000000000000000000000000000000000a"
          ],
          "data": "0x",
          "blockHash": "0x56a13bbbed6fd2cdc6ccea4f1cab5cca202dd8ce63e8c08e9e3f4f2935809d18",
          "blockNumber": "0x9d2fc8",
          "blockTimestamp": "0x6998b230",
          "transactionHash": "0x0ae3a3ee3cecd7f9151728376df6a3ee077f2d09e54194b8e080f4f8c62261a7",
          "transactionIndex": "0x78",
          "logIndex": "0x102",
          "removed": false
        },
        {
          "address": "0xe054cc6187b62d5812d4b427c33e8a000afb133f",
          "topics": [
            "0x7d5a649a0cee1e82345eaee0a79f44c313d7fff045298783e5b15dae8107f37b",
            "0x000000000000000000000000000000000000000000000000000000000000000a"
          ],
          "data": "0x0000000000000000000000000000000000000000000000000000000000664f68fffffffffffffffffffffffffffffffffffffffffffffffffffffffffb8011780000000000000000000000000000000000000000000000000000000000000bb80000000000000000000000000000000000000000000000000000000000000bb8",
          "blockHash": "0x56a13bbbed6fd2cdc6ccea4f1cab5cca202dd8ce63e8c08e9e3f4f2935809d18",
          "blockNumber": "0x9d2fc8",
          "blockTimestamp": "0x6998b230",
          "transactionHash": "0x0ae3a3ee3cecd7f9151728376df6a3ee077f2d09e54194b8e080f4f8c62261a7",
          "transactionIndex": "0x78",
          "logIndex": "0x103",
          "removed": false
        }
      ],
      "logsBloom": "0x00000000000000000000000000000000000000000000000000000000000004000000000000000000000000000002000008000000040000000020000000000000000000000000000000000008000000000000000000000000000000000000000000000000020000000001000000000800000000000000000000000010000000000000000000000000010000000000000000000000000000000000000000000000000000000000000000000000000000000000000000000000000000000004000000000002000000000000000000000000000000000000000000000000000020000000000080000000000000200080000000000000000000000020000000000000",
      "type": "0x2",
      "transactionHash": "0x0ae3a3ee3cecd7f9151728376df6a3ee077f2d09e54194b8e080f4f8c62261a7",
      "transactionIndex": "0x78",
      "blockHash": "0x56a13bbbed6fd2cdc6ccea4f1cab5cca202dd8ce63e8c08e9e3f4f2935809d18",
      "blockNumber": "0x9d2fc8",
      "gasUsed": "0x2d093",
      "effectiveGasPrice": "0x5342233",
      "from": "0x42d0e25f42dd126d2c1ebc5592067303c4c0f7d3",
      "to": "0xe054cc6187b62d5812d4b427c33e8a000afb133f",
      "contractAddress": null
    },
    {
      "status": "0x1",
      "cumulativeGasUsed": "0x2fa505f",
      "logs": [
        {
          "address": "0xe054cc6187b62d5812d4b427c33e8a000afb133f",
          "topics": [
            "0xddf252ad1be2c89b69c2b068fc378daa952ba7f163c4a11628f55a4df523b3ef",
            "0x0000000000000000000000000000000000000000000000000000000000000000",
            "0x00000000000000000000000042d0e25f42dd126d2c1ebc5592067303c4c0f7d3",
            "0x000000000000000000000000000000000000000000000000000000000000000b"
          ],
          "data": "0x",
          "blockHash": "0x56a13bbbed6fd2cdc6ccea4f1cab5cca202dd8ce63e8c08e9e3f4f2935809d18",
          "blockNumber": "0x9d2fc8",
          "blockTimestamp": "0x6998b230",
          "transactionHash": "0xf962d5c33c6fecc7e3c7a6eec1c152428e9116bbc91e6c6456c1f77e89d1704d",
          "transactionIndex": "0x79",
          "logIndex": "0x104",
          "removed": false
        },
        {
          "address": "0xe054cc6187b62d5812d4b427c33e8a000afb133f",
          "topics": [
            "0x7d5a649a0cee1e82345eaee0a79f44c313d7fff045298783e5b15dae8107f37b",
            "0x000000000000000000000000000000000000000000000000000000000000000b"
          ],
          "data": "0x0000000000000000000000000000000000000000000000000000000000664f68fffffffffffffffffffffffffffffffffffffffffffffffffffffffffb801d300000000000000000000000000000000000000000000000000000000000000bb80000000000000000000000000000000000000000000000000000000000000bb8",
          "blockHash": "0x56a13bbbed6fd2cdc6ccea4f1cab5cca202dd8ce63e8c08e9e3f4f2935809d18",
          "blockNumber": "0x9d2fc8",
          "blockTimestamp": "0x6998b230",
          "transactionHash": "0xf962d5c33c6fecc7e3c7a6eec1c152428e9116bbc91e6c6456c1f77e89d1704d",
          "transactionIndex": "0x79",
          "logIndex": "0x105",
          "removed": false
        }
      ],
      "logsBloom": "0x00000000000000000000004000000000000000000000000000000000000004000000000000000000000000000002000008000000000000000000000000000000000000000000000000000008000000000000000000000000000000000000000000000000020000000001000000000800000000000000000000000010000000000000000000000000000000000000000000000000000000000000000000000000000000000000000000000000000000000000000000000000000000000004000000000002000000000000000000000000002000000000000000000000000020000000000080000000000000200080000000000000000000040020000000000000",
      "type": "0x2",
      "transactionHash": "0xf962d5c33c6fecc7e3c7a6eec1c152428e9116bbc91e6c6456c1f77e89d1704d",
      "transactionIndex": "0x79",
      "blockHash": "0x56a13bbbed6fd2cdc6ccea4f1cab5cca202dd8ce63e8c08e9e3f4f2935809d18",
      "blockNumber": "0x9d2fc8",
      "gasUsed": "0x2d093",
      "effectiveGasPrice": "0x5342233",
      "from": "0x42d0e25f42dd126d2c1ebc5592067303c4c0f7d3",
      "to": "0xe054cc6187b62d5812d4b427c33e8a000afb133f",
      "contractAddress": null
    },
    {
      "status": "0x1",
      "cumulativeGasUsed": "0x2fd20f2",
      "logs": [
        {
          "address": "0xe054cc6187b62d5812d4b427c33e8a000afb133f",
          "topics": [
            "0xddf252ad1be2c89b69c2b068fc378daa952ba7f163c4a11628f55a4df523b3ef",
            "0x0000000000000000000000000000000000000000000000000000000000000000",
            "0x00000000000000000000000042d0e25f42dd126d2c1ebc5592067303c4c0f7d3",
            "0x000000000000000000000000000000000000000000000000000000000000000c"
          ],
          "data": "0x",
          "blockHash": "0x56a13bbbed6fd2cdc6ccea4f1cab5cca202dd8ce63e8c08e9e3f4f2935809d18",
          "blockNumber": "0x9d2fc8",
          "blockTimestamp": "0x6998b230",
          "transactionHash": "0x6d2125b6d4b47d97995a1dc05b4e8b129f5b2724676752f0cca53485a5d459b1",
          "transactionIndex": "0x7a",
          "logIndex": "0x106",
          "removed": false
        },
        {
          "address": "0xe054cc6187b62d5812d4b427c33e8a000afb133f",
          "topics": [
            "0x7d5a649a0cee1e82345eaee0a79f44c313d7fff045298783e5b15dae8107f37b",
            "0x000000000000000000000000000000000000000000000000000000000000000c"
          ],
          "data": "0x0000000000000000000000000000000000000000000000000000000000665b20fffffffffffffffffffffffffffffffffffffffffffffffffffffffffb7fe2980000000000000000000000000000000000000000000000000000000000000bb80000000000000000000000000000000000000000000000000000000000000bb8",
          "blockHash": "0x56a13bbbed6fd2cdc6ccea4f1cab5cca202dd8ce63e8c08e9e3f4f2935809d18",
          "blockNumber": "0x9d2fc8",
          "blockTimestamp": "0x6998b230",
          "transactionHash": "0x6d2125b6d4b47d97995a1dc05b4e8b129f5b2724676752f0cca53485a5d459b1",
          "transactionIndex": "0x7a",
          "logIndex": "0x107",
          "removed": false
        }
      ],
      "logsBloom": "0x00000000000000000000000000000000000002000000000000000000000004000000000000000200000000000002000008000000000000000000000000000000000000000000000000000008000000000000000000000000000000000000000000000000020000000001000000000800000000000000000000000010000000000000000000000000000000000000000000000000000000000000000000000000000000000000000000000000000000000000000000000000000000000004000000000002000000000000000000000000000000000000000000000000000020200000000080000000000000200080000000000000000000000020000000000000",
      "type": "0x2",
      "transactionHash": "0x6d2125b6d4b47d97995a1dc05b4e8b129f5b2724676752f0cca53485a5d459b1",
      "transactionIndex": "0x7a",
      "blockHash": "0x56a13bbbed6fd2cdc6ccea4f1cab5cca202dd8ce63e8c08e9e3f4f2935809d18",
      "blockNumber": "0x9d2fc8",
      "gasUsed": "0x2d093",
      "effectiveGasPrice": "0x5342233",
      "from": "0x42d0e25f42dd126d2c1ebc5592067303c4c0f7d3",
      "to": "0xe054cc6187b62d5812d4b427c33e8a000afb133f",
      "contractAddress": null
    },
    {
      "status": "0x1",
      "cumulativeGasUsed": "0x2fff185",
      "logs": [
        {
          "address": "0xe054cc6187b62d5812d4b427c33e8a000afb133f",
          "topics": [
            "0xddf252ad1be2c89b69c2b068fc378daa952ba7f163c4a11628f55a4df523b3ef",
            "0x0000000000000000000000000000000000000000000000000000000000000000",
            "0x00000000000000000000000042d0e25f42dd126d2c1ebc5592067303c4c0f7d3",
            "0x000000000000000000000000000000000000000000000000000000000000000d"
          ],
          "data": "0x",
          "blockHash": "0x56a13bbbed6fd2cdc6ccea4f1cab5cca202dd8ce63e8c08e9e3f4f2935809d18",
          "blockNumber": "0x9d2fc8",
          "blockTimestamp": "0x6998b230",
          "transactionHash": "0x7ee03258358c35edca62a458a5c62576967cc6c08660cbce839f512067589f20",
          "transactionIndex": "0x7b",
          "logIndex": "0x108",
          "removed": false
        },
        {
          "address": "0xe054cc6187b62d5812d4b427c33e8a000afb133f",
          "topics": [
            "0x7d5a649a0cee1e82345eaee0a79f44c313d7fff045298783e5b15dae8107f37b",
            "0x000000000000000000000000000000000000000000000000000000000000000d"
          ],
          "data": "0x0000000000000000000000000000000000000000000000000000000000665b20fffffffffffffffffffffffffffffffffffffffffffffffffffffffffb7fee500000000000000000000000000000000000000000000000000000000000000bb80000000000000000000000000000000000000000000000000000000000000bb8",
          "blockHash": "0x56a13bbbed6fd2cdc6ccea4f1cab5cca202dd8ce63e8c08e9e3f4f2935809d18",
          "blockNumber": "0x9d2fc8",
          "blockTimestamp": "0x6998b230",
          "transactionHash": "0x7ee03258358c35edca62a458a5c62576967cc6c08660cbce839f512067589f20",
          "transactionIndex": "0x7b",
          "logIndex": "0x109",
          "removed": false
        }
      ],
      "logsBloom": "0x00000000000000000040000000000000000000000000000000000000000004000000000000000000000000000002000008000000000000000000000000000000000000000000000000000008000000000002000000000000000000000000000000000000020000000001000000000800000000000000000000000010000000000000000000000000000000000000000000000000000000000000000000000000000000000000000000000000000000000000000000000000000000000004000000000002000000000000000000000000000000000000000000000000000020020000000080000000000000200080000000000000000000000020000000000000",
      "type": "0x2",
      "transactionHash": "0x7ee03258358c35edca62a458a5c62576967cc6c08660cbce839f512067589f20",
      "transactionIndex": "0x7b",
      "blockHash": "0x56a13bbbed6fd2cdc6ccea4f1cab5cca202dd8ce63e8c08e9e3f4f2935809d18",
      "blockNumber": "0x9d2fc8",
      "gasUsed": "0x2d093",
      "effectiveGasPrice": "0x5342233",
      "from": "0x42d0e25f42dd126d2c1ebc5592067303c4c0f7d3",
      "to": "0xe054cc6187b62d5812d4b427c33e8a000afb133f",
      "contractAddress": null
    },
    {
      "status": "0x1",
      "cumulativeGasUsed": "0x302c218",
      "logs": [
        {
          "address": "0xe054cc6187b62d5812d4b427c33e8a000afb133f",
          "topics": [
            "0xddf252ad1be2c89b69c2b068fc378daa952ba7f163c4a11628f55a4df523b3ef",
            "0x0000000000000000000000000000000000000000000000000000000000000000",
            "0x00000000000000000000000042d0e25f42dd126d2c1ebc5592067303c4c0f7d3",
            "0x000000000000000000000000000000000000000000000000000000000000000e"
          ],
          "data": "0x",
          "blockHash": "0x56a13bbbed6fd2cdc6ccea4f1cab5cca202dd8ce63e8c08e9e3f4f2935809d18",
          "blockNumber": "0x9d2fc8",
          "blockTimestamp": "0x6998b230",
          "transactionHash": "0xdb12778371b911e149e9d2ab0ad942e53ec313a723d248280eda52a91d072719",
          "transactionIndex": "0x7c",
          "logIndex": "0x10a",
          "removed": false
        },
        {
          "address": "0xe054cc6187b62d5812d4b427c33e8a000afb133f",
          "topics": [
            "0x7d5a649a0cee1e82345eaee0a79f44c313d7fff045298783e5b15dae8107f37b",
            "0x000000000000000000000000000000000000000000000000000000000000000e"
          ],
          "data": "0x0000000000000000000000000000000000000000000000000000000000665b20fffffffffffffffffffffffffffffffffffffffffffffffffffffffffb7ffa080000000000000000000000000000000000000000000000000000000000000bb80000000000000000000000000000000000000000000000000000000000000bb8",
          "blockHash": "0x56a13bbbed6fd2cdc6ccea4f1cab5cca202dd8ce63e8c08e9e3f4f2935809d18",
          "blockNumber": "0x9d2fc8",
          "blockTimestamp": "0x6998b230",
          "transactionHash": "0xdb12778371b911e149e9d2ab0ad942e53ec313a723d248280eda52a91d072719",
          "transactionIndex": "0x7c",
          "logIndex": "0x10b",
          "removed": false
        }
      ],
      "logsBloom": "0x00000000000000000000000000000000000000000000000000000000000004000000000000000000000000000002000008000000000000000000000000000000000000000000000800000008000000000000000000000000000000000000000000000000020000000001000000000800000000000000000000000010000000000000000000000000000000000000000008000000000000000000000000000000000000000000000000000000000000000000000000000020000000000004000000000002000000000000000000000000000000000000000000000000000020000000000080000000000000200080000000000000000000000020000000000000",
      "type": "0x2",
      "transactionHash": "0xdb12778371b911e149e9d2ab0ad942e53ec313a723d248280eda52a91d072719",
      "transactionIndex": "0x7c",
      "blockHash": "0x56a13bbbed6fd2cdc6ccea4f1cab5cca202dd8ce63e8c08e9e3f4f2935809d18",
      "blockNumber": "0x9d2fc8",
      "gasUsed": "0x2d093",
      "effectiveGasPrice": "0x5342233",
      "from": "0x42d0e25f42dd126d2c1ebc5592067303c4c0f7d3",
      "to": "0xe054cc6187b62d5812d4b427c33e8a000afb133f",
      "contractAddress": null
    },
    {
      "status": "0x1",
      "cumulativeGasUsed": "0x30592ab",
      "logs": [
        {
          "address": "0xe054cc6187b62d5812d4b427c33e8a000afb133f",
          "topics": [
            "0xddf252ad1be2c89b69c2b068fc378daa952ba7f163c4a11628f55a4df523b3ef",
            "0x0000000000000000000000000000000000000000000000000000000000000000",
            "0x00000000000000000000000042d0e25f42dd126d2c1ebc5592067303c4c0f7d3",
            "0x000000000000000000000000000000000000000000000000000000000000000f"
          ],
          "data": "0x",
          "blockHash": "0x56a13bbbed6fd2cdc6ccea4f1cab5cca202dd8ce63e8c08e9e3f4f2935809d18",
          "blockNumber": "0x9d2fc8",
          "blockTimestamp": "0x6998b230",
          "transactionHash": "0x142c82c52a7c877d950dac9c07c639a0dc08aee1f0ae1bff915d849ca3dd35d9",
          "transactionIndex": "0x7d",
          "logIndex": "0x10c",
          "removed": false
        },
        {
          "address": "0xe054cc6187b62d5812d4b427c33e8a000afb133f",
          "topics": [
            "0x7d5a649a0cee1e82345eaee0a79f44c313d7fff045298783e5b15dae8107f37b",
            "0x000000000000000000000000000000000000000000000000000000000000000f"
          ],
          "data": "0x0000000000000000000000000000000000000000000000000000000000665b20fffffffffffffffffffffffffffffffffffffffffffffffffffffffffb8005c00000000000000000000000000000000000000000000000000000000000000bb80000000000000000000000000000000000000000000000000000000000000bb8",
          "blockHash": "0x56a13bbbed6fd2cdc6ccea4f1cab5cca202dd8ce63e8c08e9e3f4f2935809d18",
          "blockNumber": "0x9d2fc8",
          "blockTimestamp": "0x6998b230",
          "transactionHash": "0x142c82c52a7c877d950dac9c07c639a0dc08aee1f0ae1bff915d849ca3dd35d9",
          "transactionIndex": "0x7d",
          "logIndex": "0x10d",
          "removed": false
        }
      ],
      "logsBloom": "0x00000000000000000000000000000000000000000000000000000000000004000000000000000000000000000002000008000000000000000000000000000000000000000000000000000008000000000000000000000000000000000002000000000000020000000001000000000800000000000000000000000010000000000000000000000800000000000000000000000000000000000000000000000000000000000000000000000000000000000000000000000000000000000004000000000002000000000000000000000000000000000000000000000000000020000000000280000000000000200080000000000000000000000020000000000000",
      "type": "0x2",
      "transactionHash": "0x142c82c52a7c877d950dac9c07c639a0dc08aee1f0ae1bff915d849ca3dd35d9",
      "transactionIndex": "0x7d",
      "blockHash": "0x56a13bbbed6fd2cdc6ccea4f1cab5cca202dd8ce63e8c08e9e3f4f2935809d18",
      "blockNumber": "0x9d2fc8",
      "gasUsed": "0x2d093",
      "effectiveGasPrice": "0x5342233",
      "from": "0x42d0e25f42dd126d2c1ebc5592067303c4c0f7d3",
      "to": "0xe054cc6187b62d5812d4b427c33e8a000afb133f",
      "contractAddress": null
    },
    {
      "status": "0x1",
      "cumulativeGasUsed": "0x308633e",
      "logs": [
        {
          "address": "0xe054cc6187b62d5812d4b427c33e8a000afb133f",
          "topics": [
            "0xddf252ad1be2c89b69c2b068fc378daa952ba7f163c4a11628f55a4df523b3ef",
            "0x0000000000000000000000000000000000000000000000000000000000000000",
            "0x00000000000000000000000042d0e25f42dd126d2c1ebc5592067303c4c0f7d3",
            "0x0000000000000000000000000000000000000000000000000000000000000010"
          ],
          "data": "0x",
          "blockHash": "0x56a13bbbed6fd2cdc6ccea4f1cab5cca202dd8ce63e8c08e9e3f4f2935809d18",
          "blockNumber": "0x9d2fc8",
          "blockTimestamp": "0x6998b230",
          "transactionHash": "0x696f2262552f05457a8205404ab54f1097babc0f677c238194571938faacd9a9",
          "transactionIndex": "0x7e",
          "logIndex": "0x10e",
          "removed": false
        },
        {
          "address": "0xe054cc6187b62d5812d4b427c33e8a000afb133f",
          "topics": [
            "0x7d5a649a0cee1e82345eaee0a79f44c313d7fff045298783e5b15dae8107f37b",
            "0x0000000000000000000000000000000000000000000000000000000000000010"
          ],
          "data": "0x0000000000000000000000000000000000000000000000000000000000665b20fffffffffffffffffffffffffffffffffffffffffffffffffffffffffb8011780000000000000000000000000000000000000000000000000000000000000bb80000000000000000000000000000000000000000000000000000000000000bb8",
          "blockHash": "0x56a13bbbed6fd2cdc6ccea4f1cab5cca202dd8ce63e8c08e9e3f4f2935809d18",
          "blockNumber": "0x9d2fc8",
          "blockTimestamp": "0x6998b230",
          "transactionHash": "0x696f2262552f05457a8205404ab54f1097babc0f677c238194571938faacd9a9",
          "transactionIndex": "0x7e",
          "logIndex": "0x10f",
          "removed": false
        }
      ],
      "logsBloom": "0x00000000100000000000000000000000000000000000000000000000000004000000000000000000000000000002000008000000000000000000000000000000000000000000000000000008000000000000000000000000000000000000000000000000020000000001000000000800000000000000000000000010040000000000000000000000000000000000000000000100000000000000000000000000000000000000000000000000000000000000000000000000000000000004000000000002000000000000000000000000000000000000000000000000000020000000000080000000000000200080000000000000000000000020000000000000",
      "type": "0x2",
      "transactionHash": "0x696f2262552f05457a8205404ab54f1097babc0f677c238194571938faacd9a9",
      "transactionIndex": "0x7e",
      "blockHash": "0x56a13bbbed6fd2cdc6ccea4f1cab5cca202dd8ce63e8c08e9e3f4f2935809d18",
      "blockNumber": "0x9d2fc8",
      "gasUsed": "0x2d093",
      "effectiveGasPrice": "0x5342233",
      "from": "0x42d0e25f42dd126d2c1ebc5592067303c4c0f7d3",
      "to": "0xe054cc6187b62d5812d4b427c33e8a000afb133f",
      "contractAddress": null
    },
    {
      "status": "0x1",
      "cumulativeGasUsed": "0x30b33d1",
      "logs": [
        {
          "address": "0xe054cc6187b62d5812d4b427c33e8a000afb133f",
          "topics": [
            "0xddf252ad1be2c89b69c2b068fc378daa952ba7f163c4a11628f55a4df523b3ef",
            "0x0000000000000000000000000000000000000000000000000000000000000000",
            "0x00000000000000000000000042d0e25f42dd126d2c1ebc5592067303c4c0f7d3",
            "0x0000000000000000000000000000000000000000000000000000000000000011"
          ],
          "data": "0x",
          "blockHash": "0x56a13bbbed6fd2cdc6ccea4f1cab5cca202dd8ce63e8c08e9e3f4f2935809d18",
          "blockNumber": "0x9d2fc8",
          "blockTimestamp": "0x6998b230",
          "transactionHash": "0x94a1d8d7ce3022444f163d2c8e1b5f1aedec677787f440a6184963542c6bce83",
          "transactionIndex": "0x7f",
          "logIndex": "0x110",
          "removed": false
        },
        {
          "address": "0xe054cc6187b62d5812d4b427c33e8a000afb133f",
          "topics": [
            "0x7d5a649a0cee1e82345eaee0a79f44c313d7fff045298783e5b15dae8107f37b",
            "0x0000000000000000000000000000000000000000000000000000000000000011"
          ],
          "data": "0x0000000000000000000000000000000000000000000000000000000000665b20fffffffffffffffffffffffffffffffffffffffffffffffffffffffffb801d300000000000000000000000000000000000000000000000000000000000000bb80000000000000000000000000000000000000000000000000000000000000bb8",
          "blockHash": "0x56a13bbbed6fd2cdc6ccea4f1cab5cca202dd8ce63e8c08e9e3f4f2935809d18",
          "blockNumber": "0x9d2fc8",
          "blockTimestamp": "0x6998b230",
          "transactionHash": "0x94a1d8d7ce3022444f163d2c8e1b5f1aedec677787f440a6184963542c6bce83",
          "transactionIndex": "0x7f",
          "logIndex": "0x111",
          "removed": false
        }
      ],
      "logsBloom": "0x00000000000000000000000000000000000000000000000000000000000004000000000000000000000000000002000008000000000000000000000000000000000000000000000000000008000000000000000000000000000000000000000000000000020000000001000000000800000000004000000000000010000000000000000000000000000000000000000000000000000000000000000000000000000000000000000000000000000000000000000000000000000000000404000000001002000000000000000000000000000000000000000000000000000020000000000080000000000000200080000000000000000000000020000000000000",
      "type": "0x2",
      "transactionHash": "0x94a1d8d7ce3022444f163d2c8e1b5f1aedec677787f440a6184963542c6bce83",
      "transactionIndex": "0x7f",
      "blockHash": "0x56a13bbbed6fd2cdc6ccea4f1cab5cca202dd8ce63e8c08e9e3f4f2935809d18",
      "blockNumber": "0x9d2fc8",
      "gasUsed": "0x2d093",
      "effectiveGasPrice": "0x5342233",
      "from": "0x42d0e25f42dd126d2c1ebc5592067303c4c0f7d3",
      "to": "0xe054cc6187b62d5812d4b427c33e8a000afb133f",
      "contractAddress": null
    },
    {
      "status": "0x1",
      "cumulativeGasUsed": "0x30e0464",
      "logs": [
        {
          "address": "0xe054cc6187b62d5812d4b427c33e8a000afb133f",
          "topics": [
            "0xddf252ad1be2c89b69c2b068fc378daa952ba7f163c4a11628f55a4df523b3ef",
            "0x0000000000000000000000000000000000000000000000000000000000000000",
            "0x00000000000000000000000042d0e25f42dd126d2c1ebc5592067303c4c0f7d3",
            "0x0000000000000000000000000000000000000000000000000000000000000012"
          ],
          "data": "0x",
          "blockHash": "0x56a13bbbed6fd2cdc6ccea4f1cab5cca202dd8ce63e8c08e9e3f4f2935809d18",
          "blockNumber": "0x9d2fc8",
          "blockTimestamp": "0x6998b230",
          "transactionHash": "0x9dfe0e5341029c7c02829ee6b7c5ae73b41c6ad3842f3639f667eb79b8dec52d",
          "transactionIndex": "0x80",
          "logIndex": "0x112",
          "removed": false
        },
        {
          "address": "0xe054cc6187b62d5812d4b427c33e8a000afb133f",
          "topics": [
            "0x7d5a649a0cee1e82345eaee0a79f44c313d7fff045298783e5b15dae8107f37b",
            "0x0000000000000000000000000000000000000000000000000000000000000012"
          ],
          "data": "0x00000000000000000000000000000000000000000000000000000000006666d8fffffffffffffffffffffffffffffffffffffffffffffffffffffffffb7fe2980000000000000000000000000000000000000000000000000000000000000bb80000000000000000000000000000000000000000000000000000000000000bb8",
          "blockHash": "0x56a13bbbed6fd2cdc6ccea4f1cab5cca202dd8ce63e8c08e9e3f4f2935809d18",
          "blockNumber": "0x9d2fc8",
          "blockTimestamp": "0x6998b230",
          "transactionHash": "0x9dfe0e5341029c7c02829ee6b7c5ae73b41c6ad3842f3639f667eb79b8dec52d",
          "transactionIndex": "0x80",
          "logIndex": "0x113",
          "removed": false
        }
      ],
      "logsBloom": "0x00000000000000000000000000000000000000000000000000000000000004000000000000000000000000000002000008000000000000000000000000000000000000000000000000000008000000000000000000000000000000000000000000000000020000000001000000000800000000000000000000000010000000000000000000000000000000000000040000000000000000000000000000000000000000000000000000000000000000000000000000000040000000000004000000000002000000000400000000000000000000000000000000000000000020000000000080000000000000200080000000000000000000000020000000000000",
      "type": "0x2",
      "transactionHash": "0x9dfe0e5341029c7c02829ee6b7c5ae73b41c6ad3842f3639f667eb79b8dec52d",
      "transactionIndex": "0x80",
      "blockHash": "0x56a13bbbed6fd2cdc6ccea4f1cab5cca202dd8ce63e8c08e9e3f4f2935809d18",
      "blockNumber": "0x9d2fc8",
      "gasUsed": "0x2d093",
      "effectiveGasPrice": "0x5342233",
      "from": "0x42d0e25f42dd126d2c1ebc5592067303c4c0f7d3",
      "to": "0xe054cc6187b62d5812d4b427c33e8a000afb133f",
      "contractAddress": null
    },
    {
      "status": "0x1",
      "cumulativeGasUsed": "0x310d4f7",
      "logs": [
        {
          "address": "0xe054cc6187b62d5812d4b427c33e8a000afb133f",
          "topics": [
            "0xddf252ad1be2c89b69c2b068fc378daa952ba7f163c4a11628f55a4df523b3ef",
            "0x0000000000000000000000000000000000000000000000000000000000000000",
            "0x00000000000000000000000042d0e25f42dd126d2c1ebc5592067303c4c0f7d3",
            "0x0000000000000000000000000000000000000000000000000000000000000013"
          ],
          "data": "0x",
          "blockHash": "0x56a13bbbed6fd2cdc6ccea4f1cab5cca202dd8ce63e8c08e9e3f4f2935809d18",
          "blockNumber": "0x9d2fc8",
          "blockTimestamp": "0x6998b230",
          "transactionHash": "0xff888f5a0f7147b4afeb30d1687d5f88969511a54f5b4350ad08b9e59744d69d",
          "transactionIndex": "0x81",
          "logIndex": "0x114",
          "removed": false
        },
        {
          "address": "0xe054cc6187b62d5812d4b427c33e8a000afb133f",
          "topics": [
            "0x7d5a649a0cee1e82345eaee0a79f44c313d7fff045298783e5b15dae8107f37b",
            "0x0000000000000000000000000000000000000000000000000000000000000013"
          ],
          "data": "0x00000000000000000000000000000000000000000000000000000000006666d8fffffffffffffffffffffffffffffffffffffffffffffffffffffffffb7fee500000000000000000000000000000000000000000000000000000000000000bb80000000000000000000000000000000000000000000000000000000000000bb8",
          "blockHash": "0x56a13bbbed6fd2cdc6ccea4f1cab5cca202dd8ce63e8c08e9e3f4f2935809d18",
          "blockNumber": "0x9d2fc8",
          "blockTimestamp": "0x6998b230",
          "transactionHash": "0xff888f5a0f7147b4afeb30d1687d5f88969511a54f5b4350ad08b9e59744d69d",
          "transactionIndex": "0x81",
          "logIndex": "0x115",
          "removed": false
        }
      ],
      "logsBloom": "0x20000000000000000000000000800000000000000000000000000000000004000000000040000000000000000002000008000000000000000000000000000000000000000000000000000008000000000000000000000000000000000000000000000000020000000001000000000800000000000000000000000010000000000000000000000000000000000000000000000000000000000000000000000000000000000000000000000000000000000000000000000000000000000004000000000002000000000000000000000000000000000000000000000000000020000000000080000000000000200080000000000000000000000020000000000000",
      "type": "0x2",
      "transactionHash": "0xff888f5a0f7147b4afeb30d1687d5f88969511a54f5b4350ad08b9e59744d69d",
      "transactionIndex": "0x81",
      "blockHash": "0x56a13bbbed6fd2cdc6ccea4f1cab5cca202dd8ce63e8c08e9e3f4f2935809d18",
      "blockNumber": "0x9d2fc8",
      "gasUsed": "0x2d093",
      "effectiveGasPrice": "0x5342233",
      "from": "0x42d0e25f42dd126d2c1ebc5592067303c4c0f7d3",
      "to": "0xe054cc6187b62d5812d4b427c33e8a000afb133f",
      "contractAddress": null
    },
    {
      "status": "0x1",
      "cumulativeGasUsed": "0x313a58a",
      "logs": [
        {
          "address": "0xe054cc6187b62d5812d4b427c33e8a000afb133f",
          "topics": [
            "0xddf252ad1be2c89b69c2b068fc378daa952ba7f163c4a11628f55a4df523b3ef",
            "0x0000000000000000000000000000000000000000000000000000000000000000",
            "0x00000000000000000000000042d0e25f42dd126d2c1ebc5592067303c4c0f7d3",
            "0x0000000000000000000000000000000000000000000000000000000000000014"
          ],
          "data": "0x",
          "blockHash": "0x56a13bbbed6fd2cdc6ccea4f1cab5cca202dd8ce63e8c08e9e3f4f2935809d18",
          "blockNumber": "0x9d2fc8",
          "blockTimestamp": "0x6998b230",
          "transactionHash": "0x6b0043a390730efabac46d8c16ff4246f42148a6dcaaba9538588b149129b84c",
          "transactionIndex": "0x82",
          "logIndex": "0x116",
          "removed": false
        },
        {
          "address": "0xe054cc6187b62d5812d4b427c33e8a000afb133f",
          "topics": [
            "0x7d5a649a0cee1e82345eaee0a79f44c313d7fff045298783e5b15dae8107f37b",
            "0x0000000000000000000000000000000000000000000000000000000000000014"
          ],
          "data": "0x00000000000000000000000000000000000000000000000000000000006666d8fffffffffffffffffffffffffffffffffffffffffffffffffffffffffb7ffa080000000000000000000000000000000000000000000000000000000000000bb80000000000000000000000000000000000000000000000000000000000000bb8",
          "blockHash": "0x56a13bbbed6fd2cdc6ccea4f1cab5cca202dd8ce63e8c08e9e3f4f2935809d18",
          "blockNumber": "0x9d2fc8",
          "blockTimestamp": "0x6998b230",
          "transactionHash": "0x6b0043a390730efabac46d8c16ff4246f42148a6dcaaba9538588b149129b84c",
          "transactionIndex": "0x82",
          "logIndex": "0x117",
          "removed": false
        }
      ],
      "logsBloom": "0x00000000000000000000000000000000000000000000000000000000000004000000000000000000000000000002000008002000000000000000000000000000000000000000000000000008000000000000000000000000000000000000000000000000020000000001000000000800000000000000000000000010000000000000000000000000000000000000000000000000000400000000000000000000000000000000000020000000000000000000000000000000000000000004000000000002000000000000000000000000000000000000000000000000000020000000000080000000000000200080000000000000000000000020000000000000",
      "type": "0x2",
      "transactionHash": "0x6b0043a390730efabac46d8c16ff4246f42148a6dcaaba9538588b149129b84c",
      "transactionIndex": "0x82",
      "blockHash": "0x56a13bbbed6fd2cdc6ccea4f1cab5cca202dd8ce63e8c08e9e3f4f2935809d18",
      "blockNumber": "0x9d2fc8",
      "gasUsed": "0x2d093",
      "effectiveGasPrice": "0x5342233",
      "from": "0x42d0e25f42dd126d2c1ebc5592067303c4c0f7d3",
      "to": "0xe054cc6187b62d5812d4b427c33e8a000afb133f",
      "contractAddress": null
    },
    {
      "status": "0x1",
      "cumulativeGasUsed": "0x316761d",
      "logs": [
        {
          "address": "0xe054cc6187b62d5812d4b427c33e8a000afb133f",
          "topics": [
            "0xddf252ad1be2c89b69c2b068fc378daa952ba7f163c4a11628f55a4df523b3ef",
            "0x0000000000000000000000000000000000000000000000000000000000000000",
            "0x00000000000000000000000042d0e25f42dd126d2c1ebc5592067303c4c0f7d3",
            "0x0000000000000000000000000000000000000000000000000000000000000015"
          ],
          "data": "0x",
          "blockHash": "0x56a13bbbed6fd2cdc6ccea4f1cab5cca202dd8ce63e8c08e9e3f4f2935809d18",
          "blockNumber": "0x9d2fc8",
          "blockTimestamp": "0x6998b230",
          "transactionHash": "0x5dd2484b685863d52e39b8792d25aa7c5a426bd85366e642abc43d5abf478be0",
          "transactionIndex": "0x83",
          "logIndex": "0x118",
          "removed": false
        },
        {
          "address": "0xe054cc6187b62d5812d4b427c33e8a000afb133f",
          "topics": [
            "0x7d5a649a0cee1e82345eaee0a79f44c313d7fff045298783e5b15dae8107f37b",
            "0x0000000000000000000000000000000000000000000000000000000000000015"
          ],
          "data": "0x00000000000000000000000000000000000000000000000000000000006666d8fffffffffffffffffffffffffffffffffffffffffffffffffffffffffb8005c00000000000000000000000000000000000000000000000000000000000000bb80000000000000000000000000000000000000000000000000000000000000bb8",
          "blockHash": "0x56a13bbbed6fd2cdc6ccea4f1cab5cca202dd8ce63e8c08e9e3f4f2935809d18",
          "blockNumber": "0x9d2fc8",
          "blockTimestamp": "0x6998b230",
          "transactionHash": "0x5dd2484b685863d52e39b8792d25aa7c5a426bd85366e642abc43d5abf478be0",
          "transactionIndex": "0x83",
          "logIndex": "0x119",
          "removed": false
        }
      ],
      "logsBloom": "0x00000000000000000000000000000000000000000000000000000000000004000000000000000000000000000002000008000000000000000000000000000000001000000000000000000008000000000000000000000000000000000000000000000000020000000001000000000800000000000000000000000010000000000000000000000000000000000000000000000000000000000000000000000000000000000000000000000000010000000000000000000000000000000004000000000002000000000000000000000000000000000000000000000000000020002000000080000000000000200080000000000000000000000020000000000000",
      "type": "0x2",
      "transactionHash": "0x5dd2484b685863d52e39b8792d25aa7c5a426bd85366e642abc43d5abf478be0",
      "transactionIndex": "0x83",
      "blockHash": "0x56a13bbbed6fd2cdc6ccea4f1cab5cca202dd8ce63e8c08e9e3f4f2935809d18",
      "blockNumber": "0x9d2fc8",
      "gasUsed": "0x2d093",
      "effectiveGasPrice": "0x5342233",
      "from": "0x42d0e25f42dd126d2c1ebc5592067303c4c0f7d3",
      "to": "0xe054cc6187b62d5812d4b427c33e8a000afb133f",
      "contractAddress": null
    },
    {
      "status": "0x1",
      "cumulativeGasUsed": "0x31946b0",
      "logs": [
        {
          "address": "0xe054cc6187b62d5812d4b427c33e8a000afb133f",
          "topics": [
            "0xddf252ad1be2c89b69c2b068fc378daa952ba7f163c4a11628f55a4df523b3ef",
            "0x0000000000000000000000000000000000000000000000000000000000000000",
            "0x00000000000000000000000042d0e25f42dd126d2c1ebc5592067303c4c0f7d3",
            "0x0000000000000000000000000000000000000000000000000000000000000016"
          ],
          "data": "0x",
          "blockHash": "0x56a13bbbed6fd2cdc6ccea4f1cab5cca202dd8ce63e8c08e9e3f4f2935809d18",
          "blockNumber": "0x9d2fc8",
          "blockTimestamp": "0x6998b230",
          "transactionHash": "0xac5b71c257f0cce7e9e9d2638e27cba42b8bd53c05b239bc946dbb83bb9e9799",
          "transactionIndex": "0x84",
          "logIndex": "0x11a",
          "removed": false
        },
        {
          "address": "0xe054cc6187b62d5812d4b427c33e8a000afb133f",
          "topics": [
            "0x7d5a649a0cee1e82345eaee0a79f44c313d7fff045298783e5b15dae8107f37b",
            "0x0000000000000000000000000000000000000000000000000000000000000016"
          ],
          "data": "0x00000000000000000000000000000000000000000000000000000000006666d8fffffffffffffffffffffffffffffffffffffffffffffffffffffffffb8011780000000000000000000000000000000000000000000000000000000000000bb80000000000000000000000000000000000000000000000000000000000000bb8",
          "blockHash": "0x56a13bbbed6fd2cdc6ccea4f1cab5cca202dd8ce63e8c08e9e3f4f2935809d18",
          "blockNumber": "0x9d2fc8",
          "blockTimestamp": "0x6998b230",
          "transactionHash": "0xac5b71c257f0cce7e9e9d2638e27cba42b8bd53c05b239bc946dbb83bb9e9799",
          "transactionIndex": "0x84",
          "logIndex": "0x11b",
          "removed": false
        }
      ],
      "logsBloom": "0x00000000000000000000000000000000000000000000000000000000000004000000000000000000000000000002000008000000000000000000000000000000000000000000000800000008000000000000000000000000000000000000000000000000020000000001000000000800200000000000000000000010000000000000000000000000000000000000000000000000000000000000000000000000000000000000000000000000000000000000000000000000000000000004000000000002000000000000000000000000000000000000000000000000000020000000000080000000000000200080000000000000000000000028000000000000",
      "type": "0x2",
      "transactionHash": "0xac5b71c257f0cce7e9e9d2638e27cba42b8bd53c05b239bc946dbb83bb9e9799",
      "transactionIndex": "0x84",
      "blockHash": "0x56a13bbbed6fd2cdc6ccea4f1cab5cca202dd8ce63e8c08e9e3f4f2935809d18",
      "blockNumber": "0x9d2fc8",
      "gasUsed": "0x2d093",
      "effectiveGasPrice": "0x5342233",
      "from": "0x42d0e25f42dd126d2c1ebc5592067303c4c0f7d3",
      "to": "0xe054cc6187b62d5812d4b427c33e8a000afb133f",
      "contractAddress": null
    },
    {
      "status": "0x1",
      "cumulativeGasUsed": "0x1c603d9",
      "logs": [
        {
          "address": "0xe054cc6187b62d5812d4b427c33e8a000afb133f",
          "topics": [
            "0xddf252ad1be2c89b69c2b068fc378daa952ba7f163c4a11628f55a4df523b3ef",
            "0x0000000000000000000000000000000000000000000000000000000000000000",
            "0x00000000000000000000000042d0e25f42dd126d2c1ebc5592067303c4c0f7d3",
            "0x0000000000000000000000000000000000000000000000000000000000000017"
          ],
          "data": "0x",
          "blockHash": "0xc4ab1d1cfe3d2aa1987515bf3df39543076c6d54804f29481a484f72f99ecb1b",
          "blockNumber": "0x9d2fca",
          "blockTimestamp": "0x6998b248",
          "transactionHash": "0x19c55a8fceac511d890a262ab1f6b633608dc7584c19767455d7cfe3b0083385",
          "transactionIndex": "0x5c",
          "logIndex": "0xe8",
          "removed": false
        },
        {
          "address": "0xe054cc6187b62d5812d4b427c33e8a000afb133f",
          "topics": [
            "0x7d5a649a0cee1e82345eaee0a79f44c313d7fff045298783e5b15dae8107f37b",
            "0x0000000000000000000000000000000000000000000000000000000000000017"
          ],
          "data": "0x00000000000000000000000000000000000000000000000000000000006666d8fffffffffffffffffffffffffffffffffffffffffffffffffffffffffb801d300000000000000000000000000000000000000000000000000000000000000bb80000000000000000000000000000000000000000000000000000000000000bb8",
          "blockHash": "0xc4ab1d1cfe3d2aa1987515bf3df39543076c6d54804f29481a484f72f99ecb1b",
          "blockNumber": "0x9d2fca",
          "blockTimestamp": "0x6998b248",
          "transactionHash": "0x19c55a8fceac511d890a262ab1f6b633608dc7584c19767455d7cfe3b0083385",
          "transactionIndex": "0x5c",
          "logIndex": "0xe9",
          "removed": false
        }
      ],
      "logsBloom": "0x00000000000000000000000000000000000000000000000000000000000004000000000000000000000000000002000008001000000000000000001000000000000000000000000000000008000000000000000000000000000000000000000000000000020000000001000000000800000000000000000000000010000000000000000000000000000000000000000000000000000000000000000000000000000000000000000000000000000000000000000000000000000000000004000000000002000000000000000000000000000000000000000000000000000020000000000080000000000000200080000000000000000000000020000000080000",
      "type": "0x2",
      "transactionHash": "0x19c55a8fceac511d890a262ab1f6b633608dc7584c19767455d7cfe3b0083385",
      "transactionIndex": "0x5c",
      "blockHash": "0xc4ab1d1cfe3d2aa1987515bf3df39543076c6d54804f29481a484f72f99ecb1b",
      "blockNumber": "0x9d2fca",
      "gasUsed": "0x2d093",
      "effectiveGasPrice": "0x5347392",
      "from": "0x42d0e25f42dd126d2c1ebc5592067303c4c0f7d3",
      "to": "0xe054cc6187b62d5812d4b427c33e8a000afb133f",
      "contractAddress": null
    },
    {
      "status": "0x1",
      "cumulativeGasUsed": "0x1c6d46d",
      "logs": [
        {
          "address": "0xe054cc6187b62d5812d4b427c33e8a000afb133f",
          "topics": [
            "0x1ea45e30b31292f9d7c5d37d275b2feca555f13f47dce0fdea2f47e8852ecd78",
            "0x0000000000000000000000000000000000000000000000000000000000000000"
          ],
          "data": "0x000000000000000000000000000000000000000000000000002386f26fc10000",
          "blockHash": "0xc4ab1d1cfe3d2aa1987515bf3df39543076c6d54804f29481a484f72f99ecb1b",
          "blockNumber": "0x9d2fca",
          "blockTimestamp": "0x6998b248",
          "transactionHash": "0x6eb708c2d4a6081072f54ba238cb995fda0cb5a183638bfd4c7767f2cf15c08a",
          "transactionIndex": "0x5d",
          "logIndex": "0xea",
          "removed": false
        }
      ],
      "logsBloom": "0x00000000000000000000000000000000000000000000000000000000000004000000000000000000000000000002000000000000000000000000000000000000000000000000000000000000000000000000000000000000001000000000000000000000020000000000000000000800000000000000000000000000000000000000000000000000000000000000000000000000000000000000000000000000000000000000000000000000000000000000000000000000000000000000000000000000000000000000000000000000000000000000001000000000000020000000000080000000000000000000000000000000001000000000000000000000",
      "type": "0x2",
      "transactionHash": "0x6eb708c2d4a6081072f54ba238cb995fda0cb5a183638bfd4c7767f2cf15c08a",
      "transactionIndex": "0x5d",
      "blockHash": "0xc4ab1d1cfe3d2aa1987515bf3df39543076c6d54804f29481a484f72f99ecb1b",
      "blockNumber": "0x9d2fca",
      "gasUsed": "0xd094",
      "effectiveGasPrice": "0x5347392",
      "from": "0x42d0e25f42dd126d2c1ebc5592067303c4c0f7d3",
      "to": "0xe054cc6187b62d5812d4b427c33e8a000afb133f",
      "contractAddress": null
    },
    {
      "status": "0x1",
      "cumulativeGasUsed": "0x1c7a50d",
      "logs": [
        {
          "address": "0xe054cc6187b62d5812d4b427c33e8a000afb133f",
          "topics": [
            "0x1ea45e30b31292f9d7c5d37d275b2feca555f13f47dce0fdea2f47e8852ecd78",
            "0x0000000000000000000000000000000000000000000000000000000000000001"
          ],
          "data": "0x000000000000000000000000000000000000000000000000002386f26fc10000",
          "blockHash": "0xc4ab1d1cfe3d2aa1987515bf3df39543076c6d54804f29481a484f72f99ecb1b",
          "blockNumber": "0x9d2fca",
          "blockTimestamp": "0x6998b248",
          "transactionHash": "0x1350c65a22b130c0131f84a83e4c6b3d436fd567ed3c8e6b111c88facaed852d",
          "transactionIndex": "0x5e",
          "logIndex": "0xeb",
          "removed": false
        }
      ],
      "logsBloom": "0x00000000000000000000000000000000000000000000000000000000000004000000000000000000000000000002000000000000000000000000000000040000000000000000000000000000000000000000000000040000001000000000000000000000000000000000000000000000000000000000000000000000000000000000000000000000000000000000000000000000000000000000000000000000000000000000000000000000000000000000000000000000000000000000000000000000000000000000000000000000000000000000001000000000000040000000000080000000000000000000000000000000001000000000000000000000",
      "type": "0x2",
      "transactionHash": "0x1350c65a22b130c0131f84a83e4c6b3d436fd567ed3c8e6b111c88facaed852d",
      "transactionIndex": "0x5e",
      "blockHash": "0xc4ab1d1cfe3d2aa1987515bf3df39543076c6d54804f29481a484f72f99ecb1b",
      "blockNumber": "0x9d2fca",
      "gasUsed": "0xd0a0",
      "effectiveGasPrice": "0x5347392",
      "from": "0x42d0e25f42dd126d2c1ebc5592067303c4c0f7d3",
      "to": "0xe054cc6187b62d5812d4b427c33e8a000afb133f",
      "contractAddress": null
    },
    {
      "status": "0x1",
      "cumulativeGasUsed": "0x1c875ad",
      "logs": [
        {
          "address": "0xe054cc6187b62d5812d4b427c33e8a000afb133f",
          "topics": [
            "0x1ea45e30b31292f9d7c5d37d275b2feca555f13f47dce0fdea2f47e8852ecd78",
            "0x0000000000000000000000000000000000000000000000000000000000000002"
          ],
          "data": "0x000000000000000000000000000000000000000000000000002386f26fc10000",
          "blockHash": "0xc4ab1d1cfe3d2aa1987515bf3df39543076c6d54804f29481a484f72f99ecb1b",
          "blockNumber": "0x9d2fca",
          "blockTimestamp": "0x6998b248",
          "transactionHash": "0x1414edb6cdd2e66c448300ea203d2886ceada5c4fe259ce468adbcab349e5ffa",
          "transactionIndex": "0x5f",
          "logIndex": "0xec",
          "removed": false
        }
      ],
      "logsBloom": "0x04000000000000000000000000000000000000000000000000000000000004000000000000000000000000000002000000000000000000000000000000000000000000000000000000000000000000000000000000000000001000000000000000000000000000000000000000000000000000000000000000000000000000000000000000000000000000000000000000000000000000000000000000000000000000000000000000000100000000000000000000000000000000000000000000000000000000000000000000000000000000000000001000000000000000000000000080000000000000000000000000000000009000000000000000000000",
      "type": "0x2",
      "transactionHash": "0x1414edb6cdd2e66c448300ea203d2886ceada5c4fe259ce468adbcab349e5ffa",
      "transactionIndex": "0x5f",
      "blockHash": "0xc4ab1d1cfe3d2aa1987515bf3df39543076c6d54804f29481a484f72f99ecb1b",
      "blockNumber": "0x9d2fca",
      "gasUsed": "0xd0a0",
      "effectiveGasPrice": "0x5347392",
      "from": "0x42d0e25f42dd126d2c1ebc5592067303c4c0f7d3",
      "to": "0xe054cc6187b62d5812d4b427c33e8a000afb133f",
      "contractAddress": null
    },
    {
      "status": "0x1",
      "cumulativeGasUsed": "0x1c9464d",
      "logs": [
        {
          "address": "0xe054cc6187b62d5812d4b427c33e8a000afb133f",
          "topics": [
            "0x1ea45e30b31292f9d7c5d37d275b2feca555f13f47dce0fdea2f47e8852ecd78",
            "0x0000000000000000000000000000000000000000000000000000000000000003"
          ],
          "data": "0x000000000000000000000000000000000000000000000000002386f26fc10000",
          "blockHash": "0xc4ab1d1cfe3d2aa1987515bf3df39543076c6d54804f29481a484f72f99ecb1b",
          "blockNumber": "0x9d2fca",
          "blockTimestamp": "0x6998b248",
          "transactionHash": "0x3ac802e8fac8352d61aff1d0508a795909bde711ef27af1230efe613e6069caf",
          "transactionIndex": "0x60",
          "logIndex": "0xed",
          "removed": false
        }
      ],
      "logsBloom": "0x00000000000000000000000000000000000000000000000000000000000004000000000000000000000000000002000000000000020000000000000000000000000000000000000000000000000000000000000000000000001000000000000000000000000000000000000000000000000000000000000000000000000000000000000000000000000000000000000000000000000000000000000000000000000000000000000000000000000000000000000000800000000000000000400000000000000000000000000000000000000000000000001000000000000000000000000080000000000000000000000000000000001000000000000000000000",
      "type": "0x2",
      "transactionHash": "0x3ac802e8fac8352d61aff1d0508a795909bde711ef27af1230efe613e6069caf",
      "transactionIndex": "0x60",
      "blockHash": "0xc4ab1d1cfe3d2aa1987515bf3df39543076c6d54804f29481a484f72f99ecb1b",
      "blockNumber": "0x9d2fca",
      "gasUsed": "0xd0a0",
      "effectiveGasPrice": "0x5347392",
      "from": "0x42d0e25f42dd126d2c1ebc5592067303c4c0f7d3",
      "to": "0xe054cc6187b62d5812d4b427c33e8a000afb133f",
      "contractAddress": null
    },
    {
      "status": "0x1",
      "cumulativeGasUsed": "0x1ca16ed",
      "logs": [
        {
          "address": "0xe054cc6187b62d5812d4b427c33e8a000afb133f",
          "topics": [
            "0x1ea45e30b31292f9d7c5d37d275b2feca555f13f47dce0fdea2f47e8852ecd78",
            "0x0000000000000000000000000000000000000000000000000000000000000004"
          ],
          "data": "0x000000000000000000000000000000000000000000000000002386f26fc10000",
          "blockHash": "0xc4ab1d1cfe3d2aa1987515bf3df39543076c6d54804f29481a484f72f99ecb1b",
          "blockNumber": "0x9d2fca",
          "blockTimestamp": "0x6998b248",
          "transactionHash": "0xb4388d59aec68edae0c7236b2cf434f6687853be8d32c1765a7dfa62dd1ac8a3",
          "transactionIndex": "0x61",
          "logIndex": "0xee",
          "removed": false
        }
      ],
      "logsBloom": "0x00000000000000000000000000000000000000000000000000000000000004000000000000000000000000000002000000000000000000000000000000000000000000000000000000000000000000000000000000000000001000000000000008000000000000000000000000000000000000000000000000000000000000000000000000000000000000000000000000000000000000000000000000000000000000000000000000000000000000000000000000000000002000000000000000000000000000000000000000000000000000008000001000000000000000000000000080000000000000000000000000000000001000000000000000000000",
      "type": "0x2",
      "transactionHash": "0xb4388d59aec68edae0c7236b2cf434f6687853be8d32c1765a7dfa62dd1ac8a3",
      "transactionIndex": "0x61",
      "blockHash": "0xc4ab1d1cfe3d2aa1987515bf3df39543076c6d54804f29481a484f72f99ecb1b",
      "blockNumber": "0x9d2fca",
      "gasUsed": "0xd0a0",
      "effectiveGasPrice": "0x5347392",
      "from": "0x42d0e25f42dd126d2c1ebc5592067303c4c0f7d3",
      "to": "0xe054cc6187b62d5812d4b427c33e8a000afb133f",
      "contractAddress": null
    },
    {
      "status": "0x1",
      "cumulativeGasUsed": "0x1cae78d",
      "logs": [
        {
          "address": "0xe054cc6187b62d5812d4b427c33e8a000afb133f",
          "topics": [
            "0x1ea45e30b31292f9d7c5d37d275b2feca555f13f47dce0fdea2f47e8852ecd78",
            "0x0000000000000000000000000000000000000000000000000000000000000005"
          ],
          "data": "0x000000000000000000000000000000000000000000000000002386f26fc10000",
          "blockHash": "0xc4ab1d1cfe3d2aa1987515bf3df39543076c6d54804f29481a484f72f99ecb1b",
          "blockNumber": "0x9d2fca",
          "blockTimestamp": "0x6998b248",
          "transactionHash": "0x878bc5bafa195d2cd523472bd82fa6e3f13abaecd0ae03f04838d9bc707b52cc",
          "transactionIndex": "0x62",
          "logIndex": "0xef",
          "removed": false
        }
      ],
      "logsBloom": "0x00000000000000000000000000000000000000000000000000000000000004000000000000000000000000000002000000000000000000000000000000000000000010000000000000000000000000000000000000000000001000000000000000000000000000000000000000000000000000000000000000000000000000000000000000000000000000000000001000000800000000000000000000000000000000000000000000000000000000000000000000000000000000000000000000000000000000000000000000000000000000000000001000000000000000000000000080000000000000000000000000000000001000000000000000000000",
      "type": "0x2",
      "transactionHash": "0x878bc5bafa195d2cd523472bd82fa6e3f13abaecd0ae03f04838d9bc707b52cc",
      "transactionIndex": "0x62",
      "blockHash": "0xc4ab1d1cfe3d2aa1987515bf3df39543076c6d54804f29481a484f72f99ecb1b",
      "blockNumber": "0x9d2fca",
      "gasUsed": "0xd0a0",
      "effectiveGasPrice": "0x5347392",
      "from": "0x42d0e25f42dd126d2c1ebc5592067303c4c0f7d3",
      "to": "0xe054cc6187b62d5812d4b427c33e8a000afb133f",
      "contractAddress": null
    },
    {
      "status": "0x1",
      "cumulativeGasUsed": "0x1cbb82d",
      "logs": [
        {
          "address": "0xe054cc6187b62d5812d4b427c33e8a000afb133f",
          "topics": [
            "0x1ea45e30b31292f9d7c5d37d275b2feca555f13f47dce0fdea2f47e8852ecd78",
            "0x0000000000000000000000000000000000000000000000000000000000000006"
          ],
          "data": "0x000000000000000000000000000000000000000000000000002386f26fc10000",
          "blockHash": "0xc4ab1d1cfe3d2aa1987515bf3df39543076c6d54804f29481a484f72f99ecb1b",
          "blockNumber": "0x9d2fca",
          "blockTimestamp": "0x6998b248",
          "transactionHash": "0x91cc41d84993b97b943c3e4ff7c5972cb7b3d69e274cf5311283f5ff1b8aecaa",
          "transactionIndex": "0x63",
          "logIndex": "0xf0",
          "removed": false
        }
      ],
      "logsBloom": "0x00000000000000000000000000000000000000000000000000000000000004000000000000000000000000000002000000000000000400000000000000000000000000000000000000000000000000000000000000000000001000000000000000000000000000000000000000000000000000000000000000000000000000000000000400000000000000000000000000000000000000000000000000000000000000000000000000000000000000000000000000000000000000080000000000000000000000000000000000000000000000000000001000000000000000000000000080000000000000000000000000000000001000000000000000000000",
      "type": "0x2",
      "transactionHash": "0x91cc41d84993b97b943c3e4ff7c5972cb7b3d69e274cf5311283f5ff1b8aecaa",
      "transactionIndex": "0x63",
      "blockHash": "0xc4ab1d1cfe3d2aa1987515bf3df39543076c6d54804f29481a484f72f99ecb1b",
      "blockNumber": "0x9d2fca",
      "gasUsed": "0xd0a0",
      "effectiveGasPrice": "0x5347392",
      "from": "0x42d0e25f42dd126d2c1ebc5592067303c4c0f7d3",
      "to": "0xe054cc6187b62d5812d4b427c33e8a000afb133f",
      "contractAddress": null
    },
    {
      "status": "0x1",
      "cumulativeGasUsed": "0x1cc88cd",
      "logs": [
        {
          "address": "0xe054cc6187b62d5812d4b427c33e8a000afb133f",
          "topics": [
            "0x1ea45e30b31292f9d7c5d37d275b2feca555f13f47dce0fdea2f47e8852ecd78",
            "0x0000000000000000000000000000000000000000000000000000000000000007"
          ],
          "data": "0x000000000000000000000000000000000000000000000000002386f26fc10000",
          "blockHash": "0xc4ab1d1cfe3d2aa1987515bf3df39543076c6d54804f29481a484f72f99ecb1b",
          "blockNumber": "0x9d2fca",
          "blockTimestamp": "0x6998b248",
          "transactionHash": "0x8644cdb9f5fa8c57d1d6a0403b45a3773b16889e1c218f0794f93f2744e1cd8a",
          "transactionIndex": "0x64",
          "logIndex": "0xf1",
          "removed": false
        }
      ],
      "logsBloom": "0x00000000000000000000000000000000000000000000000000000000000004000000000000000000000000000002000000001000000000000000000000000000000020000000000000000000000000000000000000000000001000000000000000000000000000000000000000000000000000000000000000000000000000000000000000000000000000000000000000000000000000000000000000000000000000000000000000000000000000000000000000000000000000000000000000000000000000000000000000000000000000000000001000000100000000000000000080000000000000000000000000000000001000000000000000000000",
      "type": "0x2",
      "transactionHash": "0x8644cdb9f5fa8c57d1d6a0403b45a3773b16889e1c218f0794f93f2744e1cd8a",
      "transactionIndex": "0x64",
      "blockHash": "0xc4ab1d1cfe3d2aa1987515bf3df39543076c6d54804f29481a484f72f99ecb1b",
      "blockNumber": "0x9d2fca",
      "gasUsed": "0xd0a0",
      "effectiveGasPrice": "0x5347392",
      "from": "0x42d0e25f42dd126d2c1ebc5592067303c4c0f7d3",
      "to": "0xe054cc6187b62d5812d4b427c33e8a000afb133f",
      "contractAddress": null
    }
  ],
  "libraries": [],
  "pending": [],
  "returns": {},
  "timestamp": 1771614793800,
  "chain": 11155111,
  "commit": "6456c17"
}